{
  "_format": "hh-sol-artifact-1",
  "contractName": "BusinessCard",
  "sourceName": "contracts/BusinessCard.sol",
  "abi": [
    {
      "inputs": [],
      "stateMutability": "nonpayable",
      "type": "constructor"
    },
    {
      "inputs": [
        {
          "internalType": "address",
          "name": "target",
          "type": "address"
        }
      ],
      "name": "AddressEmptyCode",
      "type": "error"
    },
    {
      "inputs": [
        {
          "internalType": "address",
          "name": "implementation",
          "type": "address"
        }
      ],
      "name": "ERC1967InvalidImplementation",
      "type": "error"
    },
    {
      "inputs": [],
      "name": "ERC1967NonPayable",
      "type": "error"
    },
    {
      "inputs": [
        {
          "internalType": "address",
          "name": "sender",
          "type": "address"
        },
        {
          "internalType": "uint256",
          "name": "tokenId",
          "type": "uint256"
        },
        {
          "internalType": "address",
          "name": "owner",
          "type": "address"
        }
      ],
      "name": "ERC721IncorrectOwner",
      "type": "error"
    },
    {
      "inputs": [
        {
          "internalType": "address",
          "name": "operator",
          "type": "address"
        },
        {
          "internalType": "uint256",
          "name": "tokenId",
          "type": "uint256"
        }
      ],
      "name": "ERC721InsufficientApproval",
      "type": "error"
    },
    {
      "inputs": [
        {
          "internalType": "address",
          "name": "approver",
          "type": "address"
        }
      ],
      "name": "ERC721InvalidApprover",
      "type": "error"
    },
    {
      "inputs": [
        {
          "internalType": "address",
          "name": "operator",
          "type": "address"
        }
      ],
      "name": "ERC721InvalidOperator",
      "type": "error"
    },
    {
      "inputs": [
        {
          "internalType": "address",
          "name": "owner",
          "type": "address"
        }
      ],
      "name": "ERC721InvalidOwner",
      "type": "error"
    },
    {
      "inputs": [
        {
          "internalType": "address",
          "name": "receiver",
          "type": "address"
        }
      ],
      "name": "ERC721InvalidReceiver",
      "type": "error"
    },
    {
      "inputs": [
        {
          "internalType": "address",
          "name": "sender",
          "type": "address"
        }
      ],
      "name": "ERC721InvalidSender",
      "type": "error"
    },
    {
      "inputs": [
        {
          "internalType": "uint256",
          "name": "tokenId",
          "type": "uint256"
        }
      ],
      "name": "ERC721NonexistentToken",
      "type": "error"
    },
    {
      "inputs": [],
      "name": "FailedCall",
      "type": "error"
    },
    {
      "inputs": [],
      "name": "InvalidInitialization",
      "type": "error"
    },
    {
      "inputs": [],
      "name": "NotInitializing",
      "type": "error"
    },
    {
      "inputs": [
        {
          "internalType": "address",
          "name": "owner",
          "type": "address"
        }
      ],
      "name": "OwnableInvalidOwner",
      "type": "error"
    },
    {
      "inputs": [
        {
          "internalType": "address",
          "name": "account",
          "type": "address"
        }
      ],
      "name": "OwnableUnauthorizedAccount",
      "type": "error"
    },
    {
      "inputs": [],
      "name": "UUPSUnauthorizedCallContext",
      "type": "error"
    },
    {
      "inputs": [
        {
          "internalType": "bytes32",
          "name": "slot",
          "type": "bytes32"
        }
      ],
      "name": "UUPSUnsupportedProxiableUUID",
      "type": "error"
    },
    {
      "anonymous": false,
      "inputs": [
        {
          "indexed": true,
          "internalType": "address",
          "name": "owner",
          "type": "address"
        },
        {
          "indexed": true,
          "internalType": "address",
          "name": "approved",
          "type": "address"
        },
        {
          "indexed": true,
          "internalType": "uint256",
          "name": "tokenId",
          "type": "uint256"
        }
      ],
      "name": "Approval",
      "type": "event"
    },
    {
      "anonymous": false,
      "inputs": [
        {
          "indexed": true,
          "internalType": "address",
          "name": "owner",
          "type": "address"
        },
        {
          "indexed": true,
          "internalType": "address",
          "name": "operator",
          "type": "address"
        },
        {
          "indexed": false,
          "internalType": "bool",
          "name": "approved",
          "type": "bool"
        }
      ],
      "name": "ApprovalForAll",
      "type": "event"
    },
    {
      "anonymous": false,
      "inputs": [
        {
          "indexed": false,
          "internalType": "uint256",
          "name": "_fromTokenId",
          "type": "uint256"
        },
        {
          "indexed": false,
          "internalType": "uint256",
          "name": "_toTokenId",
          "type": "uint256"
        }
      ],
      "name": "BatchMetadataUpdate",
      "type": "event"
    },
    {
      "anonymous": false,
      "inputs": [
        {
          "indexed": true,
          "internalType": "address",
          "name": "owner",
          "type": "address"
        },
        {
          "indexed": true,
          "internalType": "uint256",
          "name": "cardId",
          "type": "uint256"
        }
      ],
      "name": "BusinessCardMinted",
      "type": "event"
    },
    {
      "anonymous": false,
      "inputs": [
        {
          "indexed": true,
          "internalType": "address",
          "name": "owner",
          "type": "address"
        },
        {
          "indexed": true,
          "internalType": "address",
          "name": "renter",
          "type": "address"
        },
        {
          "indexed": false,
          "internalType": "uint256",
          "name": "cardId",
          "type": "uint256"
        }
      ],
      "name": "BusinessCardRentalEnded",
      "type": "event"
    },
    {
      "anonymous": false,
      "inputs": [
        {
          "indexed": true,
          "internalType": "address",
          "name": "owner",
          "type": "address"
        },
        {
          "indexed": true,
          "internalType": "address",
          "name": "renter",
          "type": "address"
        },
        {
          "indexed": false,
          "internalType": "uint256",
          "name": "cardId",
          "type": "uint256"
        },
        {
          "indexed": false,
          "internalType": "uint256",
          "name": "duration",
          "type": "uint256"
        }
      ],
      "name": "BusinessCardRented",
      "type": "event"
    },
    {
      "anonymous": false,
      "inputs": [
        {
          "indexed": true,
          "internalType": "address",
          "name": "from",
          "type": "address"
        },
        {
          "indexed": true,
          "internalType": "address",
          "name": "to",
          "type": "address"
        },
        {
          "indexed": false,
          "internalType": "uint256",
          "name": "cardId",
          "type": "uint256"
        }
      ],
      "name": "BusinessCardSent",
      "type": "event"
    },
    {
      "anonymous": false,
      "inputs": [
        {
          "indexed": true,
          "internalType": "address",
          "name": "from",
          "type": "address"
        },
        {
          "indexed": true,
          "internalType": "address",
          "name": "to",
          "type": "address"
        },
        {
          "indexed": false,
          "internalType": "uint256",
          "name": "myCardId",
          "type": "uint256"
        }
      ],
      "name": "BusinessCardTraded",
      "type": "event"
    },
    {
      "anonymous": false,
      "inputs": [
        {
          "indexed": true,
          "internalType": "address",
          "name": "owner",
          "type": "address"
        },
        {
          "indexed": true,
          "internalType": "uint256",
          "name": "cardId",
          "type": "uint256"
        }
      ],
      "name": "BusinessCardUpdated",
      "type": "event"
    },
    {
      "anonymous": false,
      "inputs": [
        {
          "indexed": false,
          "internalType": "uint64",
          "name": "version",
          "type": "uint64"
        }
      ],
      "name": "Initialized",
      "type": "event"
    },
    {
      "anonymous": false,
      "inputs": [
        {
          "indexed": false,
          "internalType": "uint256",
          "name": "_tokenId",
          "type": "uint256"
        }
      ],
      "name": "MetadataUpdate",
      "type": "event"
    },
    {
      "anonymous": false,
      "inputs": [
        {
          "indexed": true,
          "internalType": "address",
          "name": "previousOwner",
          "type": "address"
        },
        {
          "indexed": true,
          "internalType": "address",
          "name": "newOwner",
          "type": "address"
        }
      ],
      "name": "OwnershipTransferred",
      "type": "event"
    },
    {
      "anonymous": false,
      "inputs": [
        {
          "indexed": true,
          "internalType": "address",
          "name": "from",
          "type": "address"
        },
        {
          "indexed": true,
          "internalType": "address",
          "name": "to",
          "type": "address"
        },
        {
          "indexed": true,
          "internalType": "uint256",
          "name": "tokenId",
          "type": "uint256"
        }
      ],
      "name": "Transfer",
      "type": "event"
    },
    {
      "anonymous": false,
      "inputs": [
        {
          "indexed": true,
          "internalType": "address",
          "name": "implementation",
          "type": "address"
        }
      ],
      "name": "Upgraded",
      "type": "event"
    },
    {
      "inputs": [],
      "name": "UPGRADE_INTERFACE_VERSION",
      "outputs": [
        {
          "internalType": "string",
          "name": "",
          "type": "string"
        }
      ],
      "stateMutability": "view",
      "type": "function"
    },
    {
      "inputs": [
        {
          "internalType": "address",
          "name": "to",
          "type": "address"
        },
        {
          "internalType": "uint256",
          "name": "tokenId",
          "type": "uint256"
        }
      ],
      "name": "approve",
      "outputs": [],
      "stateMutability": "nonpayable",
      "type": "function"
    },
    {
      "inputs": [
        {
          "internalType": "address",
          "name": "owner",
          "type": "address"
        }
      ],
      "name": "balanceOf",
      "outputs": [
        {
          "internalType": "uint256",
          "name": "",
          "type": "uint256"
        }
      ],
      "stateMutability": "view",
      "type": "function"
    },
    {
      "inputs": [
        {
          "internalType": "uint256",
          "name": "",
          "type": "uint256"
        }
      ],
      "name": "businessCards",
      "outputs": [
        {
          "internalType": "string",
          "name": "name",
          "type": "string"
        },
        {
          "internalType": "string",
          "name": "title",
          "type": "string"
        },
        {
          "internalType": "string",
          "name": "company",
          "type": "string"
        },
        {
          "internalType": "string",
          "name": "contactInfo",
          "type": "string"
        }
      ],
      "stateMutability": "view",
      "type": "function"
    },
    {
      "inputs": [
        {
          "internalType": "uint256",
          "name": "",
          "type": "uint256"
        }
      ],
      "name": "cardRentals",
      "outputs": [
        {
          "internalType": "address",
          "name": "renter",
          "type": "address"
        },
        {
          "internalType": "uint256",
          "name": "startTime",
          "type": "uint256"
        },
        {
          "internalType": "uint256",
          "name": "endTime",
          "type": "uint256"
        },
        {
          "internalType": "bool",
          "name": "isActive",
          "type": "bool"
        }
      ],
      "stateMutability": "view",
      "type": "function"
    },
    {
      "inputs": [
        {
          "internalType": "uint256",
          "name": "_cardId",
          "type": "uint256"
        }
      ],
      "name": "endRental",
      "outputs": [],
      "stateMutability": "nonpayable",
      "type": "function"
    },
    {
      "inputs": [
        {
          "internalType": "uint256",
          "name": "tokenId",
          "type": "uint256"
        }
      ],
      "name": "getApproved",
      "outputs": [
        {
          "internalType": "address",
          "name": "",
          "type": "address"
        }
      ],
      "stateMutability": "view",
      "type": "function"
    },
    {
      "inputs": [
        {
          "internalType": "uint256",
          "name": "_cardId",
          "type": "uint256"
        }
      ],
      "name": "getBusinessCard",
      "outputs": [
        {
          "components": [
            {
              "internalType": "string",
              "name": "name",
              "type": "string"
            },
            {
              "internalType": "string",
              "name": "title",
              "type": "string"
            },
            {
              "internalType": "string",
              "name": "company",
              "type": "string"
            },
            {
              "internalType": "string",
              "name": "contactInfo",
              "type": "string"
            }
          ],
          "internalType": "struct BusinessCard.CardDetails",
          "name": "",
          "type": "tuple"
        }
      ],
      "stateMutability": "view",
      "type": "function"
    },
    {
      "inputs": [
        {
          "internalType": "uint256[]",
          "name": "_cardIds",
          "type": "uint256[]"
        }
      ],
      "name": "getMultipleBusinessCards",
      "outputs": [
        {
          "components": [
            {
              "internalType": "string",
              "name": "name",
              "type": "string"
            },
            {
              "internalType": "string",
              "name": "title",
              "type": "string"
            },
            {
              "internalType": "string",
              "name": "company",
              "type": "string"
            },
            {
              "internalType": "string",
              "name": "contactInfo",
              "type": "string"
            }
          ],
          "internalType": "struct BusinessCard.CardDetails[]",
          "name": "",
          "type": "tuple[]"
        }
      ],
      "stateMutability": "view",
      "type": "function"
    },
    {
      "inputs": [
        {
          "internalType": "address",
          "name": "_owner",
          "type": "address"
        }
      ],
      "name": "getReceivedCards",
      "outputs": [
        {
          "internalType": "uint256[]",
          "name": "",
          "type": "uint256[]"
        }
      ],
      "stateMutability": "view",
      "type": "function"
    },
    {
      "inputs": [
        {
          "internalType": "uint256",
          "name": "_cardId",
          "type": "uint256"
        }
      ],
      "name": "getRentalStatus",
      "outputs": [
        {
          "internalType": "bool",
          "name": "isRented",
          "type": "bool"
        },
        {
          "internalType": "address",
          "name": "renter",
          "type": "address"
        },
        {
          "internalType": "uint256",
          "name": "remainingTime",
          "type": "uint256"
        }
      ],
      "stateMutability": "view",
      "type": "function"
    },
    {
      "inputs": [],
      "name": "getRentedCards",
      "outputs": [
        {
          "internalType": "uint256[]",
          "name": "cardIds",
          "type": "uint256[]"
        },
        {
          "components": [
            {
              "internalType": "string",
              "name": "name",
              "type": "string"
            },
            {
              "internalType": "string",
              "name": "title",
              "type": "string"
            },
            {
              "internalType": "string",
              "name": "company",
              "type": "string"
            },
            {
              "internalType": "string",
              "name": "contactInfo",
              "type": "string"
            }
          ],
          "internalType": "struct BusinessCard.CardDetails[]",
          "name": "cards",
          "type": "tuple[]"
        },
        {
          "internalType": "uint256[]",
          "name": "remainingTimes",
          "type": "uint256[]"
        }
      ],
      "stateMutability": "view",
      "type": "function"
    },
    {
      "inputs": [],
      "name": "initialize",
      "outputs": [],
      "stateMutability": "nonpayable",
      "type": "function"
    },
    {
      "inputs": [
        {
          "internalType": "address",
          "name": "owner",
          "type": "address"
        },
        {
          "internalType": "address",
          "name": "operator",
          "type": "address"
        }
      ],
      "name": "isApprovedForAll",
      "outputs": [
        {
          "internalType": "bool",
          "name": "",
          "type": "bool"
        }
      ],
      "stateMutability": "view",
      "type": "function"
    },
    {
      "inputs": [
        {
          "internalType": "string",
          "name": "_name",
          "type": "string"
        },
        {
          "internalType": "string",
          "name": "_title",
          "type": "string"
        },
        {
          "internalType": "string",
          "name": "_company",
          "type": "string"
        },
        {
          "internalType": "string",
          "name": "_contactInfo",
          "type": "string"
        },
        {
          "internalType": "string",
          "name": "_tokenURI",
          "type": "string"
        }
      ],
      "name": "mintBusinessCard",
      "outputs": [],
      "stateMutability": "nonpayable",
      "type": "function"
    },
    {
      "inputs": [],
      "name": "name",
      "outputs": [
        {
          "internalType": "string",
          "name": "",
          "type": "string"
        }
      ],
      "stateMutability": "view",
      "type": "function"
    },
    {
      "inputs": [],
      "name": "owner",
      "outputs": [
        {
          "internalType": "address",
          "name": "",
          "type": "address"
        }
      ],
      "stateMutability": "view",
      "type": "function"
    },
    {
      "inputs": [
        {
          "internalType": "uint256",
          "name": "tokenId",
          "type": "uint256"
        }
      ],
      "name": "ownerOf",
      "outputs": [
        {
          "internalType": "address",
          "name": "",
          "type": "address"
        }
      ],
      "stateMutability": "view",
      "type": "function"
    },
    {
      "inputs": [],
      "name": "proxiableUUID",
      "outputs": [
        {
          "internalType": "bytes32",
          "name": "",
          "type": "bytes32"
        }
      ],
      "stateMutability": "view",
      "type": "function"
    },
    {
      "inputs": [
        {
          "internalType": "address",
          "name": "",
          "type": "address"
        },
        {
          "internalType": "uint256",
          "name": "",
          "type": "uint256"
        }
      ],
      "name": "receivedCards",
      "outputs": [
        {
          "internalType": "bool",
          "name": "",
          "type": "bool"
        }
      ],
      "stateMutability": "view",
      "type": "function"
    },
    {
      "inputs": [],
      "name": "renounceOwnership",
      "outputs": [],
      "stateMutability": "nonpayable",
      "type": "function"
    },
    {
      "inputs": [
        {
          "internalType": "uint256",
          "name": "_cardId",
          "type": "uint256"
        },
        {
          "internalType": "address",
          "name": "_renter",
          "type": "address"
        },
        {
          "internalType": "uint256",
          "name": "_duration",
          "type": "uint256"
        }
      ],
      "name": "rentBusinessCard",
      "outputs": [],
      "stateMutability": "nonpayable",
      "type": "function"
    },
    {
      "inputs": [
        {
          "internalType": "address",
          "name": "from",
          "type": "address"
        },
        {
          "internalType": "address",
          "name": "to",
          "type": "address"
        },
        {
          "internalType": "uint256",
          "name": "tokenId",
          "type": "uint256"
        }
      ],
      "name": "safeTransferFrom",
      "outputs": [],
      "stateMutability": "nonpayable",
      "type": "function"
    },
    {
      "inputs": [
        {
          "internalType": "address",
          "name": "from",
          "type": "address"
        },
        {
          "internalType": "address",
          "name": "to",
          "type": "address"
        },
        {
          "internalType": "uint256",
          "name": "tokenId",
          "type": "uint256"
        },
        {
          "internalType": "bytes",
          "name": "data",
          "type": "bytes"
        }
      ],
      "name": "safeTransferFrom",
      "outputs": [],
      "stateMutability": "nonpayable",
      "type": "function"
    },
    {
      "inputs": [
        {
          "internalType": "address",
          "name": "_to",
          "type": "address"
        },
        {
          "internalType": "uint256",
          "name": "_cardId",
          "type": "uint256"
        }
      ],
      "name": "sendBusinessCard",
      "outputs": [],
      "stateMutability": "nonpayable",
      "type": "function"
    },
    {
      "inputs": [
        {
          "internalType": "address",
          "name": "operator",
          "type": "address"
        },
        {
          "internalType": "bool",
          "name": "approved",
          "type": "bool"
        }
      ],
      "name": "setApprovalForAll",
      "outputs": [],
      "stateMutability": "nonpayable",
      "type": "function"
    },
    {
      "inputs": [
        {
          "internalType": "bytes4",
          "name": "interfaceId",
          "type": "bytes4"
        }
      ],
      "name": "supportsInterface",
      "outputs": [
        {
          "internalType": "bool",
          "name": "",
          "type": "bool"
        }
      ],
      "stateMutability": "view",
      "type": "function"
    },
    {
      "inputs": [],
      "name": "symbol",
      "outputs": [
        {
          "internalType": "string",
          "name": "",
          "type": "string"
        }
      ],
      "stateMutability": "view",
      "type": "function"
    },
    {
      "inputs": [
        {
          "internalType": "uint256",
          "name": "tokenId",
          "type": "uint256"
        }
      ],
      "name": "tokenURI",
      "outputs": [
        {
          "internalType": "string",
          "name": "",
          "type": "string"
        }
      ],
      "stateMutability": "view",
      "type": "function"
    },
    {
      "inputs": [
        {
          "internalType": "address",
          "name": "from",
          "type": "address"
        },
        {
          "internalType": "address",
          "name": "to",
          "type": "address"
        },
        {
          "internalType": "uint256",
          "name": "tokenId",
          "type": "uint256"
        }
      ],
      "name": "transferFrom",
      "outputs": [],
      "stateMutability": "nonpayable",
      "type": "function"
    },
    {
      "inputs": [
        {
          "internalType": "address",
          "name": "newOwner",
          "type": "address"
        }
      ],
      "name": "transferOwnership",
      "outputs": [],
      "stateMutability": "nonpayable",
      "type": "function"
    },
    {
      "inputs": [
        {
          "internalType": "uint256",
          "name": "_cardId",
          "type": "uint256"
        },
        {
          "internalType": "string",
          "name": "_title",
          "type": "string"
        },
        {
          "internalType": "string",
          "name": "_company",
          "type": "string"
        },
        {
          "internalType": "string",
          "name": "_contactInfo",
          "type": "string"
        },
        {
          "internalType": "string",
          "name": "_tokenURI",
          "type": "string"
        }
      ],
      "name": "updateBusinessCard",
      "outputs": [],
      "stateMutability": "nonpayable",
      "type": "function"
    },
    {
      "inputs": [
        {
          "internalType": "address",
          "name": "newImplementation",
          "type": "address"
        },
        {
          "internalType": "bytes",
          "name": "data",
          "type": "bytes"
        }
      ],
      "name": "upgradeToAndCall",
      "outputs": [],
      "stateMutability": "payable",
      "type": "function"
    },
    {
      "inputs": [
        {
          "internalType": "address",
          "name": "",
          "type": "address"
        }
      ],
      "name": "userCard",
      "outputs": [
        {
          "internalType": "uint256",
          "name": "",
          "type": "uint256"
        }
      ],
      "stateMutability": "view",
      "type": "function"
    }
  ],
  "bytecode": "0x60a06040523073ffffffffffffffffffffffffffffffffffffffff1660809073ffffffffffffffffffffffffffffffffffffffff1681525034801561004357600080fd5b5061005261005760201b60201c565b6101c1565b600061006761015b60201b60201c565b90508060000160089054906101000a900460ff16156100b2576040517ff92ee8a900000000000000000000000000000000000000000000000000000000815260040160405180910390fd5b67ffffffffffffffff80168160000160009054906101000a900467ffffffffffffffff1667ffffffffffffffff16146101585767ffffffffffffffff8160000160006101000a81548167ffffffffffffffff021916908367ffffffffffffffff1602179055507fc7f505b2f371ae2175ee4913f4499e1f2633a7b5936321eed1cdaeb6115181d267ffffffffffffffff60405161014f91906101a6565b60405180910390a15b50565b60007ff0c57e16840df040f15088dc2f81fe391c3923bec73e23a9662efc9c229c6a00905090565b600067ffffffffffffffff82169050919050565b6101a081610183565b82525050565b60006020820190506101bb6000830184610197565b92915050565b608051615f126101ea60003960008181613163015281816131b801526133730152615f126000f3fe6080604052600436106101f95760003560e01c80639323c9331161010d578063b88d4fde116100a0578063d2e9c45f1161006f578063d2e9c45f14610776578063dc3ad23c1461079f578063dd9c96db146107c8578063e985e9c514610807578063f2fde38b14610844576101f9565b8063b88d4fde14610696578063bf15987e146106bf578063c39c77a2146106fc578063c87b56dd14610739576101f9565b8063a22cb465116100dc578063a22cb465146105d9578063ad3cb1cc14610602578063adca289a1461062d578063b2d5cc871461066d576101f9565b80639323c9331461052f578063950dbc461461055c57806395d89b411461058557806397491d6f146105b0576101f9565b80634f1ef2861161019057806370a082311161015f57806370a082311461045c578063715018a6146104995780637a148238146104b05780638129fc1c146104ed5780638da5cb5b14610504576101f9565b80634f1ef2861461039857806352d1902d146103b45780635c9dcfdf146103df5780636352211e1461041f576101f9565b806311e20494116101cc57806311e20494146102cc57806323b872dd14610309578063277ce8ec1461033257806342842e0e1461036f576101f9565b806301ffc9a7146101fe57806306fdde031461023b578063081812fc14610266578063095ea7b3146102a3575b600080fd5b34801561020a57600080fd5b506102256004803603810190610220919061463b565b61086d565b6040516102329190614683565b60405180910390f35b34801561024757600080fd5b506102506108ce565b60405161025d919061472e565b60405180910390f35b34801561027257600080fd5b5061028d60048036038101906102889190614786565b61096f565b60405161029a91906147f4565b60405180910390f35b3480156102af57600080fd5b506102ca60048036038101906102c5919061483b565b61098b565b005b3480156102d857600080fd5b506102f360048036038101906102ee919061487b565b6109a1565b60405161030091906148b7565b60405180910390f35b34801561031557600080fd5b50610330600480360381019061032b91906148d2565b6109b9565b005b34801561033e57600080fd5b5061035960048036038101906103549190614786565b610abb565b60405161036691906149e7565b60405180910390f35b34801561037b57600080fd5b50610396600480360381019061039191906148d2565b610d30565b005b6103b260048036038101906103ad9190614b3e565b610d50565b005b3480156103c057600080fd5b506103c9610d6f565b6040516103d69190614bb3565b60405180910390f35b3480156103eb57600080fd5b5061040660048036038101906104019190614786565b610da2565b6040516104169493929190614bce565b60405180910390f35b34801561042b57600080fd5b5061044660048036038101906104419190614786565b610ff2565b60405161045391906147f4565b60405180910390f35b34801561046857600080fd5b50610483600480360381019061047e919061487b565b611004565b60405161049091906148b7565b60405180910390f35b3480156104a557600080fd5b506104ae6110cd565b005b3480156104bc57600080fd5b506104d760048036038101906104d2919061487b565b6110e1565b6040516104e49190614ced565b60405180910390f35b3480156104f957600080fd5b50610502611178565b005b34801561051057600080fd5b5061051961138a565b60405161052691906147f4565b60405180910390f35b34801561053b57600080fd5b506105446113c2565b60405161055393929190614e49565b60405180910390f35b34801561056857600080fd5b50610583600480360381019061057e9190614e95565b6119d0565b005b34801561059157600080fd5b5061059a611c95565b6040516105a7919061472e565b60405180910390f35b3480156105bc57600080fd5b506105d760048036038101906105d29190614786565b611d36565b005b3480156105e557600080fd5b5061060060048036038101906105fb9190614f14565b611f50565b005b34801561060e57600080fd5b50610617611f66565b604051610624919061472e565b60405180910390f35b34801561063957600080fd5b50610654600480360381019061064f9190614786565b611f9f565b6040516106649493929190614f54565b60405180910390f35b34801561067957600080fd5b50610694600480360381019061068f919061503a565b611ffc565b005b3480156106a257600080fd5b506106bd60048036038101906106b89190615141565b6121ce565b005b3480156106cb57600080fd5b506106e660048036038101906106e1919061528c565b6121f3565b6040516106f391906152d5565b60405180910390f35b34801561070857600080fd5b50610723600480360381019061071e919061483b565b61250f565b6040516107309190614683565b60405180910390f35b34801561074557600080fd5b50610760600480360381019061075b9190614786565b61253e565b60405161076d919061472e565b60405180910390f35b34801561078257600080fd5b5061079d600480360381019061079891906152f7565b612662565b005b3480156107ab57600080fd5b506107c660048036038101906107c1919061483b565b612799565b005b3480156107d457600080fd5b506107ef60048036038101906107ea9190614786565b612b11565b6040516107fe939291906153e2565b60405180910390f35b34801561081357600080fd5b5061082e60048036038101906108299190615419565b612c15565b60405161083b9190614683565b60405180910390f35b34801561085057600080fd5b5061086b6004803603810190610866919061487b565b612cb7565b005b6000634906490660e01b7bffffffffffffffffffffffffffffffffffffffffffffffffffffffff1916827bffffffffffffffffffffffffffffffffffffffffffffffffffffffff191614806108c757506108c682612d3d565b5b9050919050565b606060006108da612e1f565b90508060000180546108eb90615488565b80601f016020809104026020016040519081016040528092919081815260200182805461091790615488565b80156109645780601f1061093957610100808354040283529160200191610964565b820191906000526020600020905b81548152906001019060200180831161094757829003601f168201915b505050505091505090565b600061097a82612e47565b5061098482612ecf565b9050919050565b61099d8282610998612f1a565b612f22565b5050565b60026020528060005260406000206000915090505481565b600073ffffffffffffffffffffffffffffffffffffffff168273ffffffffffffffffffffffffffffffffffffffff1603610a2b5760006040517f64a0ae92000000000000000000000000000000000000000000000000000000008152600401610a2291906147f4565b60405180910390fd5b6000610a3f8383610a3a612f1a565b612f34565b90508373ffffffffffffffffffffffffffffffffffffffff168173ffffffffffffffffffffffffffffffffffffffff1614610ab5578382826040517f64283d7b000000000000000000000000000000000000000000000000000000008152600401610aac939291906154b9565b60405180910390fd5b50505050565b610ac36145a7565b60016000838152602001908152602001600020604051806080016040529081600082018054610af190615488565b80601f0160208091040260200160405190810160405280929190818152602001828054610b1d90615488565b8015610b6a5780601f10610b3f57610100808354040283529160200191610b6a565b820191906000526020600020905b815481529060010190602001808311610b4d57829003601f168201915b50505050508152602001600182018054610b8390615488565b80601f0160208091040260200160405190810160405280929190818152602001828054610baf90615488565b8015610bfc5780601f10610bd157610100808354040283529160200191610bfc565b820191906000526020600020905b815481529060010190602001808311610bdf57829003601f168201915b50505050508152602001600282018054610c1590615488565b80601f0160208091040260200160405190810160405280929190818152602001828054610c4190615488565b8015610c8e5780601f10610c6357610100808354040283529160200191610c8e565b820191906000526020600020905b815481529060010190602001808311610c7157829003601f168201915b50505050508152602001600382018054610ca790615488565b80601f0160208091040260200160405190810160405280929190818152602001828054610cd390615488565b8015610d205780601f10610cf557610100808354040283529160200191610d20565b820191906000526020600020905b815481529060010190602001808311610d0357829003601f168201915b5050505050815250509050919050565b610d4b838383604051806020016040528060008152506121ce565b505050565b610d58613161565b610d6182613247565b610d6b8282613252565b5050565b6000610d79613371565b7f360894a13ba1a3210667c828492db98dca3e2076cc3735a920a3ca505d382bbc60001b905090565b6001602052806000526040600020600091509050806000018054610dc590615488565b80601f0160208091040260200160405190810160405280929190818152602001828054610df190615488565b8015610e3e5780601f10610e1357610100808354040283529160200191610e3e565b820191906000526020600020905b815481529060010190602001808311610e2157829003601f168201915b505050505090806001018054610e5390615488565b80601f0160208091040260200160405190810160405280929190818152602001828054610e7f90615488565b8015610ecc5780601f10610ea157610100808354040283529160200191610ecc565b820191906000526020600020905b815481529060010190602001808311610eaf57829003601f168201915b505050505090806002018054610ee190615488565b80601f0160208091040260200160405190810160405280929190818152602001828054610f0d90615488565b8015610f5a5780601f10610f2f57610100808354040283529160200191610f5a565b820191906000526020600020905b815481529060010190602001808311610f3d57829003601f168201915b505050505090806003018054610f6f90615488565b80601f0160208091040260200160405190810160405280929190818152602001828054610f9b90615488565b8015610fe85780601f10610fbd57610100808354040283529160200191610fe8565b820191906000526020600020905b815481529060010190602001808311610fcb57829003601f168201915b5050505050905084565b6000610ffd82612e47565b9050919050565b60008061100f612e1f565b9050600073ffffffffffffffffffffffffffffffffffffffff168373ffffffffffffffffffffffffffffffffffffffff16036110835760006040517f89c62b6400000000000000000000000000000000000000000000000000000000815260040161107a91906147f4565b60405180910390fd5b8060030160008473ffffffffffffffffffffffffffffffffffffffff1673ffffffffffffffffffffffffffffffffffffffff16815260200190815260200160002054915050919050565b6110d56133f8565b6110df600061347f565b565b6060600460008373ffffffffffffffffffffffffffffffffffffffff1673ffffffffffffffffffffffffffffffffffffffff16815260200190815260200160002080548060200260200160405190810160405280929190818152602001828054801561116c57602002820191906000526020600020905b815481526020019060010190808311611158575b50505050509050919050565b6000611182613556565b905060008160000160089054906101000a900460ff1615905060008260000160009054906101000a900467ffffffffffffffff1690506000808267ffffffffffffffff161480156111d05750825b9050600060018367ffffffffffffffff16148015611205575060003073ffffffffffffffffffffffffffffffffffffffff163b145b905081158015611213575080155b1561124a576040517ff92ee8a900000000000000000000000000000000000000000000000000000000815260040160405180910390fd5b60018560000160006101000a81548167ffffffffffffffff021916908367ffffffffffffffff160217905550831561129a5760018560000160086101000a81548160ff0219169083151502179055505b61130e6040518060400160405280600c81526020017f427573696e6573734361726400000000000000000000000000000000000000008152506040518060400160405280600581526020017f424341524400000000000000000000000000000000000000000000000000000081525061357e565b61131733613594565b61131f6135a8565b6113276135b2565b83156113835760008560000160086101000a81548160ff0219169083151502179055507fc7f505b2f371ae2175ee4913f4499e1f2633a7b5936321eed1cdaeb6115181d2600160405161137a9190615549565b60405180910390a15b5050505050565b6000806113956135bc565b90508060000160009054906101000a900473ffffffffffffffffffffffffffffffffffffffff1691505090565b60608060606000600660003373ffffffffffffffffffffffffffffffffffffffff1673ffffffffffffffffffffffffffffffffffffffff16815260200190815260200160002080548060200260200160405190810160405280929190818152602001828054801561145257602002820191906000526020600020905b81548152602001906001019080831161143e575b505050505090506000805b8251811015611500576005600084838151811061147d5761147c615564565b5b6020026020010151815260200190815260200160002060030160009054906101000a900460ff1680156114df575042600560008584815181106114c3576114c2615564565b5b6020026020010151815260200190815260200160002060020154115b156114f35781806114ef906155c2565b9250505b808060010191505061145d565b508067ffffffffffffffff81111561151b5761151a614a13565b5b6040519080825280602002602001820160405280156115495781602001602082028036833780820191505090505b5094508067ffffffffffffffff81111561156657611565614a13565b5b60405190808252806020026020018201604052801561159f57816020015b61158c6145a7565b8152602001906001900390816115845790505b5093508067ffffffffffffffff8111156115bc576115bb614a13565b5b6040519080825280602002602001820160405280156115ea5781602001602082028036833780820191505090505b5092506000805b83518110156119c7576005600085838151811061161157611610615564565b5b6020026020010151815260200190815260200160002060030160009054906101000a900460ff1680156116735750426005600086848151811061165757611656615564565b5b6020026020010151815260200190815260200160002060020154115b156119ba5783818151811061168b5761168a615564565b5b60200260200101518783815181106116a6576116a5615564565b5b602002602001018181525050600160008583815181106116c9576116c8615564565b5b602002602001015181526020019081526020016000206040518060800160405290816000820180546116fa90615488565b80601f016020809104026020016040519081016040528092919081815260200182805461172690615488565b80156117735780601f1061174857610100808354040283529160200191611773565b820191906000526020600020905b81548152906001019060200180831161175657829003601f168201915b5050505050815260200160018201805461178c90615488565b80601f01602080910402602001604051908101604052809291908181526020018280546117b890615488565b80156118055780601f106117da57610100808354040283529160200191611805565b820191906000526020600020905b8154815290600101906020018083116117e857829003601f168201915b5050505050815260200160028201805461181e90615488565b80601f016020809104026020016040519081016040528092919081815260200182805461184a90615488565b80156118975780601f1061186c57610100808354040283529160200191611897565b820191906000526020600020905b81548152906001019060200180831161187a57829003601f168201915b505050505081526020016003820180546118b090615488565b80601f01602080910402602001604051908101604052809291908181526020018280546118dc90615488565b80156119295780601f106118fe57610100808354040283529160200191611929565b820191906000526020600020905b81548152906001019060200180831161190c57829003601f168201915b50505050508152505086838151811061194557611944615564565b5b6020026020010181905250426005600086848151811061196857611967615564565b5b602002602001015181526020019081526020016000206002015461198c919061560a565b85838151811061199f5761199e615564565b5b60200260200101818152505081806119b6906155c2565b9250505b80806001019150506115f1565b50505050909192565b3373ffffffffffffffffffffffffffffffffffffffff166119f084610ff2565b73ffffffffffffffffffffffffffffffffffffffff1614611a46576040517f08c379a0000000000000000000000000000000000000000000000000000000008152600401611a3d9061568a565b60405180910390fd5b6005600084815260200190815260200160002060030160009054906101000a900460ff1615611aaa576040517f08c379a0000000000000000000000000000000000000000000000000000000008152600401611aa1906156f6565b60405180910390fd5b60008111611aed576040517f08c379a0000000000000000000000000000000000000000000000000000000008152600401611ae490615762565b60405180910390fd5b60405180608001604052808373ffffffffffffffffffffffffffffffffffffffff1681526020014281526020018242611b269190615782565b8152602001600115158152506005600085815260200190815260200160002060008201518160000160006101000a81548173ffffffffffffffffffffffffffffffffffffffff021916908373ffffffffffffffffffffffffffffffffffffffff160217905550602082015181600101556040820151816002015560608201518160030160006101000a81548160ff021916908315150217905550905050600660008373ffffffffffffffffffffffffffffffffffffffff1673ffffffffffffffffffffffffffffffffffffffff1681526020019081526020016000208390806001815401808255809150506001900390600052602060002001600090919091909150558173ffffffffffffffffffffffffffffffffffffffff163373ffffffffffffffffffffffffffffffffffffffff167f949c005e87942354438f522ef9214ae727f5f31c528b9dccc6d512dbfe9067a28584604051611c889291906157b6565b60405180910390a3505050565b60606000611ca1612e1f565b9050806001018054611cb290615488565b80601f0160208091040260200160405190810160405280929190818152602001828054611cde90615488565b8015611d2b5780601f10611d0057610100808354040283529160200191611d2b565b820191906000526020600020905b815481529060010190602001808311611d0e57829003601f168201915b505050505091505090565b3373ffffffffffffffffffffffffffffffffffffffff16611d5682610ff2565b73ffffffffffffffffffffffffffffffffffffffff161480611dd957503373ffffffffffffffffffffffffffffffffffffffff166005600083815260200190815260200160002060000160009054906101000a900473ffffffffffffffffffffffffffffffffffffffff1673ffffffffffffffffffffffffffffffffffffffff16145b611e18576040517f08c379a0000000000000000000000000000000000000000000000000000000008152600401611e0f90615851565b60405180910390fd5b6005600082815260200190815260200160002060030160009054906101000a900460ff16611e7b576040517f08c379a0000000000000000000000000000000000000000000000000000000008152600401611e72906158bd565b60405180910390fd5b60006005600083815260200190815260200160002060030160006101000a81548160ff0219169083151502179055506005600082815260200190815260200160002060000160009054906101000a900473ffffffffffffffffffffffffffffffffffffffff1673ffffffffffffffffffffffffffffffffffffffff16611f0082610ff2565b73ffffffffffffffffffffffffffffffffffffffff167f735a2f4708e061da5752e832eb27cc68468060e645064074b6595fd92243540883604051611f4591906148b7565b60405180910390a350565b611f62611f5b612f1a565b83836135e4565b5050565b6040518060400160405280600581526020017f352e302e3000000000000000000000000000000000000000000000000000000081525081565b60056020528060005260406000206000915090508060000160009054906101000a900473ffffffffffffffffffffffffffffffffffffffff16908060010154908060020154908060030160009054906101000a900460ff16905084565b6000600260003373ffffffffffffffffffffffffffffffffffffffff1673ffffffffffffffffffffffffffffffffffffffff168152602001908152602001600020541461207e576040517f08c379a000000000000000000000000000000000000000000000000000000000815260040161207590615929565b60405180910390fd5b600080815480929190612090906155c2565b91905055506000805490506040518060800160405280878152602001868152602001858152602001848152506001600083815260200190815260200160002060008201518160000190816120e49190615aeb565b5060208201518160010190816120fa9190615aeb565b5060408201518160020190816121109190615aeb565b5060608201518160030190816121269190615aeb565b5090505080600260003373ffffffffffffffffffffffffffffffffffffffff1673ffffffffffffffffffffffffffffffffffffffff168152602001908152602001600020819055506121783382613762565b612182818361385b565b803373ffffffffffffffffffffffffffffffffffffffff167f8793df92035bc0aa685973f692a332924aae0a3a8a46c48cea13e205c1897f0760405160405180910390a3505050505050565b6121d98484846109b9565b6121ed6121e4612f1a565b858585856138c6565b50505050565b60606000825167ffffffffffffffff81111561221257612211614a13565b5b60405190808252806020026020018201604052801561224b57816020015b6122386145a7565b8152602001906001900390816122305790505b50905060005b8351811015612505576001600085838151811061227157612270615564565b5b602002602001015181526020019081526020016000206040518060800160405290816000820180546122a290615488565b80601f01602080910402602001604051908101604052809291908181526020018280546122ce90615488565b801561231b5780601f106122f05761010080835404028352916020019161231b565b820191906000526020600020905b8154815290600101906020018083116122fe57829003601f168201915b5050505050815260200160018201805461233490615488565b80601f016020809104026020016040519081016040528092919081815260200182805461236090615488565b80156123ad5780601f10612382576101008083540402835291602001916123ad565b820191906000526020600020905b81548152906001019060200180831161239057829003601f168201915b505050505081526020016002820180546123c690615488565b80601f01602080910402602001604051908101604052809291908181526020018280546123f290615488565b801561243f5780601f106124145761010080835404028352916020019161243f565b820191906000526020600020905b81548152906001019060200180831161242257829003601f168201915b5050505050815260200160038201805461245890615488565b80601f016020809104026020016040519081016040528092919081815260200182805461248490615488565b80156124d15780601f106124a6576101008083540402835291602001916124d1565b820191906000526020600020905b8154815290600101906020018083116124b457829003601f168201915b5050505050815250508282815181106124ed576124ec615564565b5b60200260200101819052508080600101915050612251565b5080915050919050565b60036020528160005260406000206020528060005260406000206000915091509054906101000a900460ff1681565b6060600061254a613a77565b905061255583612e47565b506000816000016000858152602001908152602001600020805461257890615488565b80601f01602080910402602001604051908101604052809291908181526020018280546125a490615488565b80156125f15780601f106125c6576101008083540402835291602001916125f1565b820191906000526020600020905b8154815290600101906020018083116125d457829003601f168201915b505050505090506000612602613a9f565b905060008151036126185781935050505061265d565b60008251111561264e578082604051602001612635929190615bf9565b604051602081830303815290604052935050505061265d565b61265785613ab6565b93505050505b919050565b3373ffffffffffffffffffffffffffffffffffffffff1661268286610ff2565b73ffffffffffffffffffffffffffffffffffffffff16146126d8576040517f08c379a00000000000000000000000000000000000000000000000000000000081526004016126cf9061568a565b60405180910390fd5b836001600087815260200190815260200160002060010190816126fb9190615aeb565b508260016000878152602001908152602001600020600201908161271f9190615aeb565b50816001600087815260200190815260200160002060030190816127439190615aeb565b5061274e858261385b565b843373ffffffffffffffffffffffffffffffffffffffff167feded767027901935a7d774cbd93ad76c46cd00f5009ec95e7ec02f7c904102aa60405160405180910390a35050505050565b803373ffffffffffffffffffffffffffffffffffffffff166127ba82610ff2565b73ffffffffffffffffffffffffffffffffffffffff16148061288b57506005600082815260200190815260200160002060030160009054906101000a900460ff16801561286857503373ffffffffffffffffffffffffffffffffffffffff166005600083815260200190815260200160002060000160009054906101000a900473ffffffffffffffffffffffffffffffffffffffff1673ffffffffffffffffffffffffffffffffffffffff16145b801561288a575060056000828152602001908152602001600020600201544211155b5b6128ca576040517f08c379a00000000000000000000000000000000000000000000000000000000081526004016128c190615c69565b60405180910390fd5b3373ffffffffffffffffffffffffffffffffffffffff166128ea83610ff2565b73ffffffffffffffffffffffffffffffffffffffff16148061299957506005600083815260200190815260200160002060030160009054906101000a900460ff16801561299857503373ffffffffffffffffffffffffffffffffffffffff166005600084815260200190815260200160002060000160009054906101000a900473ffffffffffffffffffffffffffffffffffffffff1673ffffffffffffffffffffffffffffffffffffffff16145b5b6129d8576040517f08c379a00000000000000000000000000000000000000000000000000000000081526004016129cf90615cd5565b60405180910390fd5b6001600360008573ffffffffffffffffffffffffffffffffffffffff1673ffffffffffffffffffffffffffffffffffffffff168152602001908152602001600020600084815260200190815260200160002060006101000a81548160ff021916908315150217905550600460008473ffffffffffffffffffffffffffffffffffffffff1673ffffffffffffffffffffffffffffffffffffffff1681526020019081526020016000208290806001815401808255809150506001900390600052602060002001600090919091909150558273ffffffffffffffffffffffffffffffffffffffff163373ffffffffffffffffffffffffffffffffffffffff167fa1d529b18967c562a493ddab9f1fcc2883782506ddfeab6d46adf01ef6bf05f784604051612b0491906148b7565b60405180910390a3505050565b600080600080600560008681526020019081526020016000206040518060800160405290816000820160009054906101000a900473ffffffffffffffffffffffffffffffffffffffff1673ffffffffffffffffffffffffffffffffffffffff1673ffffffffffffffffffffffffffffffffffffffff16815260200160018201548152602001600282015481526020016003820160009054906101000a900460ff16151515158152505090508060600151612bd657600080600093509350935050612c0e565b600042826040015111612bea576000612bfb565b428260400151612bfa919061560a565b5b9050600182600001518294509450945050505b9193909250565b600080612c20612e1f565b90508060050160008573ffffffffffffffffffffffffffffffffffffffff1673ffffffffffffffffffffffffffffffffffffffff16815260200190815260200160002060008473ffffffffffffffffffffffffffffffffffffffff1673ffffffffffffffffffffffffffffffffffffffff16815260200190815260200160002060009054906101000a900460ff1691505092915050565b612cbf6133f8565b600073ffffffffffffffffffffffffffffffffffffffff168173ffffffffffffffffffffffffffffffffffffffff1603612d315760006040517f1e4fbdf7000000000000000000000000000000000000000000000000000000008152600401612d2891906147f4565b60405180910390fd5b612d3a8161347f565b50565b60007f80ac58cd000000000000000000000000000000000000000000000000000000007bffffffffffffffffffffffffffffffffffffffffffffffffffffffff1916827bffffffffffffffffffffffffffffffffffffffffffffffffffffffff19161480612e0857507f5b5e139f000000000000000000000000000000000000000000000000000000007bffffffffffffffffffffffffffffffffffffffffffffffffffffffff1916827bffffffffffffffffffffffffffffffffffffffffffffffffffffffff1916145b80612e185750612e1782613b1f565b5b9050919050565b60007f80bb2b638cc20bc4d0a60d66940f3ab4a00c1d7b313497ca82fb0b4ab0079300905090565b600080612e5383613b89565b9050600073ffffffffffffffffffffffffffffffffffffffff168173ffffffffffffffffffffffffffffffffffffffff1603612ec657826040517f7e273289000000000000000000000000000000000000000000000000000000008152600401612ebd91906148b7565b60405180910390fd5b80915050919050565b600080612eda612e1f565b905080600401600084815260200190815260200160002060009054906101000a900473ffffffffffffffffffffffffffffffffffffffff16915050919050565b600033905090565b612f2f8383836001613bd4565b505050565b600080612f3f612e1f565b90506000612f4c85613b89565b9050600073ffffffffffffffffffffffffffffffffffffffff168473ffffffffffffffffffffffffffffffffffffffff1614612f8e57612f8d818587613da8565b5b600073ffffffffffffffffffffffffffffffffffffffff168173ffffffffffffffffffffffffffffffffffffffff161461302157612fd0600086600080613bd4565b60018260030160008373ffffffffffffffffffffffffffffffffffffffff1673ffffffffffffffffffffffffffffffffffffffff168152602001908152602001600020600082825403925050819055505b600073ffffffffffffffffffffffffffffffffffffffff168673ffffffffffffffffffffffffffffffffffffffff16146130a65760018260030160008873ffffffffffffffffffffffffffffffffffffffff1673ffffffffffffffffffffffffffffffffffffffff168152602001908152602001600020600082825401925050819055505b8582600201600087815260200190815260200160002060006101000a81548173ffffffffffffffffffffffffffffffffffffffff021916908373ffffffffffffffffffffffffffffffffffffffff160217905550848673ffffffffffffffffffffffffffffffffffffffff168273ffffffffffffffffffffffffffffffffffffffff167fddf252ad1be2c89b69c2b068fc378daa952ba7f163c4a11628f55a4df523b3ef60405160405180910390a480925050509392505050565b7f000000000000000000000000000000000000000000000000000000000000000073ffffffffffffffffffffffffffffffffffffffff163073ffffffffffffffffffffffffffffffffffffffff16148061320e57507f000000000000000000000000000000000000000000000000000000000000000073ffffffffffffffffffffffffffffffffffffffff166131f5613e6c565b73ffffffffffffffffffffffffffffffffffffffff1614155b15613245576040517fe07c8dba00000000000000000000000000000000000000000000000000000000815260040160405180910390fd5b565b61324f6133f8565b50565b8173ffffffffffffffffffffffffffffffffffffffff166352d1902d6040518163ffffffff1660e01b8152600401602060405180830381865afa9250505080156132ba57506040513d601f19601f820116820180604052508101906132b79190615d21565b60015b6132fb57816040517f4c9c8ce30000000000000000000000000000000000000000000000000000000081526004016132f291906147f4565b60405180910390fd5b7f360894a13ba1a3210667c828492db98dca3e2076cc3735a920a3ca505d382bbc60001b811461336257806040517faa1d49a40000000000000000000000000000000000000000000000000000000081526004016133599190614bb3565b60405180910390fd5b61336c8383613ec3565b505050565b7f000000000000000000000000000000000000000000000000000000000000000073ffffffffffffffffffffffffffffffffffffffff163073ffffffffffffffffffffffffffffffffffffffff16146133f6576040517fe07c8dba00000000000000000000000000000000000000000000000000000000815260040160405180910390fd5b565b613400612f1a565b73ffffffffffffffffffffffffffffffffffffffff1661341e61138a565b73ffffffffffffffffffffffffffffffffffffffff161461347d57613441612f1a565b6040517f118cdaa700000000000000000000000000000000000000000000000000000000815260040161347491906147f4565b60405180910390fd5b565b60006134896135bc565b905060008160000160009054906101000a900473ffffffffffffffffffffffffffffffffffffffff169050828260000160006101000a81548173ffffffffffffffffffffffffffffffffffffffff021916908373ffffffffffffffffffffffffffffffffffffffff1602179055508273ffffffffffffffffffffffffffffffffffffffff168173ffffffffffffffffffffffffffffffffffffffff167f8be0079c531659141344cd1fd0a4f28419497f9722a3daafe3b4186f6b6457e060405160405180910390a3505050565b60007ff0c57e16840df040f15088dc2f81fe391c3923bec73e23a9662efc9c229c6a00905090565b613586613f36565b6135908282613f76565b5050565b61359c613f36565b6135a581613fb3565b50565b6135b0613f36565b565b6135ba613f36565b565b60007f9016d09d72d40fdae2fd8ceac6b6234c7706214fd39c1cd1e609a0528c199300905090565b60006135ee612e1f565b9050600073ffffffffffffffffffffffffffffffffffffffff168373ffffffffffffffffffffffffffffffffffffffff160361366157826040517f5b08ba1800000000000000000000000000000000000000000000000000000000815260040161365891906147f4565b60405180910390fd5b818160050160008673ffffffffffffffffffffffffffffffffffffffff1673ffffffffffffffffffffffffffffffffffffffff16815260200190815260200160002060008573ffffffffffffffffffffffffffffffffffffffff1673ffffffffffffffffffffffffffffffffffffffff16815260200190815260200160002060006101000a81548160ff0219169083151502179055508273ffffffffffffffffffffffffffffffffffffffff168473ffffffffffffffffffffffffffffffffffffffff167f17307eab39ab6107e8899845ad3d59bd9653f200f220920489ca2b5937696c31846040516137549190614683565b60405180910390a350505050565b600073ffffffffffffffffffffffffffffffffffffffff168273ffffffffffffffffffffffffffffffffffffffff16036137d45760006040517f64a0ae920000000000000000000000000000000000000000000000000000000081526004016137cb91906147f4565b60405180910390fd5b60006137e283836000612f34565b9050600073ffffffffffffffffffffffffffffffffffffffff168173ffffffffffffffffffffffffffffffffffffffff16146138565760006040517f73c6ac6e00000000000000000000000000000000000000000000000000000000815260040161384d91906147f4565b60405180910390fd5b505050565b6000613865613a77565b90508181600001600085815260200190815260200160002090816138899190615aeb565b507ff8e1a15aba9398e019f0b49df1a4fde98ee17ae345cb5f6b5e2c27f5033e8ce7836040516138b991906148b7565b60405180910390a1505050565b60008373ffffffffffffffffffffffffffffffffffffffff163b1115613a70578273ffffffffffffffffffffffffffffffffffffffff1663150b7a02868685856040518563ffffffff1660e01b81526004016139259493929190615da3565b6020604051808303816000875af192505050801561396157506040513d601f19601f8201168201806040525081019061395e9190615e04565b60015b6139e5573d8060008114613991576040519150601f19603f3d011682016040523d82523d6000602084013e613996565b606091505b5060008151036139dd57836040517f64a0ae920000000000000000000000000000000000000000000000000000000081526004016139d491906147f4565b60405180910390fd5b805181602001fd5b63150b7a0260e01b7bffffffffffffffffffffffffffffffffffffffffffffffffffffffff1916817bffffffffffffffffffffffffffffffffffffffffffffffffffffffff191614613a6e57836040517f64a0ae92000000000000000000000000000000000000000000000000000000008152600401613a6591906147f4565b60405180910390fd5b505b5050505050565b60007f0542a41881ee128a365a727b282c86fa859579490b9bb45aab8503648c8e7900905090565b606060405180602001604052806000815250905090565b6060613ac182612e47565b506000613acc613a9f565b90506000815111613aec5760405180602001604052806000815250613b17565b80613af684614039565b604051602001613b07929190615bf9565b6040516020818303038152906040525b915050919050565b60007f01ffc9a7000000000000000000000000000000000000000000000000000000007bffffffffffffffffffffffffffffffffffffffffffffffffffffffff1916827bffffffffffffffffffffffffffffffffffffffffffffffffffffffff1916149050919050565b600080613b94612e1f565b905080600201600084815260200190815260200160002060009054906101000a900473ffffffffffffffffffffffffffffffffffffffff16915050919050565b6000613bde612e1f565b90508180613c195750600073ffffffffffffffffffffffffffffffffffffffff168373ffffffffffffffffffffffffffffffffffffffff1614155b15613d4d576000613c2985612e47565b9050600073ffffffffffffffffffffffffffffffffffffffff168473ffffffffffffffffffffffffffffffffffffffff1614158015613c9457508373ffffffffffffffffffffffffffffffffffffffff168173ffffffffffffffffffffffffffffffffffffffff1614155b8015613ca75750613ca58185612c15565b155b15613ce957836040517fa9fbf51f000000000000000000000000000000000000000000000000000000008152600401613ce091906147f4565b60405180910390fd5b8215613d4b57848673ffffffffffffffffffffffffffffffffffffffff168273ffffffffffffffffffffffffffffffffffffffff167f8c5be1e5ebec7d5bd14f71427d1e84f3dd0314c0f7b2291e5b200ac8c7c3b92560405160405180910390a45b505b8481600401600086815260200190815260200160002060006101000a81548173ffffffffffffffffffffffffffffffffffffffff021916908373ffffffffffffffffffffffffffffffffffffffff1602179055505050505050565b613db3838383614107565b613e6757600073ffffffffffffffffffffffffffffffffffffffff168373ffffffffffffffffffffffffffffffffffffffff1603613e2857806040517f7e273289000000000000000000000000000000000000000000000000000000008152600401613e1f91906148b7565b60405180910390fd5b81816040517f177e802f000000000000000000000000000000000000000000000000000000008152600401613e5e929190615e31565b60405180910390fd5b505050565b6000613e9a7f360894a13ba1a3210667c828492db98dca3e2076cc3735a920a3ca505d382bbc60001b6141c8565b60000160009054906101000a900473ffffffffffffffffffffffffffffffffffffffff16905090565b613ecc826141d2565b8173ffffffffffffffffffffffffffffffffffffffff167fbc7cd75a20ee27fd9adebab32041f755214dbc6bffa90cc0225b39da2e5c2d3b60405160405180910390a2600081511115613f2957613f23828261429f565b50613f32565b613f31614323565b5b5050565b613f3e614360565b613f74576040517fd7e6bcf800000000000000000000000000000000000000000000000000000000815260040160405180910390fd5b565b613f7e613f36565b6000613f88612e1f565b905082816000019081613f9b9190615aeb565b5081816001019081613fad9190615aeb565b50505050565b613fbb613f36565b600073ffffffffffffffffffffffffffffffffffffffff168173ffffffffffffffffffffffffffffffffffffffff160361402d5760006040517f1e4fbdf700000000000000000000000000000000000000000000000000000000815260040161402491906147f4565b60405180910390fd5b6140368161347f565b50565b60606000600161404884614380565b01905060008167ffffffffffffffff81111561406757614066614a13565b5b6040519080825280601f01601f1916602001820160405280156140995781602001600182028036833780820191505090505b509050600082602001820190505b6001156140fc578080600190039150507f3031323334353637383961626364656600000000000000000000000000000000600a86061a8153600a85816140f0576140ef615e5a565b5b049450600085036140a7575b819350505050919050565b60008073ffffffffffffffffffffffffffffffffffffffff168373ffffffffffffffffffffffffffffffffffffffff16141580156141bf57508273ffffffffffffffffffffffffffffffffffffffff168473ffffffffffffffffffffffffffffffffffffffff161480614180575061417f8484612c15565b5b806141be57508273ffffffffffffffffffffffffffffffffffffffff166141a683612ecf565b73ffffffffffffffffffffffffffffffffffffffff16145b5b90509392505050565b6000819050919050565b60008173ffffffffffffffffffffffffffffffffffffffff163b0361422e57806040517f4c9c8ce300000000000000000000000000000000000000000000000000000000815260040161422591906147f4565b60405180910390fd5b8061425b7f360894a13ba1a3210667c828492db98dca3e2076cc3735a920a3ca505d382bbc60001b6141c8565b60000160006101000a81548173ffffffffffffffffffffffffffffffffffffffff021916908373ffffffffffffffffffffffffffffffffffffffff16021790555050565b60606000808473ffffffffffffffffffffffffffffffffffffffff16846040516142c99190615ec5565b600060405180830381855af49150503d8060008114614304576040519150601f19603f3d011682016040523d82523d6000602084013e614309565b606091505b50915091506143198583836144d3565b9250505092915050565b600034111561435e576040517fb398979f00000000000000000000000000000000000000000000000000000000815260040160405180910390fd5b565b600061436a613556565b60000160089054906101000a900460ff16905090565b600080600090507a184f03e93ff9f4daa797ed6e38ed64bf6a1f01000000000000000083106143de577a184f03e93ff9f4daa797ed6e38ed64bf6a1f01000000000000000083816143d4576143d3615e5a565b5b0492506040810190505b6d04ee2d6d415b85acef8100000000831061441b576d04ee2d6d415b85acef8100000000838161441157614410615e5a565b5b0492506020810190505b662386f26fc10000831061444a57662386f26fc1000083816144405761443f615e5a565b5b0492506010810190505b6305f5e1008310614473576305f5e100838161446957614468615e5a565b5b0492506008810190505b612710831061449857612710838161448e5761448d615e5a565b5b0492506004810190505b606483106144bb57606483816144b1576144b0615e5a565b5b0492506002810190505b600a83106144ca576001810190505b80915050919050565b6060826144e8576144e382614562565b61455a565b60008251148015614510575060008473ffffffffffffffffffffffffffffffffffffffff163b145b1561455257836040517f9996b31500000000000000000000000000000000000000000000000000000000815260040161454991906147f4565b60405180910390fd5b81905061455b565b5b9392505050565b6000815111156145755780518082602001fd5b6040517fd6bda27500000000000000000000000000000000000000000000000000000000815260040160405180910390fd5b6040518060800160405280606081526020016060815260200160608152602001606081525090565b6000604051905090565b600080fd5b600080fd5b60007fffffffff0000000000000000000000000000000000000000000000000000000082169050919050565b614618816145e3565b811461462357600080fd5b50565b6000813590506146358161460f565b92915050565b600060208284031215614651576146506145d9565b5b600061465f84828501614626565b91505092915050565b60008115159050919050565b61467d81614668565b82525050565b60006020820190506146986000830184614674565b92915050565b600081519050919050565b600082825260208201905092915050565b60005b838110156146d85780820151818401526020810190506146bd565b60008484015250505050565b6000601f19601f8301169050919050565b60006147008261469e565b61470a81856146a9565b935061471a8185602086016146ba565b614723816146e4565b840191505092915050565b6000602082019050818103600083015261474881846146f5565b905092915050565b6000819050919050565b61476381614750565b811461476e57600080fd5b50565b6000813590506147808161475a565b92915050565b60006020828403121561479c5761479b6145d9565b5b60006147aa84828501614771565b91505092915050565b600073ffffffffffffffffffffffffffffffffffffffff82169050919050565b60006147de826147b3565b9050919050565b6147ee816147d3565b82525050565b600060208201905061480960008301846147e5565b92915050565b614818816147d3565b811461482357600080fd5b50565b6000813590506148358161480f565b92915050565b60008060408385031215614852576148516145d9565b5b600061486085828601614826565b925050602061487185828601614771565b9150509250929050565b600060208284031215614891576148906145d9565b5b600061489f84828501614826565b91505092915050565b6148b181614750565b82525050565b60006020820190506148cc60008301846148a8565b92915050565b6000806000606084860312156148eb576148ea6145d9565b5b60006148f986828701614826565b935050602061490a86828701614826565b925050604061491b86828701614771565b9150509250925092565b600082825260208201905092915050565b60006149418261469e565b61494b8185614925565b935061495b8185602086016146ba565b614964816146e4565b840191505092915050565b6000608083016000830151848203600086015261498c8282614936565b915050602083015184820360208601526149a68282614936565b915050604083015184820360408601526149c08282614936565b915050606083015184820360608601526149da8282614936565b9150508091505092915050565b60006020820190508181036000830152614a01818461496f565b905092915050565b600080fd5b600080fd5b7f4e487b7100000000000000000000000000000000000000000000000000000000600052604160045260246000fd5b614a4b826146e4565b810181811067ffffffffffffffff82111715614a6a57614a69614a13565b5b80604052505050565b6000614a7d6145cf565b9050614a898282614a42565b919050565b600067ffffffffffffffff821115614aa957614aa8614a13565b5b614ab2826146e4565b9050602081019050919050565b82818337600083830152505050565b6000614ae1614adc84614a8e565b614a73565b905082815260208101848484011115614afd57614afc614a0e565b5b614b08848285614abf565b509392505050565b600082601f830112614b2557614b24614a09565b5b8135614b35848260208601614ace565b91505092915050565b60008060408385031215614b5557614b546145d9565b5b6000614b6385828601614826565b925050602083013567ffffffffffffffff811115614b8457614b836145de565b5b614b9085828601614b10565b9150509250929050565b6000819050919050565b614bad81614b9a565b82525050565b6000602082019050614bc86000830184614ba4565b92915050565b60006080820190508181036000830152614be881876146f5565b90508181036020830152614bfc81866146f5565b90508181036040830152614c1081856146f5565b90508181036060830152614c2481846146f5565b905095945050505050565b600081519050919050565b600082825260208201905092915050565b6000819050602082019050919050565b614c6481614750565b82525050565b6000614c768383614c5b565b60208301905092915050565b6000602082019050919050565b6000614c9a82614c2f565b614ca48185614c3a565b9350614caf83614c4b565b8060005b83811015614ce0578151614cc78882614c6a565b9750614cd283614c82565b925050600181019050614cb3565b5085935050505092915050565b60006020820190508181036000830152614d078184614c8f565b905092915050565b600081519050919050565b600082825260208201905092915050565b6000819050602082019050919050565b60006080830160008301518482036000860152614d588282614936565b91505060208301518482036020860152614d728282614936565b91505060408301518482036040860152614d8c8282614936565b91505060608301518482036060860152614da68282614936565b9150508091505092915050565b6000614dbf8383614d3b565b905092915050565b6000602082019050919050565b6000614ddf82614d0f565b614de98185614d1a565b935083602082028501614dfb85614d2b565b8060005b85811015614e375784840389528151614e188582614db3565b9450614e2383614dc7565b925060208a01995050600181019050614dff565b50829750879550505050505092915050565b60006060820190508181036000830152614e638186614c8f565b90508181036020830152614e778185614dd4565b90508181036040830152614e8b8184614c8f565b9050949350505050565b600080600060608486031215614eae57614ead6145d9565b5b6000614ebc86828701614771565b9350506020614ecd86828701614826565b9250506040614ede86828701614771565b9150509250925092565b614ef181614668565b8114614efc57600080fd5b50565b600081359050614f0e81614ee8565b92915050565b60008060408385031215614f2b57614f2a6145d9565b5b6000614f3985828601614826565b9250506020614f4a85828601614eff565b9150509250929050565b6000608082019050614f6960008301876147e5565b614f7660208301866148a8565b614f8360408301856148a8565b614f906060830184614674565b95945050505050565b600067ffffffffffffffff821115614fb457614fb3614a13565b5b614fbd826146e4565b9050602081019050919050565b6000614fdd614fd884614f99565b614a73565b905082815260208101848484011115614ff957614ff8614a0e565b5b615004848285614abf565b509392505050565b600082601f83011261502157615020614a09565b5b8135615031848260208601614fca565b91505092915050565b600080600080600060a08688031215615056576150556145d9565b5b600086013567ffffffffffffffff811115615074576150736145de565b5b6150808882890161500c565b955050602086013567ffffffffffffffff8111156150a1576150a06145de565b5b6150ad8882890161500c565b945050604086013567ffffffffffffffff8111156150ce576150cd6145de565b5b6150da8882890161500c565b935050606086013567ffffffffffffffff8111156150fb576150fa6145de565b5b6151078882890161500c565b925050608086013567ffffffffffffffff811115615128576151276145de565b5b6151348882890161500c565b9150509295509295909350565b6000806000806080858703121561515b5761515a6145d9565b5b600061516987828801614826565b945050602061517a87828801614826565b935050604061518b87828801614771565b925050606085013567ffffffffffffffff8111156151ac576151ab6145de565b5b6151b887828801614b10565b91505092959194509250565b600067ffffffffffffffff8211156151df576151de614a13565b5b602082029050602081019050919050565b600080fd5b6000615208615203846151c4565b614a73565b9050808382526020820190506020840283018581111561522b5761522a6151f0565b5b835b8181101561525457806152408882614771565b84526020840193505060208101905061522d565b5050509392505050565b600082601f83011261527357615272614a09565b5b81356152838482602086016151f5565b91505092915050565b6000602082840312156152a2576152a16145d9565b5b600082013567ffffffffffffffff8111156152c0576152bf6145de565b5b6152cc8482850161525e565b91505092915050565b600060208201905081810360008301526152ef8184614dd4565b905092915050565b600080600080600060a08688031215615313576153126145d9565b5b600061532188828901614771565b955050602086013567ffffffffffffffff811115615342576153416145de565b5b61534e8882890161500c565b945050604086013567ffffffffffffffff81111561536f5761536e6145de565b5b61537b8882890161500c565b935050606086013567ffffffffffffffff81111561539c5761539b6145de565b5b6153a88882890161500c565b925050608086013567ffffffffffffffff8111156153c9576153c86145de565b5b6153d58882890161500c565b9150509295509295909350565b60006060820190506153f76000830186614674565b61540460208301856147e5565b61541160408301846148a8565b949350505050565b600080604083850312156154305761542f6145d9565b5b600061543e85828601614826565b925050602061544f85828601614826565b9150509250929050565b7f4e487b7100000000000000000000000000000000000000000000000000000000600052602260045260246000fd5b600060028204905060018216806154a057607f821691505b6020821081036154b3576154b2615459565b5b50919050565b60006060820190506154ce60008301866147e5565b6154db60208301856148a8565b6154e860408301846147e5565b949350505050565b6000819050919050565b600067ffffffffffffffff82169050919050565b6000819050919050565b600061553361552e615529846154f0565b61550e565b6154fa565b9050919050565b61554381615518565b82525050565b600060208201905061555e600083018461553a565b92915050565b7f4e487b7100000000000000000000000000000000000000000000000000000000600052603260045260246000fd5b7f4e487b7100000000000000000000000000000000000000000000000000000000600052601160045260246000fd5b60006155cd82614750565b91507fffffffffffffffffffffffffffffffffffffffffffffffffffffffffffffffff82036155ff576155fe615593565b5b600182019050919050565b600061561582614750565b915061562083614750565b925082820390508181111561563857615637615593565b5b92915050565b7f4e6f7420796f757220627573696e657373206361726400000000000000000000600082015250565b60006156746016836146a9565b915061567f8261563e565b602082019050919050565b600060208201905081810360008301526156a381615667565b9050919050565b7f4361726420697320616c72656164792072656e74656400000000000000000000600082015250565b60006156e06016836146a9565b91506156eb826156aa565b602082019050919050565b6000602082019050818103600083015261570f816156d3565b9050919050565b7f4475726174696f6e206d7573742062652067726561746572207468616e203000600082015250565b600061574c601f836146a9565b915061575782615716565b602082019050919050565b6000602082019050818103600083015261577b8161573f565b9050919050565b600061578d82614750565b915061579883614750565b92508282019050808211156157b0576157af615593565b5b92915050565b60006040820190506157cb60008301856148a8565b6157d860208301846148a8565b9392505050565b7f4f6e6c79206f776e6572206f722072656e7465722063616e20656e642072656e60008201527f74616c0000000000000000000000000000000000000000000000000000000000602082015250565b600061583b6023836146a9565b9150615846826157df565b604082019050919050565b6000602082019050818103600083015261586a8161582e565b9050919050565b7f4e6f206163746976652072656e74616c00000000000000000000000000000000600082015250565b60006158a76010836146a9565b91506158b282615871565b602082019050919050565b600060208201905081810360008301526158d68161589a565b9050919050565b7f416c7265616479206f776e73206120627573696e657373206361726400000000600082015250565b6000615913601c836146a9565b915061591e826158dd565b602082019050919050565b6000602082019050818103600083015261594281615906565b9050919050565b60008190508160005260206000209050919050565b60006020601f8301049050919050565b600082821b905092915050565b6000600883026159ab7fffffffffffffffffffffffffffffffffffffffffffffffffffffffffffffffff8261596e565b6159b5868361596e565b95508019841693508086168417925050509392505050565b60006159e86159e36159de84614750565b61550e565b614750565b9050919050565b6000819050919050565b615a02836159cd565b615a16615a0e826159ef565b84845461597b565b825550505050565b600090565b615a2b615a1e565b615a368184846159f9565b505050565b5b81811015615a5a57615a4f600082615a23565b600181019050615a3c565b5050565b601f821115615a9f57615a7081615949565b615a798461595e565b81016020851015615a88578190505b615a9c615a948561595e565b830182615a3b565b50505b505050565b600082821c905092915050565b6000615ac260001984600802615aa4565b1980831691505092915050565b6000615adb8383615ab1565b9150826002028217905092915050565b615af48261469e565b67ffffffffffffffff811115615b0d57615b0c614a13565b5b615b178254615488565b615b22828285615a5e565b600060209050601f831160018114615b555760008415615b43578287015190505b615b4d8582615acf565b865550615bb5565b601f198416615b6386615949565b60005b82811015615b8b57848901518255600182019150602085019450602081019050615b66565b86831015615ba85784890151615ba4601f891682615ab1565b8355505b6001600288020188555050505b505050505050565b600081905092915050565b6000615bd38261469e565b615bdd8185615bbd565b9350615bed8185602086016146ba565b80840191505092915050565b6000615c058285615bc8565b9150615c118284615bc8565b91508190509392505050565b7f4e6f7420617574686f72697a6564000000000000000000000000000000000000600082015250565b6000615c53600e836146a9565b9150615c5e82615c1d565b602082019050919050565b60006020820190508181036000830152615c8281615c46565b9050919050565b7f4e6f7420617574686f72697a656420746f2073656e6420746869732063617264600082015250565b6000615cbf6020836146a9565b9150615cca82615c89565b602082019050919050565b60006020820190508181036000830152615cee81615cb2565b9050919050565b615cfe81614b9a565b8114615d0957600080fd5b50565b600081519050615d1b81615cf5565b92915050565b600060208284031215615d3757615d366145d9565b5b6000615d4584828501615d0c565b91505092915050565b600081519050919050565b600082825260208201905092915050565b6000615d7582615d4e565b615d7f8185615d59565b9350615d8f8185602086016146ba565b615d98816146e4565b840191505092915050565b6000608082019050615db860008301876147e5565b615dc560208301866147e5565b615dd260408301856148a8565b8181036060830152615de48184615d6a565b905095945050505050565b600081519050615dfe8161460f565b92915050565b600060208284031215615e1a57615e196145d9565b5b6000615e2884828501615def565b91505092915050565b6000604082019050615e4660008301856147e5565b615e5360208301846148a8565b9392505050565b7f4e487b7100000000000000000000000000000000000000000000000000000000600052601260045260246000fd5b600081905092915050565b6000615e9f82615d4e565b615ea98185615e89565b9350615eb98185602086016146ba565b80840191505092915050565b6000615ed18284615e94565b91508190509291505056fea2646970667358221220b5a7aaaa158d84b5ec4847d2280f65d2c735ba0ce8931adcfee16cc4a1ae997164736f6c634300081c0033",
  "linkReferences": {},
  "deployedLinkReferences": {}
}