{
  "_format": "hh-sol-artifact-1",
  "contractName": "BusinessCard",
  "sourceName": "contracts/BusinessCard.sol",
  "abi": [
    {
      "inputs": [],
      "stateMutability": "nonpayable",
      "type": "constructor"
    },
    {
      "inputs": [
        {
          "internalType": "address",
          "name": "sender",
          "type": "address"
        },
        {
          "internalType": "uint256",
          "name": "tokenId",
          "type": "uint256"
        },
        {
          "internalType": "address",
          "name": "owner",
          "type": "address"
        }
      ],
      "name": "ERC721IncorrectOwner",
      "type": "error"
    },
    {
      "inputs": [
        {
          "internalType": "address",
          "name": "operator",
          "type": "address"
        },
        {
          "internalType": "uint256",
          "name": "tokenId",
          "type": "uint256"
        }
      ],
      "name": "ERC721InsufficientApproval",
      "type": "error"
    },
    {
      "inputs": [
        {
          "internalType": "address",
          "name": "approver",
          "type": "address"
        }
      ],
      "name": "ERC721InvalidApprover",
      "type": "error"
    },
    {
      "inputs": [
        {
          "internalType": "address",
          "name": "operator",
          "type": "address"
        }
      ],
      "name": "ERC721InvalidOperator",
      "type": "error"
    },
    {
      "inputs": [
        {
          "internalType": "address",
          "name": "owner",
          "type": "address"
        }
      ],
      "name": "ERC721InvalidOwner",
      "type": "error"
    },
    {
      "inputs": [
        {
          "internalType": "address",
          "name": "receiver",
          "type": "address"
        }
      ],
      "name": "ERC721InvalidReceiver",
      "type": "error"
    },
    {
      "inputs": [
        {
          "internalType": "address",
          "name": "sender",
          "type": "address"
        }
      ],
      "name": "ERC721InvalidSender",
      "type": "error"
    },
    {
      "inputs": [
        {
          "internalType": "uint256",
          "name": "tokenId",
          "type": "uint256"
        }
      ],
      "name": "ERC721NonexistentToken",
      "type": "error"
    },
    {
      "inputs": [
        {
          "internalType": "address",
          "name": "owner",
          "type": "address"
        }
      ],
      "name": "OwnableInvalidOwner",
      "type": "error"
    },
    {
      "inputs": [
        {
          "internalType": "address",
          "name": "account",
          "type": "address"
        }
      ],
      "name": "OwnableUnauthorizedAccount",
      "type": "error"
    },
    {
      "anonymous": false,
      "inputs": [
        {
          "indexed": true,
          "internalType": "address",
          "name": "owner",
          "type": "address"
        },
        {
          "indexed": true,
          "internalType": "address",
          "name": "approved",
          "type": "address"
        },
        {
          "indexed": true,
          "internalType": "uint256",
          "name": "tokenId",
          "type": "uint256"
        }
      ],
      "name": "Approval",
      "type": "event"
    },
    {
      "anonymous": false,
      "inputs": [
        {
          "indexed": true,
          "internalType": "address",
          "name": "owner",
          "type": "address"
        },
        {
          "indexed": true,
          "internalType": "address",
          "name": "operator",
          "type": "address"
        },
        {
          "indexed": false,
          "internalType": "bool",
          "name": "approved",
          "type": "bool"
        }
      ],
      "name": "ApprovalForAll",
      "type": "event"
    },
    {
      "anonymous": false,
      "inputs": [
        {
          "indexed": false,
          "internalType": "uint256",
          "name": "_fromTokenId",
          "type": "uint256"
        },
        {
          "indexed": false,
          "internalType": "uint256",
          "name": "_toTokenId",
          "type": "uint256"
        }
      ],
      "name": "BatchMetadataUpdate",
      "type": "event"
    },
    {
      "anonymous": false,
      "inputs": [
        {
          "indexed": true,
          "internalType": "address",
          "name": "owner",
          "type": "address"
        },
        {
          "indexed": true,
          "internalType": "uint256",
          "name": "cardId",
          "type": "uint256"
        }
      ],
      "name": "BusinessCardMinted",
      "type": "event"
    },
    {
      "anonymous": false,
      "inputs": [
        {
          "indexed": true,
          "internalType": "address",
          "name": "owner",
          "type": "address"
        },
        {
          "indexed": true,
          "internalType": "address",
          "name": "renter",
          "type": "address"
        },
        {
          "indexed": false,
          "internalType": "uint256",
          "name": "cardId",
          "type": "uint256"
        }
      ],
      "name": "BusinessCardRentalEnded",
      "type": "event"
    },
    {
      "anonymous": false,
      "inputs": [
        {
          "indexed": true,
          "internalType": "address",
          "name": "owner",
          "type": "address"
        },
        {
          "indexed": true,
          "internalType": "address",
          "name": "renter",
          "type": "address"
        },
        {
          "indexed": false,
          "internalType": "uint256",
          "name": "cardId",
          "type": "uint256"
        },
        {
          "indexed": false,
          "internalType": "uint256",
          "name": "duration",
          "type": "uint256"
        }
      ],
      "name": "BusinessCardRented",
      "type": "event"
    },
    {
      "anonymous": false,
      "inputs": [
        {
          "indexed": true,
          "internalType": "address",
          "name": "from",
          "type": "address"
        },
        {
          "indexed": true,
          "internalType": "address",
          "name": "to",
          "type": "address"
        },
        {
          "indexed": false,
          "internalType": "uint256",
          "name": "cardId",
          "type": "uint256"
        }
      ],
      "name": "BusinessCardSent",
      "type": "event"
    },
    {
      "anonymous": false,
      "inputs": [
        {
          "indexed": true,
          "internalType": "address",
          "name": "from",
          "type": "address"
        },
        {
          "indexed": true,
          "internalType": "address",
          "name": "to",
          "type": "address"
        },
        {
          "indexed": false,
          "internalType": "uint256",
          "name": "myCardId",
          "type": "uint256"
        }
      ],
      "name": "BusinessCardTraded",
      "type": "event"
    },
    {
      "anonymous": false,
      "inputs": [
        {
          "indexed": true,
          "internalType": "address",
          "name": "owner",
          "type": "address"
        },
        {
          "indexed": true,
          "internalType": "uint256",
          "name": "cardId",
          "type": "uint256"
        }
      ],
      "name": "BusinessCardUpdated",
      "type": "event"
    },
    {
      "anonymous": false,
      "inputs": [
        {
          "indexed": false,
          "internalType": "uint256",
          "name": "_tokenId",
          "type": "uint256"
        }
      ],
      "name": "MetadataUpdate",
      "type": "event"
    },
    {
      "anonymous": false,
      "inputs": [
        {
          "indexed": true,
          "internalType": "address",
          "name": "previousOwner",
          "type": "address"
        },
        {
          "indexed": true,
          "internalType": "address",
          "name": "newOwner",
          "type": "address"
        }
      ],
      "name": "OwnershipTransferred",
      "type": "event"
    },
    {
      "anonymous": false,
      "inputs": [
        {
          "indexed": true,
          "internalType": "address",
          "name": "from",
          "type": "address"
        },
        {
          "indexed": true,
          "internalType": "address",
          "name": "to",
          "type": "address"
        },
        {
          "indexed": true,
          "internalType": "uint256",
          "name": "tokenId",
          "type": "uint256"
        }
      ],
      "name": "Transfer",
      "type": "event"
    },
    {
      "inputs": [
        {
          "internalType": "address",
          "name": "to",
          "type": "address"
        },
        {
          "internalType": "uint256",
          "name": "tokenId",
          "type": "uint256"
        }
      ],
      "name": "approve",
      "outputs": [],
      "stateMutability": "nonpayable",
      "type": "function"
    },
    {
      "inputs": [
        {
          "internalType": "address",
          "name": "owner",
          "type": "address"
        }
      ],
      "name": "balanceOf",
      "outputs": [
        {
          "internalType": "uint256",
          "name": "",
          "type": "uint256"
        }
      ],
      "stateMutability": "view",
      "type": "function"
    },
    {
      "inputs": [
        {
          "internalType": "uint256",
          "name": "_cardId",
          "type": "uint256"
        }
      ],
      "name": "burnCard",
      "outputs": [],
      "stateMutability": "nonpayable",
      "type": "function"
    },
    {
      "inputs": [
        {
          "internalType": "uint256",
          "name": "",
          "type": "uint256"
        }
      ],
      "name": "businessCards",
      "outputs": [
        {
          "internalType": "string",
          "name": "name",
          "type": "string"
        },
        {
          "internalType": "string",
          "name": "title",
          "type": "string"
        },
        {
          "internalType": "string",
          "name": "company",
          "type": "string"
        },
        {
          "internalType": "string",
          "name": "contactInfo",
          "type": "string"
        }
      ],
      "stateMutability": "view",
      "type": "function"
    },
    {
      "inputs": [
        {
          "internalType": "uint256",
          "name": "",
          "type": "uint256"
        }
      ],
      "name": "cardRentals",
      "outputs": [
        {
          "internalType": "address",
          "name": "renter",
          "type": "address"
        },
        {
          "internalType": "uint256",
          "name": "startTime",
          "type": "uint256"
        },
        {
          "internalType": "uint256",
          "name": "endTime",
          "type": "uint256"
        },
        {
          "internalType": "bool",
          "name": "isActive",
          "type": "bool"
        }
      ],
      "stateMutability": "view",
      "type": "function"
    },
    {
      "inputs": [
        {
          "internalType": "uint256",
          "name": "_cardId",
          "type": "uint256"
        }
      ],
      "name": "endRental",
      "outputs": [],
      "stateMutability": "nonpayable",
      "type": "function"
    },
    {
      "inputs": [
        {
          "internalType": "uint256",
          "name": "tokenId",
          "type": "uint256"
        }
      ],
      "name": "getApproved",
      "outputs": [
        {
          "internalType": "address",
          "name": "",
          "type": "address"
        }
      ],
      "stateMutability": "view",
      "type": "function"
    },
    {
      "inputs": [
        {
          "internalType": "uint256",
          "name": "_cardId",
          "type": "uint256"
        }
      ],
      "name": "getBusinessCard",
      "outputs": [
        {
          "components": [
            {
              "internalType": "string",
              "name": "name",
              "type": "string"
            },
            {
              "internalType": "string",
              "name": "title",
              "type": "string"
            },
            {
              "internalType": "string",
              "name": "company",
              "type": "string"
            },
            {
              "internalType": "string",
              "name": "contactInfo",
              "type": "string"
            }
          ],
          "internalType": "struct BusinessCard.CardDetails",
          "name": "",
          "type": "tuple"
        }
      ],
      "stateMutability": "view",
      "type": "function"
    },
    {
      "inputs": [
        {
          "internalType": "uint256[]",
          "name": "_cardIds",
          "type": "uint256[]"
        }
      ],
      "name": "getMultipleBusinessCards",
      "outputs": [
        {
          "components": [
            {
              "internalType": "string",
              "name": "name",
              "type": "string"
            },
            {
              "internalType": "string",
              "name": "title",
              "type": "string"
            },
            {
              "internalType": "string",
              "name": "company",
              "type": "string"
            },
            {
              "internalType": "string",
              "name": "contactInfo",
              "type": "string"
            }
          ],
          "internalType": "struct BusinessCard.CardDetails[]",
          "name": "",
          "type": "tuple[]"
        }
      ],
      "stateMutability": "view",
      "type": "function"
    },
    {
      "inputs": [
        {
          "internalType": "address",
          "name": "_owner",
          "type": "address"
        }
      ],
      "name": "getReceivedCards",
      "outputs": [
        {
          "internalType": "uint256[]",
          "name": "",
          "type": "uint256[]"
        }
      ],
      "stateMutability": "view",
      "type": "function"
    },
    {
      "inputs": [
        {
          "internalType": "uint256",
          "name": "_cardId",
          "type": "uint256"
        }
      ],
      "name": "getRentalStatus",
      "outputs": [
        {
          "internalType": "bool",
          "name": "isRented",
          "type": "bool"
        },
        {
          "internalType": "address",
          "name": "renter",
          "type": "address"
        },
        {
          "internalType": "uint256",
          "name": "remainingTime",
          "type": "uint256"
        }
      ],
      "stateMutability": "view",
      "type": "function"
    },
    {
      "inputs": [],
      "name": "getRentedCards",
      "outputs": [
        {
          "internalType": "uint256[]",
          "name": "cardIds",
          "type": "uint256[]"
        },
        {
          "components": [
            {
              "internalType": "string",
              "name": "name",
              "type": "string"
            },
            {
              "internalType": "string",
              "name": "title",
              "type": "string"
            },
            {
              "internalType": "string",
              "name": "company",
              "type": "string"
            },
            {
              "internalType": "string",
              "name": "contactInfo",
              "type": "string"
            }
          ],
          "internalType": "struct BusinessCard.CardDetails[]",
          "name": "cards",
          "type": "tuple[]"
        },
        {
          "internalType": "uint256[]",
          "name": "remainingTimes",
          "type": "uint256[]"
        }
      ],
      "stateMutability": "view",
      "type": "function"
    },
    {
      "inputs": [
        {
          "internalType": "address",
          "name": "owner",
          "type": "address"
        },
        {
          "internalType": "address",
          "name": "operator",
          "type": "address"
        }
      ],
      "name": "isApprovedForAll",
      "outputs": [
        {
          "internalType": "bool",
          "name": "",
          "type": "bool"
        }
      ],
      "stateMutability": "view",
      "type": "function"
    },
    {
      "inputs": [
        {
          "internalType": "string",
          "name": "_name",
          "type": "string"
        },
        {
          "internalType": "string",
          "name": "_title",
          "type": "string"
        },
        {
          "internalType": "string",
          "name": "_company",
          "type": "string"
        },
        {
          "internalType": "string",
          "name": "_contactInfo",
          "type": "string"
        },
        {
          "internalType": "string",
          "name": "_tokenURI",
          "type": "string"
        }
      ],
      "name": "mintBusinessCard",
      "outputs": [],
      "stateMutability": "nonpayable",
      "type": "function"
    },
    {
      "inputs": [],
      "name": "name",
      "outputs": [
        {
          "internalType": "string",
          "name": "",
          "type": "string"
        }
      ],
      "stateMutability": "view",
      "type": "function"
    },
    {
      "inputs": [],
      "name": "owner",
      "outputs": [
        {
          "internalType": "address",
          "name": "",
          "type": "address"
        }
      ],
      "stateMutability": "view",
      "type": "function"
    },
    {
      "inputs": [
        {
          "internalType": "uint256",
          "name": "tokenId",
          "type": "uint256"
        }
      ],
      "name": "ownerOf",
      "outputs": [
        {
          "internalType": "address",
          "name": "",
          "type": "address"
        }
      ],
      "stateMutability": "view",
      "type": "function"
    },
    {
      "inputs": [
        {
          "internalType": "address",
          "name": "",
          "type": "address"
        },
        {
          "internalType": "uint256",
          "name": "",
          "type": "uint256"
        }
      ],
      "name": "receivedCards",
      "outputs": [
        {
          "internalType": "bool",
          "name": "",
          "type": "bool"
        }
      ],
      "stateMutability": "view",
      "type": "function"
    },
    {
      "inputs": [],
      "name": "renounceOwnership",
      "outputs": [],
      "stateMutability": "nonpayable",
      "type": "function"
    },
    {
      "inputs": [
        {
          "internalType": "uint256",
          "name": "_cardId",
          "type": "uint256"
        },
        {
          "internalType": "address",
          "name": "_renter",
          "type": "address"
        },
        {
          "internalType": "uint256",
          "name": "_duration",
          "type": "uint256"
        }
      ],
      "name": "rentBusinessCard",
      "outputs": [],
      "stateMutability": "nonpayable",
      "type": "function"
    },
    {
      "inputs": [
        {
          "internalType": "address",
          "name": "from",
          "type": "address"
        },
        {
          "internalType": "address",
          "name": "to",
          "type": "address"
        },
        {
          "internalType": "uint256",
          "name": "tokenId",
          "type": "uint256"
        }
      ],
      "name": "safeTransferFrom",
      "outputs": [],
      "stateMutability": "nonpayable",
      "type": "function"
    },
    {
      "inputs": [
        {
          "internalType": "address",
          "name": "from",
          "type": "address"
        },
        {
          "internalType": "address",
          "name": "to",
          "type": "address"
        },
        {
          "internalType": "uint256",
          "name": "tokenId",
          "type": "uint256"
        },
        {
          "internalType": "bytes",
          "name": "data",
          "type": "bytes"
        }
      ],
      "name": "safeTransferFrom",
      "outputs": [],
      "stateMutability": "nonpayable",
      "type": "function"
    },
    {
      "inputs": [
        {
          "internalType": "address",
          "name": "_to",
          "type": "address"
        },
        {
          "internalType": "uint256",
          "name": "_cardId",
          "type": "uint256"
        }
      ],
      "name": "sendBusinessCard",
      "outputs": [],
      "stateMutability": "nonpayable",
      "type": "function"
    },
    {
      "inputs": [
        {
          "internalType": "address",
          "name": "operator",
          "type": "address"
        },
        {
          "internalType": "bool",
          "name": "approved",
          "type": "bool"
        }
      ],
      "name": "setApprovalForAll",
      "outputs": [],
      "stateMutability": "nonpayable",
      "type": "function"
    },
    {
      "inputs": [
        {
          "internalType": "bytes4",
          "name": "interfaceId",
          "type": "bytes4"
        }
      ],
      "name": "supportsInterface",
      "outputs": [
        {
          "internalType": "bool",
          "name": "",
          "type": "bool"
        }
      ],
      "stateMutability": "view",
      "type": "function"
    },
    {
      "inputs": [],
      "name": "symbol",
      "outputs": [
        {
          "internalType": "string",
          "name": "",
          "type": "string"
        }
      ],
      "stateMutability": "view",
      "type": "function"
    },
    {
      "inputs": [
        {
          "internalType": "uint256",
          "name": "tokenId",
          "type": "uint256"
        }
      ],
      "name": "tokenURI",
      "outputs": [
        {
          "internalType": "string",
          "name": "",
          "type": "string"
        }
      ],
      "stateMutability": "view",
      "type": "function"
    },
    {
      "inputs": [
        {
          "internalType": "address",
          "name": "_recipient",
          "type": "address"
        },
        {
          "internalType": "uint256",
          "name": "_myCardId",
          "type": "uint256"
        }
      ],
      "name": "tradeCardViaQR",
      "outputs": [],
      "stateMutability": "nonpayable",
      "type": "function"
    },
    {
      "inputs": [
        {
          "internalType": "address",
          "name": "_with",
          "type": "address"
        },
        {
          "internalType": "uint256",
          "name": "_myCardId",
          "type": "uint256"
        },
        {
          "internalType": "uint256",
          "name": "_theirCardId",
          "type": "uint256"
        }
      ],
      "name": "tradeCards",
      "outputs": [],
      "stateMutability": "nonpayable",
      "type": "function"
    },
    {
      "inputs": [
        {
          "internalType": "address",
          "name": "from",
          "type": "address"
        },
        {
          "internalType": "address",
          "name": "to",
          "type": "address"
        },
        {
          "internalType": "uint256",
          "name": "tokenId",
          "type": "uint256"
        }
      ],
      "name": "transferFrom",
      "outputs": [],
      "stateMutability": "nonpayable",
      "type": "function"
    },
    {
      "inputs": [
        {
          "internalType": "address",
          "name": "newOwner",
          "type": "address"
        }
      ],
      "name": "transferOwnership",
      "outputs": [],
      "stateMutability": "nonpayable",
      "type": "function"
    },
    {
      "inputs": [
        {
          "internalType": "uint256",
          "name": "_cardId",
          "type": "uint256"
        },
        {
          "internalType": "string",
          "name": "_title",
          "type": "string"
        },
        {
          "internalType": "string",
          "name": "_company",
          "type": "string"
        },
        {
          "internalType": "string",
          "name": "_contactInfo",
          "type": "string"
        },
        {
          "internalType": "string",
          "name": "_tokenURI",
          "type": "string"
        }
      ],
      "name": "updateBusinessCard",
      "outputs": [],
      "stateMutability": "nonpayable",
      "type": "function"
    },
    {
      "inputs": [
        {
          "internalType": "address",
          "name": "",
          "type": "address"
        }
      ],
      "name": "userCard",
      "outputs": [
        {
          "internalType": "uint256",
          "name": "",
          "type": "uint256"
        }
      ],
      "stateMutability": "view",
      "type": "function"
    }
  ],
  "bytecode": "0x608060405234801561001057600080fd5b50336040518060400160405280600c81526020017f427573696e6573734361726400000000000000000000000000000000000000008152506040518060400160405280600581526020017f4243415244000000000000000000000000000000000000000000000000000000815250816000908161008d919061043d565b50806001908161009d919061043d565b505050600073ffffffffffffffffffffffffffffffffffffffff168173ffffffffffffffffffffffffffffffffffffffff16036101125760006040517f1e4fbdf70000000000000000000000000000000000000000000000000000000081526004016101099190610550565b60405180910390fd5b6101218161012760201b60201c565b5061056b565b6000600760009054906101000a900473ffffffffffffffffffffffffffffffffffffffff16905081600760006101000a81548173ffffffffffffffffffffffffffffffffffffffff021916908373ffffffffffffffffffffffffffffffffffffffff1602179055508173ffffffffffffffffffffffffffffffffffffffff168173ffffffffffffffffffffffffffffffffffffffff167f8be0079c531659141344cd1fd0a4f28419497f9722a3daafe3b4186f6b6457e060405160405180910390a35050565b600081519050919050565b7f4e487b7100000000000000000000000000000000000000000000000000000000600052604160045260246000fd5b7f4e487b7100000000000000000000000000000000000000000000000000000000600052602260045260246000fd5b6000600282049050600182168061026e57607f821691505b60208210810361028157610280610227565b5b50919050565b60008190508160005260206000209050919050565b60006020601f8301049050919050565b600082821b905092915050565b6000600883026102e97fffffffffffffffffffffffffffffffffffffffffffffffffffffffffffffffff826102ac565b6102f386836102ac565b95508019841693508086168417925050509392505050565b6000819050919050565b6000819050919050565b600061033a6103356103308461030b565b610315565b61030b565b9050919050565b6000819050919050565b6103548361031f565b61036861036082610341565b8484546102b9565b825550505050565b600090565b61037d610370565b61038881848461034b565b505050565b5b818110156103ac576103a1600082610375565b60018101905061038e565b5050565b601f8211156103f1576103c281610287565b6103cb8461029c565b810160208510156103da578190505b6103ee6103e68561029c565b83018261038d565b50505b505050565b600082821c905092915050565b6000610414600019846008026103f6565b1980831691505092915050565b600061042d8383610403565b9150826002028217905092915050565b610446826101ed565b67ffffffffffffffff81111561045f5761045e6101f8565b5b6104698254610256565b6104748282856103b0565b600060209050601f8311600181146104a75760008415610495578287015190505b61049f8582610421565b865550610507565b601f1984166104b586610287565b60005b828110156104dd578489015182556001820191506020850194506020810190506104b8565b868310156104fa57848901516104f6601f891682610403565b8355505b6001600288020188555050505b505050505050565b600073ffffffffffffffffffffffffffffffffffffffff82169050919050565b600061053a8261050f565b9050919050565b61054a8161052f565b82525050565b60006020820190506105656000830184610541565b92915050565b6157db8061057a6000396000f3fe608060405234801561001057600080fd5b50600436106101fb5760003560e01c806395d89b411161011a578063bf15987e116100ad578063dc3ad23c1161007c578063dc3ad23c146105fe578063dd9c96db1461061a578063e985e9c51461064c578063f2fde38b1461067c578063fd3effcd14610698576101fb565b8063bf15987e14610552578063c39c77a214610582578063c87b56dd146105b2578063d2e9c45f146105e2576101fb565b8063adca289a116100e9578063adca289a146104cb578063b2d5cc87146104fe578063b88d4fde1461051a578063ba7e7d0514610536576101fb565b806395d89b411461045957806397491d6f14610477578063a22cb46514610493578063a7344e7e146104af576101fb565b80635c9dcfdf116101925780637a148238116101615780637a148238146103cf5780638da5cb5b146103ff5780639323c9331461041d578063950dbc461461043d576101fb565b80635c9dcfdf146103325780636352211e1461036557806370a0823114610395578063715018a6146103c5576101fb565b806311e20494116101ce57806311e204941461029a57806323b872dd146102ca578063277ce8ec146102e657806342842e0e14610316576101fb565b806301ffc9a71461020057806306fdde0314610230578063081812fc1461024e578063095ea7b31461027e575b600080fd5b61021a60048036038101906102159190613f13565b6106b4565b6040516102279190613f5b565b60405180910390f35b610238610715565b6040516102459190614006565b60405180910390f35b6102686004803603810190610263919061405e565b6107a7565b60405161027591906140cc565b60405180910390f35b61029860048036038101906102939190614113565b6107c3565b005b6102b460048036038101906102af9190614153565b6107d9565b6040516102c1919061418f565b60405180910390f35b6102e460048036038101906102df91906141aa565b6107f1565b005b61030060048036038101906102fb919061405e565b6108f3565b60405161030d91906142bf565b60405180910390f35b610330600480360381019061032b91906141aa565b610b68565b005b61034c6004803603810190610347919061405e565b610b88565b60405161035c94939291906142e1565b60405180910390f35b61037f600480360381019061037a919061405e565b610dd8565b60405161038c91906140cc565b60405180910390f35b6103af60048036038101906103aa9190614153565b610dea565b6040516103bc919061418f565b60405180910390f35b6103cd610ea4565b005b6103e960048036038101906103e49190614153565b610eb8565b6040516103f69190614400565b60405180910390f35b610407610f4f565b60405161041491906140cc565b60405180910390f35b610425610f79565b6040516104349392919061455c565b60405180910390f35b610457600480360381019061045291906145a8565b611587565b005b61046161184c565b60405161046e9190614006565b60405180910390f35b610491600480360381019061048c919061405e565b6118de565b005b6104ad60048036038101906104a89190614627565b611af8565b005b6104c960048036038101906104c49190614667565b611b0e565b005b6104e560048036038101906104e0919061405e565b611c7a565b6040516104f594939291906146ba565b60405180910390f35b61051860048036038101906105139190614834565b611cd7565b005b610534600480360381019061052f91906149dc565b611eab565b005b610550600480360381019061054b919061405e565b611ed0565b005b61056c60048036038101906105679190614b27565b611feb565b6040516105799190614b70565b60405180910390f35b61059c60048036038101906105979190614113565b612307565b6040516105a99190613f5b565b60405180910390f35b6105cc60048036038101906105c7919061405e565b612336565b6040516105d99190614006565b60405180910390f35b6105fc60048036038101906105f79190614b92565b612449565b005b61061860048036038101906106139190614113565b612580565b005b610634600480360381019061062f919061405e565b6128f8565b60405161064393929190614c7d565b60405180910390f35b61066660048036038101906106619190614cb4565b6129fc565b6040516106739190613f5b565b60405180910390f35b61069660048036038101906106919190614153565b612a90565b005b6106b260048036038101906106ad9190614113565b612b16565b005b6000634906490660e01b7bffffffffffffffffffffffffffffffffffffffffffffffffffffffff1916827bffffffffffffffffffffffffffffffffffffffffffffffffffffffff1916148061070e575061070d82612c00565b5b9050919050565b60606000805461072490614d23565b80601f016020809104026020016040519081016040528092919081815260200182805461075090614d23565b801561079d5780601f106107725761010080835404028352916020019161079d565b820191906000526020600020905b81548152906001019060200180831161078057829003601f168201915b5050505050905090565b60006107b282612ce2565b506107bc82612d6a565b9050919050565b6107d582826107d0612da7565b612daf565b5050565b600a6020528060005260406000206000915090505481565b600073ffffffffffffffffffffffffffffffffffffffff168273ffffffffffffffffffffffffffffffffffffffff16036108635760006040517f64a0ae9200000000000000000000000000000000000000000000000000000000815260040161085a91906140cc565b60405180910390fd5b60006108778383610872612da7565b612dc1565b90508373ffffffffffffffffffffffffffffffffffffffff168173ffffffffffffffffffffffffffffffffffffffff16146108ed578382826040517f64283d7b0000000000000000000000000000000000000000000000000000000081526004016108e493929190614d54565b60405180910390fd5b50505050565b6108fb613e22565b6009600083815260200190815260200160002060405180608001604052908160008201805461092990614d23565b80601f016020809104026020016040519081016040528092919081815260200182805461095590614d23565b80156109a25780601f10610977576101008083540402835291602001916109a2565b820191906000526020600020905b81548152906001019060200180831161098557829003601f168201915b505050505081526020016001820180546109bb90614d23565b80601f01602080910402602001604051908101604052809291908181526020018280546109e790614d23565b8015610a345780601f10610a0957610100808354040283529160200191610a34565b820191906000526020600020905b815481529060010190602001808311610a1757829003601f168201915b50505050508152602001600282018054610a4d90614d23565b80601f0160208091040260200160405190810160405280929190818152602001828054610a7990614d23565b8015610ac65780601f10610a9b57610100808354040283529160200191610ac6565b820191906000526020600020905b815481529060010190602001808311610aa957829003601f168201915b50505050508152602001600382018054610adf90614d23565b80601f0160208091040260200160405190810160405280929190818152602001828054610b0b90614d23565b8015610b585780601f10610b2d57610100808354040283529160200191610b58565b820191906000526020600020905b815481529060010190602001808311610b3b57829003601f168201915b5050505050815250509050919050565b610b8383838360405180602001604052806000815250611eab565b505050565b6009602052806000526040600020600091509050806000018054610bab90614d23565b80601f0160208091040260200160405190810160405280929190818152602001828054610bd790614d23565b8015610c245780601f10610bf957610100808354040283529160200191610c24565b820191906000526020600020905b815481529060010190602001808311610c0757829003601f168201915b505050505090806001018054610c3990614d23565b80601f0160208091040260200160405190810160405280929190818152602001828054610c6590614d23565b8015610cb25780601f10610c8757610100808354040283529160200191610cb2565b820191906000526020600020905b815481529060010190602001808311610c9557829003601f168201915b505050505090806002018054610cc790614d23565b80601f0160208091040260200160405190810160405280929190818152602001828054610cf390614d23565b8015610d405780601f10610d1557610100808354040283529160200191610d40565b820191906000526020600020905b815481529060010190602001808311610d2357829003601f168201915b505050505090806003018054610d5590614d23565b80601f0160208091040260200160405190810160405280929190818152602001828054610d8190614d23565b8015610dce5780601f10610da357610100808354040283529160200191610dce565b820191906000526020600020905b815481529060010190602001808311610db157829003601f168201915b5050505050905084565b6000610de382612ce2565b9050919050565b60008073ffffffffffffffffffffffffffffffffffffffff168273ffffffffffffffffffffffffffffffffffffffff1603610e5d5760006040517f89c62b64000000000000000000000000000000000000000000000000000000008152600401610e5491906140cc565b60405180910390fd5b600360008373ffffffffffffffffffffffffffffffffffffffff1673ffffffffffffffffffffffffffffffffffffffff168152602001908152602001600020549050919050565b610eac612fdb565b610eb66000613062565b565b6060600c60008373ffffffffffffffffffffffffffffffffffffffff1673ffffffffffffffffffffffffffffffffffffffff168152602001908152602001600020805480602002602001604051908101604052809291908181526020018280548015610f4357602002820191906000526020600020905b815481526020019060010190808311610f2f575b50505050509050919050565b6000600760009054906101000a900473ffffffffffffffffffffffffffffffffffffffff16905090565b60608060606000600e60003373ffffffffffffffffffffffffffffffffffffffff1673ffffffffffffffffffffffffffffffffffffffff16815260200190815260200160002080548060200260200160405190810160405280929190818152602001828054801561100957602002820191906000526020600020905b815481526020019060010190808311610ff5575b505050505090506000805b82518110156110b757600d600084838151811061103457611033614d8b565b5b6020026020010151815260200190815260200160002060030160009054906101000a900460ff168015611096575042600d600085848151811061107a57611079614d8b565b5b6020026020010151815260200190815260200160002060020154115b156110aa5781806110a690614de9565b9250505b8080600101915050611014565b508067ffffffffffffffff8111156110d2576110d1614709565b5b6040519080825280602002602001820160405280156111005781602001602082028036833780820191505090505b5094508067ffffffffffffffff81111561111d5761111c614709565b5b60405190808252806020026020018201604052801561115657816020015b611143613e22565b81526020019060019003908161113b5790505b5093508067ffffffffffffffff81111561117357611172614709565b5b6040519080825280602002602001820160405280156111a15781602001602082028036833780820191505090505b5092506000805b835181101561157e57600d60008583815181106111c8576111c7614d8b565b5b6020026020010151815260200190815260200160002060030160009054906101000a900460ff16801561122a575042600d600086848151811061120e5761120d614d8b565b5b6020026020010151815260200190815260200160002060020154115b156115715783818151811061124257611241614d8b565b5b602002602001015187838151811061125d5761125c614d8b565b5b602002602001018181525050600960008583815181106112805761127f614d8b565b5b602002602001015181526020019081526020016000206040518060800160405290816000820180546112b190614d23565b80601f01602080910402602001604051908101604052809291908181526020018280546112dd90614d23565b801561132a5780601f106112ff5761010080835404028352916020019161132a565b820191906000526020600020905b81548152906001019060200180831161130d57829003601f168201915b5050505050815260200160018201805461134390614d23565b80601f016020809104026020016040519081016040528092919081815260200182805461136f90614d23565b80156113bc5780601f10611391576101008083540402835291602001916113bc565b820191906000526020600020905b81548152906001019060200180831161139f57829003601f168201915b505050505081526020016002820180546113d590614d23565b80601f016020809104026020016040519081016040528092919081815260200182805461140190614d23565b801561144e5780601f106114235761010080835404028352916020019161144e565b820191906000526020600020905b81548152906001019060200180831161143157829003601f168201915b5050505050815260200160038201805461146790614d23565b80601f016020809104026020016040519081016040528092919081815260200182805461149390614d23565b80156114e05780601f106114b5576101008083540402835291602001916114e0565b820191906000526020600020905b8154815290600101906020018083116114c357829003601f168201915b5050505050815250508683815181106114fc576114fb614d8b565b5b602002602001018190525042600d600086848151811061151f5761151e614d8b565b5b60200260200101518152602001908152602001600020600201546115439190614e31565b85838151811061155657611555614d8b565b5b602002602001018181525050818061156d90614de9565b9250505b80806001019150506111a8565b50505050909192565b3373ffffffffffffffffffffffffffffffffffffffff166115a784610dd8565b73ffffffffffffffffffffffffffffffffffffffff16146115fd576040517f08c379a00000000000000000000000000000000000000000000000000000000081526004016115f490614eb1565b60405180910390fd5b600d600084815260200190815260200160002060030160009054906101000a900460ff1615611661576040517f08c379a000000000000000000000000000000000000000000000000000000000815260040161165890614f1d565b60405180910390fd5b600081116116a4576040517f08c379a000000000000000000000000000000000000000000000000000000000815260040161169b90614f89565b60405180910390fd5b60405180608001604052808373ffffffffffffffffffffffffffffffffffffffff16815260200142815260200182426116dd9190614fa9565b815260200160011515815250600d600085815260200190815260200160002060008201518160000160006101000a81548173ffffffffffffffffffffffffffffffffffffffff021916908373ffffffffffffffffffffffffffffffffffffffff160217905550602082015181600101556040820151816002015560608201518160030160006101000a81548160ff021916908315150217905550905050600e60008373ffffffffffffffffffffffffffffffffffffffff1673ffffffffffffffffffffffffffffffffffffffff1681526020019081526020016000208390806001815401808255809150506001900390600052602060002001600090919091909150558173ffffffffffffffffffffffffffffffffffffffff163373ffffffffffffffffffffffffffffffffffffffff167f949c005e87942354438f522ef9214ae727f5f31c528b9dccc6d512dbfe9067a2858460405161183f929190614fdd565b60405180910390a3505050565b60606001805461185b90614d23565b80601f016020809104026020016040519081016040528092919081815260200182805461188790614d23565b80156118d45780601f106118a9576101008083540402835291602001916118d4565b820191906000526020600020905b8154815290600101906020018083116118b757829003601f168201915b5050505050905090565b3373ffffffffffffffffffffffffffffffffffffffff166118fe82610dd8565b73ffffffffffffffffffffffffffffffffffffffff16148061198157503373ffffffffffffffffffffffffffffffffffffffff16600d600083815260200190815260200160002060000160009054906101000a900473ffffffffffffffffffffffffffffffffffffffff1673ffffffffffffffffffffffffffffffffffffffff16145b6119c0576040517f08c379a00000000000000000000000000000000000000000000000000000000081526004016119b790615078565b60405180910390fd5b600d600082815260200190815260200160002060030160009054906101000a900460ff16611a23576040517f08c379a0000000000000000000000000000000000000000000000000000000008152600401611a1a906150e4565b60405180910390fd5b6000600d600083815260200190815260200160002060030160006101000a81548160ff021916908315150217905550600d600082815260200190815260200160002060000160009054906101000a900473ffffffffffffffffffffffffffffffffffffffff1673ffffffffffffffffffffffffffffffffffffffff16611aa882610dd8565b73ffffffffffffffffffffffffffffffffffffffff167f735a2f4708e061da5752e832eb27cc68468060e645064074b6595fd92243540883604051611aed919061418f565b60405180910390a350565b611b0a611b03612da7565b8383613128565b5050565b3373ffffffffffffffffffffffffffffffffffffffff16611b2e83610dd8565b73ffffffffffffffffffffffffffffffffffffffff1614611b84576040517f08c379a0000000000000000000000000000000000000000000000000000000008152600401611b7b90615150565b60405180910390fd5b8273ffffffffffffffffffffffffffffffffffffffff16611ba482610dd8565b73ffffffffffffffffffffffffffffffffffffffff1614611bfa576040517f08c379a0000000000000000000000000000000000000000000000000000000008152600401611bf1906151bc565b60405180910390fd5b611c05338484613297565b611c10833383613297565b8273ffffffffffffffffffffffffffffffffffffffff163373ffffffffffffffffffffffffffffffffffffffff167f24a3be0c5c512b15349ba426cca0182f3031c022d4022ef20349c1e5df66903884604051611c6d919061418f565b60405180910390a3505050565b600d6020528060005260406000206000915090508060000160009054906101000a900473ffffffffffffffffffffffffffffffffffffffff16908060010154908060020154908060030160009054906101000a900460ff16905084565b6000600a60003373ffffffffffffffffffffffffffffffffffffffff1673ffffffffffffffffffffffffffffffffffffffff1681526020019081526020016000205414611d59576040517f08c379a0000000000000000000000000000000000000000000000000000000008152600401611d5090615228565b60405180910390fd5b60086000815480929190611d6c90614de9565b919050555060006008549050604051806080016040528087815260200186815260200185815260200184815250600960008381526020019081526020016000206000820151816000019081611dc191906153f4565b506020820151816001019081611dd791906153f4565b506040820151816002019081611ded91906153f4565b506060820151816003019081611e0391906153f4565b5090505080600a60003373ffffffffffffffffffffffffffffffffffffffff1673ffffffffffffffffffffffffffffffffffffffff16815260200190815260200160002081905550611e553382613404565b611e5f81836134fd565b803373ffffffffffffffffffffffffffffffffffffffff167f8793df92035bc0aa685973f692a332924aae0a3a8a46c48cea13e205c1897f0760405160405180910390a3505050505050565b611eb68484846107f1565b611eca611ec1612da7565b85858585613559565b50505050565b3373ffffffffffffffffffffffffffffffffffffffff16611ef082610dd8565b73ffffffffffffffffffffffffffffffffffffffff1614611f46576040517f08c379a0000000000000000000000000000000000000000000000000000000008152600401611f3d90615512565b60405180910390fd5b6009600082815260200190815260200160002060008082016000611f6a9190613e4a565b600182016000611f7a9190613e4a565b600282016000611f8a9190613e4a565b600382016000611f9a9190613e4a565b5050600a60003373ffffffffffffffffffffffffffffffffffffffff1673ffffffffffffffffffffffffffffffffffffffff16815260200190815260200160002060009055611fe88161370a565b50565b60606000825167ffffffffffffffff81111561200a57612009614709565b5b60405190808252806020026020018201604052801561204357816020015b612030613e22565b8152602001906001900390816120285790505b50905060005b83518110156122fd576009600085838151811061206957612068614d8b565b5b6020026020010151815260200190815260200160002060405180608001604052908160008201805461209a90614d23565b80601f01602080910402602001604051908101604052809291908181526020018280546120c690614d23565b80156121135780601f106120e857610100808354040283529160200191612113565b820191906000526020600020905b8154815290600101906020018083116120f657829003601f168201915b5050505050815260200160018201805461212c90614d23565b80601f016020809104026020016040519081016040528092919081815260200182805461215890614d23565b80156121a55780601f1061217a576101008083540402835291602001916121a5565b820191906000526020600020905b81548152906001019060200180831161218857829003601f168201915b505050505081526020016002820180546121be90614d23565b80601f01602080910402602001604051908101604052809291908181526020018280546121ea90614d23565b80156122375780601f1061220c57610100808354040283529160200191612237565b820191906000526020600020905b81548152906001019060200180831161221a57829003601f168201915b5050505050815260200160038201805461225090614d23565b80601f016020809104026020016040519081016040528092919081815260200182805461227c90614d23565b80156122c95780601f1061229e576101008083540402835291602001916122c9565b820191906000526020600020905b8154815290600101906020018083116122ac57829003601f168201915b5050505050815250508282815181106122e5576122e4614d8b565b5b60200260200101819052508080600101915050612049565b5080915050919050565b600b6020528160005260406000206020528060005260406000206000915091509054906101000a900460ff1681565b606061234182612ce2565b50600060066000848152602001908152602001600020805461236290614d23565b80601f016020809104026020016040519081016040528092919081815260200182805461238e90614d23565b80156123db5780601f106123b0576101008083540402835291602001916123db565b820191906000526020600020905b8154815290600101906020018083116123be57829003601f168201915b5050505050905060006123ec613790565b90506000815103612401578192505050612444565b60008251111561243657808260405160200161241e92919061556e565b60405160208183030381529060405292505050612444565b61243f846137a7565b925050505b919050565b3373ffffffffffffffffffffffffffffffffffffffff1661246986610dd8565b73ffffffffffffffffffffffffffffffffffffffff16146124bf576040517f08c379a00000000000000000000000000000000000000000000000000000000081526004016124b690614eb1565b60405180910390fd5b836009600087815260200190815260200160002060010190816124e291906153f4565b508260096000878152602001908152602001600020600201908161250691906153f4565b508160096000878152602001908152602001600020600301908161252a91906153f4565b5061253585826134fd565b843373ffffffffffffffffffffffffffffffffffffffff167feded767027901935a7d774cbd93ad76c46cd00f5009ec95e7ec02f7c904102aa60405160405180910390a35050505050565b803373ffffffffffffffffffffffffffffffffffffffff166125a182610dd8565b73ffffffffffffffffffffffffffffffffffffffff1614806126725750600d600082815260200190815260200160002060030160009054906101000a900460ff16801561264f57503373ffffffffffffffffffffffffffffffffffffffff16600d600083815260200190815260200160002060000160009054906101000a900473ffffffffffffffffffffffffffffffffffffffff1673ffffffffffffffffffffffffffffffffffffffff16145b80156126715750600d6000828152602001908152602001600020600201544211155b5b6126b1576040517f08c379a00000000000000000000000000000000000000000000000000000000081526004016126a8906155de565b60405180910390fd5b3373ffffffffffffffffffffffffffffffffffffffff166126d183610dd8565b73ffffffffffffffffffffffffffffffffffffffff1614806127805750600d600083815260200190815260200160002060030160009054906101000a900460ff16801561277f57503373ffffffffffffffffffffffffffffffffffffffff16600d600084815260200190815260200160002060000160009054906101000a900473ffffffffffffffffffffffffffffffffffffffff1673ffffffffffffffffffffffffffffffffffffffff16145b5b6127bf576040517f08c379a00000000000000000000000000000000000000000000000000000000081526004016127b69061564a565b60405180910390fd5b6001600b60008573ffffffffffffffffffffffffffffffffffffffff1673ffffffffffffffffffffffffffffffffffffffff168152602001908152602001600020600084815260200190815260200160002060006101000a81548160ff021916908315150217905550600c60008473ffffffffffffffffffffffffffffffffffffffff1673ffffffffffffffffffffffffffffffffffffffff1681526020019081526020016000208290806001815401808255809150506001900390600052602060002001600090919091909150558273ffffffffffffffffffffffffffffffffffffffff163373ffffffffffffffffffffffffffffffffffffffff167fa1d529b18967c562a493ddab9f1fcc2883782506ddfeab6d46adf01ef6bf05f7846040516128eb919061418f565b60405180910390a3505050565b600080600080600d60008681526020019081526020016000206040518060800160405290816000820160009054906101000a900473ffffffffffffffffffffffffffffffffffffffff1673ffffffffffffffffffffffffffffffffffffffff1673ffffffffffffffffffffffffffffffffffffffff16815260200160018201548152602001600282015481526020016003820160009054906101000a900460ff161515151581525050905080606001516129bd576000806000935093509350506129f5565b6000428260400151116129d15760006129e2565b4282604001516129e19190614e31565b5b9050600182600001518294509450945050505b9193909250565b6000600560008473ffffffffffffffffffffffffffffffffffffffff1673ffffffffffffffffffffffffffffffffffffffff16815260200190815260200160002060008373ffffffffffffffffffffffffffffffffffffffff1673ffffffffffffffffffffffffffffffffffffffff16815260200190815260200160002060009054906101000a900460ff16905092915050565b612a98612fdb565b600073ffffffffffffffffffffffffffffffffffffffff168173ffffffffffffffffffffffffffffffffffffffff1603612b0a5760006040517f1e4fbdf7000000000000000000000000000000000000000000000000000000008152600401612b0191906140cc565b60405180910390fd5b612b1381613062565b50565b3373ffffffffffffffffffffffffffffffffffffffff16612b3682610dd8565b73ffffffffffffffffffffffffffffffffffffffff1614612b8c576040517f08c379a0000000000000000000000000000000000000000000000000000000008152600401612b8390614eb1565b60405180910390fd5b612b97338383613297565b8173ffffffffffffffffffffffffffffffffffffffff163373ffffffffffffffffffffffffffffffffffffffff167f24a3be0c5c512b15349ba426cca0182f3031c022d4022ef20349c1e5df66903883604051612bf4919061418f565b60405180910390a35050565b60007f80ac58cd000000000000000000000000000000000000000000000000000000007bffffffffffffffffffffffffffffffffffffffffffffffffffffffff1916827bffffffffffffffffffffffffffffffffffffffffffffffffffffffff19161480612ccb57507f5b5e139f000000000000000000000000000000000000000000000000000000007bffffffffffffffffffffffffffffffffffffffffffffffffffffffff1916827bffffffffffffffffffffffffffffffffffffffffffffffffffffffff1916145b80612cdb5750612cda82613810565b5b9050919050565b600080612cee8361387a565b9050600073ffffffffffffffffffffffffffffffffffffffff168173ffffffffffffffffffffffffffffffffffffffff1603612d6157826040517f7e273289000000000000000000000000000000000000000000000000000000008152600401612d58919061418f565b60405180910390fd5b80915050919050565b60006004600083815260200190815260200160002060009054906101000a900473ffffffffffffffffffffffffffffffffffffffff169050919050565b600033905090565b612dbc83838360016138b7565b505050565b600080612dcd8461387a565b9050600073ffffffffffffffffffffffffffffffffffffffff168373ffffffffffffffffffffffffffffffffffffffff1614612e0f57612e0e818486613a7c565b5b600073ffffffffffffffffffffffffffffffffffffffff168173ffffffffffffffffffffffffffffffffffffffff1614612ea057612e516000856000806138b7565b6001600360008373ffffffffffffffffffffffffffffffffffffffff1673ffffffffffffffffffffffffffffffffffffffff168152602001908152602001600020600082825403925050819055505b600073ffffffffffffffffffffffffffffffffffffffff168573ffffffffffffffffffffffffffffffffffffffff1614612f23576001600360008773ffffffffffffffffffffffffffffffffffffffff1673ffffffffffffffffffffffffffffffffffffffff168152602001908152602001600020600082825401925050819055505b846002600086815260200190815260200160002060006101000a81548173ffffffffffffffffffffffffffffffffffffffff021916908373ffffffffffffffffffffffffffffffffffffffff160217905550838573ffffffffffffffffffffffffffffffffffffffff168273ffffffffffffffffffffffffffffffffffffffff167fddf252ad1be2c89b69c2b068fc378daa952ba7f163c4a11628f55a4df523b3ef60405160405180910390a4809150509392505050565b612fe3612da7565b73ffffffffffffffffffffffffffffffffffffffff16613001610f4f565b73ffffffffffffffffffffffffffffffffffffffff161461306057613024612da7565b6040517f118cdaa700000000000000000000000000000000000000000000000000000000815260040161305791906140cc565b60405180910390fd5b565b6000600760009054906101000a900473ffffffffffffffffffffffffffffffffffffffff16905081600760006101000a81548173ffffffffffffffffffffffffffffffffffffffff021916908373ffffffffffffffffffffffffffffffffffffffff1602179055508173ffffffffffffffffffffffffffffffffffffffff168173ffffffffffffffffffffffffffffffffffffffff167f8be0079c531659141344cd1fd0a4f28419497f9722a3daafe3b4186f6b6457e060405160405180910390a35050565b600073ffffffffffffffffffffffffffffffffffffffff168273ffffffffffffffffffffffffffffffffffffffff160361319957816040517f5b08ba1800000000000000000000000000000000000000000000000000000000815260040161319091906140cc565b60405180910390fd5b80600560008573ffffffffffffffffffffffffffffffffffffffff1673ffffffffffffffffffffffffffffffffffffffff16815260200190815260200160002060008473ffffffffffffffffffffffffffffffffffffffff1673ffffffffffffffffffffffffffffffffffffffff16815260200190815260200160002060006101000a81548160ff0219169083151502179055508173ffffffffffffffffffffffffffffffffffffffff168373ffffffffffffffffffffffffffffffffffffffff167f17307eab39ab6107e8899845ad3d59bd9653f200f220920489ca2b5937696c318360405161328a9190613f5b565b60405180910390a3505050565b600073ffffffffffffffffffffffffffffffffffffffff168273ffffffffffffffffffffffffffffffffffffffff16036133095760006040517f64a0ae9200000000000000000000000000000000000000000000000000000000815260040161330091906140cc565b60405180910390fd5b600061331783836000612dc1565b9050600073ffffffffffffffffffffffffffffffffffffffff168173ffffffffffffffffffffffffffffffffffffffff160361338a57816040517f7e273289000000000000000000000000000000000000000000000000000000008152600401613381919061418f565b60405180910390fd5b8373ffffffffffffffffffffffffffffffffffffffff168173ffffffffffffffffffffffffffffffffffffffff16146133fe578382826040517f64283d7b0000000000000000000000000000000000000000000000000000000081526004016133f593929190614d54565b60405180910390fd5b50505050565b600073ffffffffffffffffffffffffffffffffffffffff168273ffffffffffffffffffffffffffffffffffffffff16036134765760006040517f64a0ae9200000000000000000000000000000000000000000000000000000000815260040161346d91906140cc565b60405180910390fd5b600061348483836000612dc1565b9050600073ffffffffffffffffffffffffffffffffffffffff168173ffffffffffffffffffffffffffffffffffffffff16146134f85760006040517f73c6ac6e0000000000000000000000000000000000000000000000000000000081526004016134ef91906140cc565b60405180910390fd5b505050565b8060066000848152602001908152602001600020908161351d91906153f4565b507ff8e1a15aba9398e019f0b49df1a4fde98ee17ae345cb5f6b5e2c27f5033e8ce78260405161354d919061418f565b60405180910390a15050565b60008373ffffffffffffffffffffffffffffffffffffffff163b1115613703578273ffffffffffffffffffffffffffffffffffffffff1663150b7a02868685856040518563ffffffff1660e01b81526004016135b894939291906156bf565b6020604051808303816000875af19250505080156135f457506040513d601f19601f820116820180604052508101906135f19190615720565b60015b613678573d8060008114613624576040519150601f19603f3d011682016040523d82523d6000602084013e613629565b606091505b50600081510361367057836040517f64a0ae9200000000000000000000000000000000000000000000000000000000815260040161366791906140cc565b60405180910390fd5b805181602001fd5b63150b7a0260e01b7bffffffffffffffffffffffffffffffffffffffffffffffffffffffff1916817bffffffffffffffffffffffffffffffffffffffffffffffffffffffff19161461370157836040517f64a0ae920000000000000000000000000000000000000000000000000000000081526004016136f891906140cc565b60405180910390fd5b505b5050505050565b60006137196000836000612dc1565b9050600073ffffffffffffffffffffffffffffffffffffffff168173ffffffffffffffffffffffffffffffffffffffff160361378c57816040517f7e273289000000000000000000000000000000000000000000000000000000008152600401613783919061418f565b60405180910390fd5b5050565b606060405180602001604052806000815250905090565b60606137b282612ce2565b5060006137bd613790565b905060008151116137dd5760405180602001604052806000815250613808565b806137e784613b40565b6040516020016137f892919061556e565b6040516020818303038152906040525b915050919050565b60007f01ffc9a7000000000000000000000000000000000000000000000000000000007bffffffffffffffffffffffffffffffffffffffffffffffffffffffff1916827bffffffffffffffffffffffffffffffffffffffffffffffffffffffff1916149050919050565b60006002600083815260200190815260200160002060009054906101000a900473ffffffffffffffffffffffffffffffffffffffff169050919050565b80806138f05750600073ffffffffffffffffffffffffffffffffffffffff168273ffffffffffffffffffffffffffffffffffffffff1614155b15613a2457600061390084612ce2565b9050600073ffffffffffffffffffffffffffffffffffffffff168373ffffffffffffffffffffffffffffffffffffffff161415801561396b57508273ffffffffffffffffffffffffffffffffffffffff168173ffffffffffffffffffffffffffffffffffffffff1614155b801561397e575061397c81846129fc565b155b156139c057826040517fa9fbf51f0000000000000000000000000000000000000000000000000000000081526004016139b791906140cc565b60405180910390fd5b8115613a2257838573ffffffffffffffffffffffffffffffffffffffff168273ffffffffffffffffffffffffffffffffffffffff167f8c5be1e5ebec7d5bd14f71427d1e84f3dd0314c0f7b2291e5b200ac8c7c3b92560405160405180910390a45b505b836004600085815260200190815260200160002060006101000a81548173ffffffffffffffffffffffffffffffffffffffff021916908373ffffffffffffffffffffffffffffffffffffffff16021790555050505050565b613a87838383613c0e565b613b3b57600073ffffffffffffffffffffffffffffffffffffffff168373ffffffffffffffffffffffffffffffffffffffff1603613afc57806040517f7e273289000000000000000000000000000000000000000000000000000000008152600401613af3919061418f565b60405180910390fd5b81816040517f177e802f000000000000000000000000000000000000000000000000000000008152600401613b3292919061574d565b60405180910390fd5b505050565b606060006001613b4f84613ccf565b01905060008167ffffffffffffffff811115613b6e57613b6d614709565b5b6040519080825280601f01601f191660200182016040528015613ba05781602001600182028036833780820191505090505b509050600082602001820190505b600115613c03578080600190039150507f3031323334353637383961626364656600000000000000000000000000000000600a86061a8153600a8581613bf757613bf6615776565b5b04945060008503613bae575b819350505050919050565b60008073ffffffffffffffffffffffffffffffffffffffff168373ffffffffffffffffffffffffffffffffffffffff1614158015613cc657508273ffffffffffffffffffffffffffffffffffffffff168473ffffffffffffffffffffffffffffffffffffffff161480613c875750613c8684846129fc565b5b80613cc557508273ffffffffffffffffffffffffffffffffffffffff16613cad83612d6a565b73ffffffffffffffffffffffffffffffffffffffff16145b5b90509392505050565b600080600090507a184f03e93ff9f4daa797ed6e38ed64bf6a1f0100000000000000008310613d2d577a184f03e93ff9f4daa797ed6e38ed64bf6a1f0100000000000000008381613d2357613d22615776565b5b0492506040810190505b6d04ee2d6d415b85acef81000000008310613d6a576d04ee2d6d415b85acef81000000008381613d6057613d5f615776565b5b0492506020810190505b662386f26fc100008310613d9957662386f26fc100008381613d8f57613d8e615776565b5b0492506010810190505b6305f5e1008310613dc2576305f5e1008381613db857613db7615776565b5b0492506008810190505b6127108310613de7576127108381613ddd57613ddc615776565b5b0492506004810190505b60648310613e0a5760648381613e0057613dff615776565b5b0492506002810190505b600a8310613e19576001810190505b80915050919050565b6040518060800160405280606081526020016060815260200160608152602001606081525090565b508054613e5690614d23565b6000825580601f10613e685750613e87565b601f016020900490600052602060002090810190613e869190613e8a565b5b50565b5b80821115613ea3576000816000905550600101613e8b565b5090565b6000604051905090565b600080fd5b600080fd5b60007fffffffff0000000000000000000000000000000000000000000000000000000082169050919050565b613ef081613ebb565b8114613efb57600080fd5b50565b600081359050613f0d81613ee7565b92915050565b600060208284031215613f2957613f28613eb1565b5b6000613f3784828501613efe565b91505092915050565b60008115159050919050565b613f5581613f40565b82525050565b6000602082019050613f706000830184613f4c565b92915050565b600081519050919050565b600082825260208201905092915050565b60005b83811015613fb0578082015181840152602081019050613f95565b60008484015250505050565b6000601f19601f8301169050919050565b6000613fd882613f76565b613fe28185613f81565b9350613ff2818560208601613f92565b613ffb81613fbc565b840191505092915050565b600060208201905081810360008301526140208184613fcd565b905092915050565b6000819050919050565b61403b81614028565b811461404657600080fd5b50565b60008135905061405881614032565b92915050565b60006020828403121561407457614073613eb1565b5b600061408284828501614049565b91505092915050565b600073ffffffffffffffffffffffffffffffffffffffff82169050919050565b60006140b68261408b565b9050919050565b6140c6816140ab565b82525050565b60006020820190506140e160008301846140bd565b92915050565b6140f0816140ab565b81146140fb57600080fd5b50565b60008135905061410d816140e7565b92915050565b6000806040838503121561412a57614129613eb1565b5b6000614138858286016140fe565b925050602061414985828601614049565b9150509250929050565b60006020828403121561416957614168613eb1565b5b6000614177848285016140fe565b91505092915050565b61418981614028565b82525050565b60006020820190506141a46000830184614180565b92915050565b6000806000606084860312156141c3576141c2613eb1565b5b60006141d1868287016140fe565b93505060206141e2868287016140fe565b92505060406141f386828701614049565b9150509250925092565b600082825260208201905092915050565b600061421982613f76565b61422381856141fd565b9350614233818560208601613f92565b61423c81613fbc565b840191505092915050565b60006080830160008301518482036000860152614264828261420e565b9150506020830151848203602086015261427e828261420e565b91505060408301518482036040860152614298828261420e565b915050606083015184820360608601526142b2828261420e565b9150508091505092915050565b600060208201905081810360008301526142d98184614247565b905092915050565b600060808201905081810360008301526142fb8187613fcd565b9050818103602083015261430f8186613fcd565b905081810360408301526143238185613fcd565b905081810360608301526143378184613fcd565b905095945050505050565b600081519050919050565b600082825260208201905092915050565b6000819050602082019050919050565b61437781614028565b82525050565b6000614389838361436e565b60208301905092915050565b6000602082019050919050565b60006143ad82614342565b6143b7818561434d565b93506143c28361435e565b8060005b838110156143f35781516143da888261437d565b97506143e583614395565b9250506001810190506143c6565b5085935050505092915050565b6000602082019050818103600083015261441a81846143a2565b905092915050565b600081519050919050565b600082825260208201905092915050565b6000819050602082019050919050565b6000608083016000830151848203600086015261446b828261420e565b91505060208301518482036020860152614485828261420e565b9150506040830151848203604086015261449f828261420e565b915050606083015184820360608601526144b9828261420e565b9150508091505092915050565b60006144d2838361444e565b905092915050565b6000602082019050919050565b60006144f282614422565b6144fc818561442d565b93508360208202850161450e8561443e565b8060005b8581101561454a578484038952815161452b85826144c6565b9450614536836144da565b925060208a01995050600181019050614512565b50829750879550505050505092915050565b6000606082019050818103600083015261457681866143a2565b9050818103602083015261458a81856144e7565b9050818103604083015261459e81846143a2565b9050949350505050565b6000806000606084860312156145c1576145c0613eb1565b5b60006145cf86828701614049565b93505060206145e0868287016140fe565b92505060406145f186828701614049565b9150509250925092565b61460481613f40565b811461460f57600080fd5b50565b600081359050614621816145fb565b92915050565b6000806040838503121561463e5761463d613eb1565b5b600061464c858286016140fe565b925050602061465d85828601614612565b9150509250929050565b6000806000606084860312156146805761467f613eb1565b5b600061468e868287016140fe565b935050602061469f86828701614049565b92505060406146b086828701614049565b9150509250925092565b60006080820190506146cf60008301876140bd565b6146dc6020830186614180565b6146e96040830185614180565b6146f66060830184613f4c565b95945050505050565b600080fd5b600080fd5b7f4e487b7100000000000000000000000000000000000000000000000000000000600052604160045260246000fd5b61474182613fbc565b810181811067ffffffffffffffff821117156147605761475f614709565b5b80604052505050565b6000614773613ea7565b905061477f8282614738565b919050565b600067ffffffffffffffff82111561479f5761479e614709565b5b6147a882613fbc565b9050602081019050919050565b82818337600083830152505050565b60006147d76147d284614784565b614769565b9050828152602081018484840111156147f3576147f2614704565b5b6147fe8482856147b5565b509392505050565b600082601f83011261481b5761481a6146ff565b5b813561482b8482602086016147c4565b91505092915050565b600080600080600060a086880312156148505761484f613eb1565b5b600086013567ffffffffffffffff81111561486e5761486d613eb6565b5b61487a88828901614806565b955050602086013567ffffffffffffffff81111561489b5761489a613eb6565b5b6148a788828901614806565b945050604086013567ffffffffffffffff8111156148c8576148c7613eb6565b5b6148d488828901614806565b935050606086013567ffffffffffffffff8111156148f5576148f4613eb6565b5b61490188828901614806565b925050608086013567ffffffffffffffff81111561492257614921613eb6565b5b61492e88828901614806565b9150509295509295909350565b600067ffffffffffffffff82111561495657614955614709565b5b61495f82613fbc565b9050602081019050919050565b600061497f61497a8461493b565b614769565b90508281526020810184848401111561499b5761499a614704565b5b6149a68482856147b5565b509392505050565b600082601f8301126149c3576149c26146ff565b5b81356149d384826020860161496c565b91505092915050565b600080600080608085870312156149f6576149f5613eb1565b5b6000614a04878288016140fe565b9450506020614a15878288016140fe565b9350506040614a2687828801614049565b925050606085013567ffffffffffffffff811115614a4757614a46613eb6565b5b614a53878288016149ae565b91505092959194509250565b600067ffffffffffffffff821115614a7a57614a79614709565b5b602082029050602081019050919050565b600080fd5b6000614aa3614a9e84614a5f565b614769565b90508083825260208201905060208402830185811115614ac657614ac5614a8b565b5b835b81811015614aef5780614adb8882614049565b845260208401935050602081019050614ac8565b5050509392505050565b600082601f830112614b0e57614b0d6146ff565b5b8135614b1e848260208601614a90565b91505092915050565b600060208284031215614b3d57614b3c613eb1565b5b600082013567ffffffffffffffff811115614b5b57614b5a613eb6565b5b614b6784828501614af9565b91505092915050565b60006020820190508181036000830152614b8a81846144e7565b905092915050565b600080600080600060a08688031215614bae57614bad613eb1565b5b6000614bbc88828901614049565b955050602086013567ffffffffffffffff811115614bdd57614bdc613eb6565b5b614be988828901614806565b945050604086013567ffffffffffffffff811115614c0a57614c09613eb6565b5b614c1688828901614806565b935050606086013567ffffffffffffffff811115614c3757614c36613eb6565b5b614c4388828901614806565b925050608086013567ffffffffffffffff811115614c6457614c63613eb6565b5b614c7088828901614806565b9150509295509295909350565b6000606082019050614c926000830186613f4c565b614c9f60208301856140bd565b614cac6040830184614180565b949350505050565b60008060408385031215614ccb57614cca613eb1565b5b6000614cd9858286016140fe565b9250506020614cea858286016140fe565b9150509250929050565b7f4e487b7100000000000000000000000000000000000000000000000000000000600052602260045260246000fd5b60006002820490506001821680614d3b57607f821691505b602082108103614d4e57614d4d614cf4565b5b50919050565b6000606082019050614d6960008301866140bd565b614d766020830185614180565b614d8360408301846140bd565b949350505050565b7f4e487b7100000000000000000000000000000000000000000000000000000000600052603260045260246000fd5b7f4e487b7100000000000000000000000000000000000000000000000000000000600052601160045260246000fd5b6000614df482614028565b91507fffffffffffffffffffffffffffffffffffffffffffffffffffffffffffffffff8203614e2657614e25614dba565b5b600182019050919050565b6000614e3c82614028565b9150614e4783614028565b9250828203905081811115614e5f57614e5e614dba565b5b92915050565b7f4e6f7420796f757220627573696e657373206361726400000000000000000000600082015250565b6000614e9b601683613f81565b9150614ea682614e65565b602082019050919050565b60006020820190508181036000830152614eca81614e8e565b9050919050565b7f4361726420697320616c72656164792072656e74656400000000000000000000600082015250565b6000614f07601683613f81565b9150614f1282614ed1565b602082019050919050565b60006020820190508181036000830152614f3681614efa565b9050919050565b7f4475726174696f6e206d7573742062652067726561746572207468616e203000600082015250565b6000614f73601f83613f81565b9150614f7e82614f3d565b602082019050919050565b60006020820190508181036000830152614fa281614f66565b9050919050565b6000614fb482614028565b9150614fbf83614028565b9250828201905080821115614fd757614fd6614dba565b5b92915050565b6000604082019050614ff26000830185614180565b614fff6020830184614180565b9392505050565b7f4f6e6c79206f776e6572206f722072656e7465722063616e20656e642072656e60008201527f74616c0000000000000000000000000000000000000000000000000000000000602082015250565b6000615062602383613f81565b915061506d82615006565b604082019050919050565b6000602082019050818103600083015261509181615055565b9050919050565b7f4e6f206163746976652072656e74616c00000000000000000000000000000000600082015250565b60006150ce601083613f81565b91506150d982615098565b602082019050919050565b600060208201905081810360008301526150fd816150c1565b9050919050565b7f596f75206d757374206f776e20796f7572206361726400000000000000000000600082015250565b600061513a601683613f81565b915061514582615104565b602082019050919050565b600060208201905081810360008301526151698161512d565b9050919050565b7f54686579206d757374206f776e20746865697220636172640000000000000000600082015250565b60006151a6601883613f81565b91506151b182615170565b602082019050919050565b600060208201905081810360008301526151d581615199565b9050919050565b7f416c7265616479206f776e73206120627573696e657373206361726400000000600082015250565b6000615212601c83613f81565b915061521d826151dc565b602082019050919050565b6000602082019050818103600083015261524181615205565b9050919050565b60008190508160005260206000209050919050565b60006020601f8301049050919050565b600082821b905092915050565b6000600883026152aa7fffffffffffffffffffffffffffffffffffffffffffffffffffffffffffffffff8261526d565b6152b4868361526d565b95508019841693508086168417925050509392505050565b6000819050919050565b60006152f16152ec6152e784614028565b6152cc565b614028565b9050919050565b6000819050919050565b61530b836152d6565b61531f615317826152f8565b84845461527a565b825550505050565b600090565b615334615327565b61533f818484615302565b505050565b5b818110156153635761535860008261532c565b600181019050615345565b5050565b601f8211156153a85761537981615248565b6153828461525d565b81016020851015615391578190505b6153a561539d8561525d565b830182615344565b50505b505050565b600082821c905092915050565b60006153cb600019846008026153ad565b1980831691505092915050565b60006153e483836153ba565b9150826002028217905092915050565b6153fd82613f76565b67ffffffffffffffff81111561541657615415614709565b5b6154208254614d23565b61542b828285615367565b600060209050601f83116001811461545e576000841561544c578287015190505b61545685826153d8565b8655506154be565b601f19841661546c86615248565b60005b828110156154945784890151825560018201915060208501945060208101905061546f565b868310156154b157848901516154ad601f8916826153ba565b8355505b6001600288020188555050505b505050505050565b7f596f7520646f6e2774206f776e20746869732063617264000000000000000000600082015250565b60006154fc601783613f81565b9150615507826154c6565b602082019050919050565b6000602082019050818103600083015261552b816154ef565b9050919050565b600081905092915050565b600061554882613f76565b6155528185615532565b9350615562818560208601613f92565b80840191505092915050565b600061557a828561553d565b9150615586828461553d565b91508190509392505050565b7f4e6f7420617574686f72697a6564000000000000000000000000000000000000600082015250565b60006155c8600e83613f81565b91506155d382615592565b602082019050919050565b600060208201905081810360008301526155f7816155bb565b9050919050565b7f4e6f7420617574686f72697a656420746f2073656e6420746869732063617264600082015250565b6000615634602083613f81565b915061563f826155fe565b602082019050919050565b6000602082019050818103600083015261566381615627565b9050919050565b600081519050919050565b600082825260208201905092915050565b60006156918261566a565b61569b8185615675565b93506156ab818560208601613f92565b6156b481613fbc565b840191505092915050565b60006080820190506156d460008301876140bd565b6156e160208301866140bd565b6156ee6040830185614180565b81810360608301526157008184615686565b905095945050505050565b60008151905061571a81613ee7565b92915050565b60006020828403121561573657615735613eb1565b5b60006157448482850161570b565b91505092915050565b600060408201905061576260008301856140bd565b61576f6020830184614180565b9392505050565b7f4e487b7100000000000000000000000000000000000000000000000000000000600052601260045260246000fdfea2646970667358221220eb48caa52c7b9effc4236b971a9cb10f0b1056ddb44a91e70c964c20896735f264736f6c634300081c0033",
  "linkReferences": {},
  "deployedLinkReferences": {}
}