{
  "_format": "hh-sol-artifact-1",
  "contractName": "BusinessCard",
  "sourceName": "contracts/BusinessCard.sol",
  "abi": [
    {
      "inputs": [],
      "stateMutability": "nonpayable",
      "type": "constructor"
    },
    {
      "inputs": [
        {
          "internalType": "address",
          "name": "sender",
          "type": "address"
        },
        {
          "internalType": "uint256",
          "name": "tokenId",
          "type": "uint256"
        },
        {
          "internalType": "address",
          "name": "owner",
          "type": "address"
        }
      ],
      "name": "ERC721IncorrectOwner",
      "type": "error"
    },
    {
      "inputs": [
        {
          "internalType": "address",
          "name": "operator",
          "type": "address"
        },
        {
          "internalType": "uint256",
          "name": "tokenId",
          "type": "uint256"
        }
      ],
      "name": "ERC721InsufficientApproval",
      "type": "error"
    },
    {
      "inputs": [
        {
          "internalType": "address",
          "name": "approver",
          "type": "address"
        }
      ],
      "name": "ERC721InvalidApprover",
      "type": "error"
    },
    {
      "inputs": [
        {
          "internalType": "address",
          "name": "operator",
          "type": "address"
        }
      ],
      "name": "ERC721InvalidOperator",
      "type": "error"
    },
    {
      "inputs": [
        {
          "internalType": "address",
          "name": "owner",
          "type": "address"
        }
      ],
      "name": "ERC721InvalidOwner",
      "type": "error"
    },
    {
      "inputs": [
        {
          "internalType": "address",
          "name": "receiver",
          "type": "address"
        }
      ],
      "name": "ERC721InvalidReceiver",
      "type": "error"
    },
    {
      "inputs": [
        {
          "internalType": "address",
          "name": "sender",
          "type": "address"
        }
      ],
      "name": "ERC721InvalidSender",
      "type": "error"
    },
    {
      "inputs": [
        {
          "internalType": "uint256",
          "name": "tokenId",
          "type": "uint256"
        }
      ],
      "name": "ERC721NonexistentToken",
      "type": "error"
    },
    {
      "inputs": [
        {
          "internalType": "address",
          "name": "owner",
          "type": "address"
        }
      ],
      "name": "OwnableInvalidOwner",
      "type": "error"
    },
    {
      "inputs": [
        {
          "internalType": "address",
          "name": "account",
          "type": "address"
        }
      ],
      "name": "OwnableUnauthorizedAccount",
      "type": "error"
    },
    {
      "anonymous": false,
      "inputs": [
        {
          "indexed": true,
          "internalType": "address",
          "name": "owner",
          "type": "address"
        },
        {
          "indexed": true,
          "internalType": "address",
          "name": "approved",
          "type": "address"
        },
        {
          "indexed": true,
          "internalType": "uint256",
          "name": "tokenId",
          "type": "uint256"
        }
      ],
      "name": "Approval",
      "type": "event"
    },
    {
      "anonymous": false,
      "inputs": [
        {
          "indexed": true,
          "internalType": "address",
          "name": "owner",
          "type": "address"
        },
        {
          "indexed": true,
          "internalType": "address",
          "name": "operator",
          "type": "address"
        },
        {
          "indexed": false,
          "internalType": "bool",
          "name": "approved",
          "type": "bool"
        }
      ],
      "name": "ApprovalForAll",
      "type": "event"
    },
    {
      "anonymous": false,
      "inputs": [
        {
          "indexed": false,
          "internalType": "uint256",
          "name": "_fromTokenId",
          "type": "uint256"
        },
        {
          "indexed": false,
          "internalType": "uint256",
          "name": "_toTokenId",
          "type": "uint256"
        }
      ],
      "name": "BatchMetadataUpdate",
      "type": "event"
    },
    {
      "anonymous": false,
      "inputs": [
        {
          "indexed": true,
          "internalType": "address",
          "name": "owner",
          "type": "address"
        },
        {
          "indexed": true,
          "internalType": "uint256",
          "name": "cardId",
          "type": "uint256"
        }
      ],
      "name": "BusinessCardMinted",
      "type": "event"
    },
    {
      "anonymous": false,
      "inputs": [
        {
          "indexed": true,
          "internalType": "address",
          "name": "from",
          "type": "address"
        },
        {
          "indexed": true,
          "internalType": "address",
          "name": "to",
          "type": "address"
        },
        {
          "indexed": false,
          "internalType": "uint256",
          "name": "cardId",
          "type": "uint256"
        }
      ],
      "name": "BusinessCardSent",
      "type": "event"
    },
    {
      "anonymous": false,
      "inputs": [
        {
          "indexed": true,
          "internalType": "address",
          "name": "from",
          "type": "address"
        },
        {
          "indexed": true,
          "internalType": "address",
          "name": "to",
          "type": "address"
        },
        {
          "indexed": false,
          "internalType": "uint256",
          "name": "myCardId",
          "type": "uint256"
        }
      ],
      "name": "BusinessCardTraded",
      "type": "event"
    },
    {
      "anonymous": false,
      "inputs": [
        {
          "indexed": true,
          "internalType": "address",
          "name": "owner",
          "type": "address"
        },
        {
          "indexed": true,
          "internalType": "uint256",
          "name": "cardId",
          "type": "uint256"
        }
      ],
      "name": "BusinessCardUpdated",
      "type": "event"
    },
    {
      "anonymous": false,
      "inputs": [
        {
          "indexed": false,
          "internalType": "uint256",
          "name": "_tokenId",
          "type": "uint256"
        }
      ],
      "name": "MetadataUpdate",
      "type": "event"
    },
    {
      "anonymous": false,
      "inputs": [
        {
          "indexed": true,
          "internalType": "address",
          "name": "previousOwner",
          "type": "address"
        },
        {
          "indexed": true,
          "internalType": "address",
          "name": "newOwner",
          "type": "address"
        }
      ],
      "name": "OwnershipTransferred",
      "type": "event"
    },
    {
      "anonymous": false,
      "inputs": [
        {
          "indexed": true,
          "internalType": "address",
          "name": "from",
          "type": "address"
        },
        {
          "indexed": true,
          "internalType": "address",
          "name": "to",
          "type": "address"
        },
        {
          "indexed": true,
          "internalType": "uint256",
          "name": "tokenId",
          "type": "uint256"
        }
      ],
      "name": "Transfer",
      "type": "event"
    },
    {
      "inputs": [
        {
          "internalType": "address",
          "name": "to",
          "type": "address"
        },
        {
          "internalType": "uint256",
          "name": "tokenId",
          "type": "uint256"
        }
      ],
      "name": "approve",
      "outputs": [],
      "stateMutability": "nonpayable",
      "type": "function"
    },
    {
      "inputs": [
        {
          "internalType": "address",
          "name": "owner",
          "type": "address"
        }
      ],
      "name": "balanceOf",
      "outputs": [
        {
          "internalType": "uint256",
          "name": "",
          "type": "uint256"
        }
      ],
      "stateMutability": "view",
      "type": "function"
    },
    {
      "inputs": [
        {
          "internalType": "uint256",
          "name": "_cardId",
          "type": "uint256"
        }
      ],
      "name": "burnCard",
      "outputs": [],
      "stateMutability": "nonpayable",
      "type": "function"
    },
    {
      "inputs": [
        {
          "internalType": "uint256",
          "name": "",
          "type": "uint256"
        }
      ],
      "name": "businessCards",
      "outputs": [
        {
          "internalType": "string",
          "name": "name",
          "type": "string"
        },
        {
          "internalType": "string",
          "name": "title",
          "type": "string"
        },
        {
          "internalType": "string",
          "name": "company",
          "type": "string"
        },
        {
          "internalType": "string",
          "name": "contactInfo",
          "type": "string"
        }
      ],
      "stateMutability": "view",
      "type": "function"
    },
    {
      "inputs": [
        {
          "internalType": "uint256",
          "name": "tokenId",
          "type": "uint256"
        }
      ],
      "name": "getApproved",
      "outputs": [
        {
          "internalType": "address",
          "name": "",
          "type": "address"
        }
      ],
      "stateMutability": "view",
      "type": "function"
    },
    {
      "inputs": [
        {
          "internalType": "uint256",
          "name": "_cardId",
          "type": "uint256"
        }
      ],
      "name": "getBusinessCard",
      "outputs": [
        {
          "components": [
            {
              "internalType": "string",
              "name": "name",
              "type": "string"
            },
            {
              "internalType": "string",
              "name": "title",
              "type": "string"
            },
            {
              "internalType": "string",
              "name": "company",
              "type": "string"
            },
            {
              "internalType": "string",
              "name": "contactInfo",
              "type": "string"
            }
          ],
          "internalType": "struct BusinessCard.CardDetails",
          "name": "",
          "type": "tuple"
        }
      ],
      "stateMutability": "view",
      "type": "function"
    },
    {
      "inputs": [
        {
          "internalType": "address",
          "name": "owner",
          "type": "address"
        },
        {
          "internalType": "address",
          "name": "operator",
          "type": "address"
        }
      ],
      "name": "isApprovedForAll",
      "outputs": [
        {
          "internalType": "bool",
          "name": "",
          "type": "bool"
        }
      ],
      "stateMutability": "view",
      "type": "function"
    },
    {
      "inputs": [
        {
          "internalType": "string",
          "name": "_name",
          "type": "string"
        },
        {
          "internalType": "string",
          "name": "_title",
          "type": "string"
        },
        {
          "internalType": "string",
          "name": "_company",
          "type": "string"
        },
        {
          "internalType": "string",
          "name": "_contactInfo",
          "type": "string"
        },
        {
          "internalType": "string",
          "name": "_tokenURI",
          "type": "string"
        }
      ],
      "name": "mintBusinessCard",
      "outputs": [],
      "stateMutability": "nonpayable",
      "type": "function"
    },
    {
      "inputs": [],
      "name": "name",
      "outputs": [
        {
          "internalType": "string",
          "name": "",
          "type": "string"
        }
      ],
      "stateMutability": "view",
      "type": "function"
    },
    {
      "inputs": [],
      "name": "owner",
      "outputs": [
        {
          "internalType": "address",
          "name": "",
          "type": "address"
        }
      ],
      "stateMutability": "view",
      "type": "function"
    },
    {
      "inputs": [
        {
          "internalType": "uint256",
          "name": "tokenId",
          "type": "uint256"
        }
      ],
      "name": "ownerOf",
      "outputs": [
        {
          "internalType": "address",
          "name": "",
          "type": "address"
        }
      ],
      "stateMutability": "view",
      "type": "function"
    },
    {
      "inputs": [
        {
          "internalType": "address",
          "name": "",
          "type": "address"
        },
        {
          "internalType": "uint256",
          "name": "",
          "type": "uint256"
        }
      ],
      "name": "receivedCards",
      "outputs": [
        {
          "internalType": "bool",
          "name": "",
          "type": "bool"
        }
      ],
      "stateMutability": "view",
      "type": "function"
    },
    {
      "inputs": [],
      "name": "renounceOwnership",
      "outputs": [],
      "stateMutability": "nonpayable",
      "type": "function"
    },
    {
      "inputs": [
        {
          "internalType": "address",
          "name": "from",
          "type": "address"
        },
        {
          "internalType": "address",
          "name": "to",
          "type": "address"
        },
        {
          "internalType": "uint256",
          "name": "tokenId",
          "type": "uint256"
        }
      ],
      "name": "safeTransferFrom",
      "outputs": [],
      "stateMutability": "nonpayable",
      "type": "function"
    },
    {
      "inputs": [
        {
          "internalType": "address",
          "name": "from",
          "type": "address"
        },
        {
          "internalType": "address",
          "name": "to",
          "type": "address"
        },
        {
          "internalType": "uint256",
          "name": "tokenId",
          "type": "uint256"
        },
        {
          "internalType": "bytes",
          "name": "data",
          "type": "bytes"
        }
      ],
      "name": "safeTransferFrom",
      "outputs": [],
      "stateMutability": "nonpayable",
      "type": "function"
    },
    {
      "inputs": [
        {
          "internalType": "address",
          "name": "_to",
          "type": "address"
        },
        {
          "internalType": "uint256",
          "name": "_cardId",
          "type": "uint256"
        }
      ],
      "name": "sendBusinessCard",
      "outputs": [],
      "stateMutability": "nonpayable",
      "type": "function"
    },
    {
      "inputs": [
        {
          "internalType": "address",
          "name": "operator",
          "type": "address"
        },
        {
          "internalType": "bool",
          "name": "approved",
          "type": "bool"
        }
      ],
      "name": "setApprovalForAll",
      "outputs": [],
      "stateMutability": "nonpayable",
      "type": "function"
    },
    {
      "inputs": [
        {
          "internalType": "bytes4",
          "name": "interfaceId",
          "type": "bytes4"
        }
      ],
      "name": "supportsInterface",
      "outputs": [
        {
          "internalType": "bool",
          "name": "",
          "type": "bool"
        }
      ],
      "stateMutability": "view",
      "type": "function"
    },
    {
      "inputs": [],
      "name": "symbol",
      "outputs": [
        {
          "internalType": "string",
          "name": "",
          "type": "string"
        }
      ],
      "stateMutability": "view",
      "type": "function"
    },
    {
      "inputs": [
        {
          "internalType": "uint256",
          "name": "tokenId",
          "type": "uint256"
        }
      ],
      "name": "tokenURI",
      "outputs": [
        {
          "internalType": "string",
          "name": "",
          "type": "string"
        }
      ],
      "stateMutability": "view",
      "type": "function"
    },
    {
      "inputs": [
        {
          "internalType": "address",
          "name": "_recipient",
          "type": "address"
        },
        {
          "internalType": "uint256",
          "name": "_myCardId",
          "type": "uint256"
        }
      ],
      "name": "tradeCardViaQR",
      "outputs": [],
      "stateMutability": "nonpayable",
      "type": "function"
    },
    {
      "inputs": [
        {
          "internalType": "address",
          "name": "_with",
          "type": "address"
        },
        {
          "internalType": "uint256",
          "name": "_myCardId",
          "type": "uint256"
        },
        {
          "internalType": "uint256",
          "name": "_theirCardId",
          "type": "uint256"
        }
      ],
      "name": "tradeCards",
      "outputs": [],
      "stateMutability": "nonpayable",
      "type": "function"
    },
    {
      "inputs": [
        {
          "internalType": "address",
          "name": "from",
          "type": "address"
        },
        {
          "internalType": "address",
          "name": "to",
          "type": "address"
        },
        {
          "internalType": "uint256",
          "name": "tokenId",
          "type": "uint256"
        }
      ],
      "name": "transferFrom",
      "outputs": [],
      "stateMutability": "nonpayable",
      "type": "function"
    },
    {
      "inputs": [
        {
          "internalType": "address",
          "name": "newOwner",
          "type": "address"
        }
      ],
      "name": "transferOwnership",
      "outputs": [],
      "stateMutability": "nonpayable",
      "type": "function"
    },
    {
      "inputs": [
        {
          "internalType": "uint256",
          "name": "_cardId",
          "type": "uint256"
        },
        {
          "internalType": "string",
          "name": "_title",
          "type": "string"
        },
        {
          "internalType": "string",
          "name": "_company",
          "type": "string"
        },
        {
          "internalType": "string",
          "name": "_contactInfo",
          "type": "string"
        },
        {
          "internalType": "string",
          "name": "_tokenURI",
          "type": "string"
        }
      ],
      "name": "updateBusinessCard",
      "outputs": [],
      "stateMutability": "nonpayable",
      "type": "function"
    },
    {
      "inputs": [
        {
          "internalType": "address",
          "name": "",
          "type": "address"
        }
      ],
      "name": "userCard",
      "outputs": [
        {
          "internalType": "uint256",
          "name": "",
          "type": "uint256"
        }
      ],
      "stateMutability": "view",
      "type": "function"
    }
  ],
  "bytecode": "0x608060405234801561001057600080fd5b50336040518060400160405280600c81526020017f427573696e6573734361726400000000000000000000000000000000000000008152506040518060400160405280600581526020017f4243415244000000000000000000000000000000000000000000000000000000815250816000908161008d919061043d565b50806001908161009d919061043d565b505050600073ffffffffffffffffffffffffffffffffffffffff168173ffffffffffffffffffffffffffffffffffffffff16036101125760006040517f1e4fbdf70000000000000000000000000000000000000000000000000000000081526004016101099190610550565b60405180910390fd5b6101218161012760201b60201c565b5061056b565b6000600760009054906101000a900473ffffffffffffffffffffffffffffffffffffffff16905081600760006101000a81548173ffffffffffffffffffffffffffffffffffffffff021916908373ffffffffffffffffffffffffffffffffffffffff1602179055508173ffffffffffffffffffffffffffffffffffffffff168173ffffffffffffffffffffffffffffffffffffffff167f8be0079c531659141344cd1fd0a4f28419497f9722a3daafe3b4186f6b6457e060405160405180910390a35050565b600081519050919050565b7f4e487b7100000000000000000000000000000000000000000000000000000000600052604160045260246000fd5b7f4e487b7100000000000000000000000000000000000000000000000000000000600052602260045260246000fd5b6000600282049050600182168061026e57607f821691505b60208210810361028157610280610227565b5b50919050565b60008190508160005260206000209050919050565b60006020601f8301049050919050565b600082821b905092915050565b6000600883026102e97fffffffffffffffffffffffffffffffffffffffffffffffffffffffffffffffff826102ac565b6102f386836102ac565b95508019841693508086168417925050509392505050565b6000819050919050565b6000819050919050565b600061033a6103356103308461030b565b610315565b61030b565b9050919050565b6000819050919050565b6103548361031f565b61036861036082610341565b8484546102b9565b825550505050565b600090565b61037d610370565b61038881848461034b565b505050565b5b818110156103ac576103a1600082610375565b60018101905061038e565b5050565b601f8211156103f1576103c281610287565b6103cb8461029c565b810160208510156103da578190505b6103ee6103e68561029c565b83018261038d565b50505b505050565b600082821c905092915050565b6000610414600019846008026103f6565b1980831691505092915050565b600061042d8383610403565b9150826002028217905092915050565b610446826101ed565b67ffffffffffffffff81111561045f5761045e6101f8565b5b6104698254610256565b6104748282856103b0565b600060209050601f8311600181146104a75760008415610495578287015190505b61049f8582610421565b865550610507565b601f1984166104b586610287565b60005b828110156104dd578489015182556001820191506020850194506020810190506104b8565b868310156104fa57848901516104f6601f891682610403565b8355505b6001600288020188555050505b505050505050565b600073ffffffffffffffffffffffffffffffffffffffff82169050919050565b600061053a8261050f565b9050919050565b61054a8161052f565b82525050565b60006020820190506105656000830184610541565b92915050565b613c4a8061057a6000396000f3fe608060405234801561001057600080fd5b506004361061018e5760003560e01c806395d89b41116100de578063c39c77a211610097578063dc3ad23c11610071578063dc3ad23c146104a6578063e985e9c5146104c2578063f2fde38b146104f2578063fd3effcd1461050e5761018e565b8063c39c77a21461042a578063c87b56dd1461045a578063d2e9c45f1461048a5761018e565b806395d89b4114610380578063a22cb4651461039e578063a7344e7e146103ba578063b2d5cc87146103d6578063b88d4fde146103f2578063ba7e7d051461040e5761018e565b8063277ce8ec1161014b5780636352211e116101255780636352211e146102f857806370a0823114610328578063715018a6146103585780638da5cb5b146103625761018e565b8063277ce8ec1461027957806342842e0e146102a95780635c9dcfdf146102c55761018e565b806301ffc9a71461019357806306fdde03146101c3578063081812fc146101e1578063095ea7b31461021157806311e204941461022d57806323b872dd1461025d575b600080fd5b6101ad60048036038101906101a89190612b58565b61052a565b6040516101ba9190612ba0565b60405180910390f35b6101cb61058b565b6040516101d89190612c4b565b60405180910390f35b6101fb60048036038101906101f69190612ca3565b61061d565b6040516102089190612d11565b60405180910390f35b61022b60048036038101906102269190612d58565b610639565b005b61024760048036038101906102429190612d98565b61064f565b6040516102549190612dd4565b60405180910390f35b61027760048036038101906102729190612def565b610667565b005b610293600480360381019061028e9190612ca3565b610769565b6040516102a09190612f04565b60405180910390f35b6102c360048036038101906102be9190612def565b6109de565b005b6102df60048036038101906102da9190612ca3565b6109fe565b6040516102ef9493929190612f26565b60405180910390f35b610312600480360381019061030d9190612ca3565b610c4e565b60405161031f9190612d11565b60405180910390f35b610342600480360381019061033d9190612d98565b610c60565b60405161034f9190612dd4565b60405180910390f35b610360610d1a565b005b61036a610d2e565b6040516103779190612d11565b60405180910390f35b610388610d58565b6040516103959190612c4b565b60405180910390f35b6103b860048036038101906103b39190612fb3565b610dea565b005b6103d460048036038101906103cf9190612ff3565b610e00565b005b6103f060048036038101906103eb919061317b565b610f6c565b005b61040c60048036038101906104079190613323565b611140565b005b61042860048036038101906104239190612ca3565b611165565b005b610444600480360381019061043f9190612d58565b611280565b6040516104519190612ba0565b60405180910390f35b610474600480360381019061046f9190612ca3565b6112af565b6040516104819190612c4b565b60405180910390f35b6104a4600480360381019061049f91906133a6565b6113c2565b005b6104c060048036038101906104bb9190612d58565b6114f9565b005b6104dc60048036038101906104d79190613491565b611641565b6040516104e99190612ba0565b60405180910390f35b61050c60048036038101906105079190612d98565b6116d5565b005b61052860048036038101906105239190612d58565b61175b565b005b6000634906490660e01b7bffffffffffffffffffffffffffffffffffffffffffffffffffffffff1916827bffffffffffffffffffffffffffffffffffffffffffffffffffffffff19161480610584575061058382611845565b5b9050919050565b60606000805461059a90613500565b80601f01602080910402602001604051908101604052809291908181526020018280546105c690613500565b80156106135780601f106105e857610100808354040283529160200191610613565b820191906000526020600020905b8154815290600101906020018083116105f657829003601f168201915b5050505050905090565b600061062882611927565b50610632826119af565b9050919050565b61064b82826106466119ec565b6119f4565b5050565b600a6020528060005260406000206000915090505481565b600073ffffffffffffffffffffffffffffffffffffffff168273ffffffffffffffffffffffffffffffffffffffff16036106d95760006040517f64a0ae920000000000000000000000000000000000000000000000000000000081526004016106d09190612d11565b60405180910390fd5b60006106ed83836106e86119ec565b611a06565b90508373ffffffffffffffffffffffffffffffffffffffff168173ffffffffffffffffffffffffffffffffffffffff1614610763578382826040517f64283d7b00000000000000000000000000000000000000000000000000000000815260040161075a93929190613531565b60405180910390fd5b50505050565b610771612a67565b6009600083815260200190815260200160002060405180608001604052908160008201805461079f90613500565b80601f01602080910402602001604051908101604052809291908181526020018280546107cb90613500565b80156108185780601f106107ed57610100808354040283529160200191610818565b820191906000526020600020905b8154815290600101906020018083116107fb57829003601f168201915b5050505050815260200160018201805461083190613500565b80601f016020809104026020016040519081016040528092919081815260200182805461085d90613500565b80156108aa5780601f1061087f576101008083540402835291602001916108aa565b820191906000526020600020905b81548152906001019060200180831161088d57829003601f168201915b505050505081526020016002820180546108c390613500565b80601f01602080910402602001604051908101604052809291908181526020018280546108ef90613500565b801561093c5780601f106109115761010080835404028352916020019161093c565b820191906000526020600020905b81548152906001019060200180831161091f57829003601f168201915b5050505050815260200160038201805461095590613500565b80601f016020809104026020016040519081016040528092919081815260200182805461098190613500565b80156109ce5780601f106109a3576101008083540402835291602001916109ce565b820191906000526020600020905b8154815290600101906020018083116109b157829003601f168201915b5050505050815250509050919050565b6109f983838360405180602001604052806000815250611140565b505050565b6009602052806000526040600020600091509050806000018054610a2190613500565b80601f0160208091040260200160405190810160405280929190818152602001828054610a4d90613500565b8015610a9a5780601f10610a6f57610100808354040283529160200191610a9a565b820191906000526020600020905b815481529060010190602001808311610a7d57829003601f168201915b505050505090806001018054610aaf90613500565b80601f0160208091040260200160405190810160405280929190818152602001828054610adb90613500565b8015610b285780601f10610afd57610100808354040283529160200191610b28565b820191906000526020600020905b815481529060010190602001808311610b0b57829003601f168201915b505050505090806002018054610b3d90613500565b80601f0160208091040260200160405190810160405280929190818152602001828054610b6990613500565b8015610bb65780601f10610b8b57610100808354040283529160200191610bb6565b820191906000526020600020905b815481529060010190602001808311610b9957829003601f168201915b505050505090806003018054610bcb90613500565b80601f0160208091040260200160405190810160405280929190818152602001828054610bf790613500565b8015610c445780601f10610c1957610100808354040283529160200191610c44565b820191906000526020600020905b815481529060010190602001808311610c2757829003601f168201915b5050505050905084565b6000610c5982611927565b9050919050565b60008073ffffffffffffffffffffffffffffffffffffffff168273ffffffffffffffffffffffffffffffffffffffff1603610cd35760006040517f89c62b64000000000000000000000000000000000000000000000000000000008152600401610cca9190612d11565b60405180910390fd5b600360008373ffffffffffffffffffffffffffffffffffffffff1673ffffffffffffffffffffffffffffffffffffffff168152602001908152602001600020549050919050565b610d22611c20565b610d2c6000611ca7565b565b6000600760009054906101000a900473ffffffffffffffffffffffffffffffffffffffff16905090565b606060018054610d6790613500565b80601f0160208091040260200160405190810160405280929190818152602001828054610d9390613500565b8015610de05780601f10610db557610100808354040283529160200191610de0565b820191906000526020600020905b815481529060010190602001808311610dc357829003601f168201915b5050505050905090565b610dfc610df56119ec565b8383611d6d565b5050565b3373ffffffffffffffffffffffffffffffffffffffff16610e2083610c4e565b73ffffffffffffffffffffffffffffffffffffffff1614610e76576040517f08c379a0000000000000000000000000000000000000000000000000000000008152600401610e6d906135b4565b60405180910390fd5b8273ffffffffffffffffffffffffffffffffffffffff16610e9682610c4e565b73ffffffffffffffffffffffffffffffffffffffff1614610eec576040517f08c379a0000000000000000000000000000000000000000000000000000000008152600401610ee390613620565b60405180910390fd5b610ef7338484611edc565b610f02833383611edc565b8273ffffffffffffffffffffffffffffffffffffffff163373ffffffffffffffffffffffffffffffffffffffff167f24a3be0c5c512b15349ba426cca0182f3031c022d4022ef20349c1e5df66903884604051610f5f9190612dd4565b60405180910390a3505050565b6000600a60003373ffffffffffffffffffffffffffffffffffffffff1673ffffffffffffffffffffffffffffffffffffffff1681526020019081526020016000205414610fee576040517f08c379a0000000000000000000000000000000000000000000000000000000008152600401610fe59061368c565b60405180910390fd5b60086000815480929190611001906136db565b91905055506000600854905060405180608001604052808781526020018681526020018581526020018481525060096000838152602001908152602001600020600082015181600001908161105691906138cf565b50602082015181600101908161106c91906138cf565b50604082015181600201908161108291906138cf565b50606082015181600301908161109891906138cf565b5090505080600a60003373ffffffffffffffffffffffffffffffffffffffff1673ffffffffffffffffffffffffffffffffffffffff168152602001908152602001600020819055506110ea3382612049565b6110f48183612142565b803373ffffffffffffffffffffffffffffffffffffffff167f8793df92035bc0aa685973f692a332924aae0a3a8a46c48cea13e205c1897f0760405160405180910390a3505050505050565b61114b848484610667565b61115f6111566119ec565b8585858561219e565b50505050565b3373ffffffffffffffffffffffffffffffffffffffff1661118582610c4e565b73ffffffffffffffffffffffffffffffffffffffff16146111db576040517f08c379a00000000000000000000000000000000000000000000000000000000081526004016111d2906139ed565b60405180910390fd5b60096000828152602001908152602001600020600080820160006111ff9190612a8f565b60018201600061120f9190612a8f565b60028201600061121f9190612a8f565b60038201600061122f9190612a8f565b5050600a60003373ffffffffffffffffffffffffffffffffffffffff1673ffffffffffffffffffffffffffffffffffffffff1681526020019081526020016000206000905561127d8161234f565b50565b600b6020528160005260406000206020528060005260406000206000915091509054906101000a900460ff1681565b60606112ba82611927565b5060006006600084815260200190815260200160002080546112db90613500565b80601f016020809104026020016040519081016040528092919081815260200182805461130790613500565b80156113545780601f1061132957610100808354040283529160200191611354565b820191906000526020600020905b81548152906001019060200180831161133757829003601f168201915b5050505050905060006113656123d5565b9050600081510361137a5781925050506113bd565b6000825111156113af578082604051602001611397929190613a49565b604051602081830303815290604052925050506113bd565b6113b8846123ec565b925050505b919050565b3373ffffffffffffffffffffffffffffffffffffffff166113e286610c4e565b73ffffffffffffffffffffffffffffffffffffffff1614611438576040517f08c379a000000000000000000000000000000000000000000000000000000000815260040161142f90613ab9565b60405180910390fd5b8360096000878152602001908152602001600020600101908161145b91906138cf565b508260096000878152602001908152602001600020600201908161147f91906138cf565b50816009600087815260200190815260200160002060030190816114a391906138cf565b506114ae8582612142565b843373ffffffffffffffffffffffffffffffffffffffff167feded767027901935a7d774cbd93ad76c46cd00f5009ec95e7ec02f7c904102aa60405160405180910390a35050505050565b3373ffffffffffffffffffffffffffffffffffffffff1661151982610c4e565b73ffffffffffffffffffffffffffffffffffffffff161461156f576040517f08c379a0000000000000000000000000000000000000000000000000000000008152600401611566906139ed565b60405180910390fd5b6001600b60008473ffffffffffffffffffffffffffffffffffffffff1673ffffffffffffffffffffffffffffffffffffffff168152602001908152602001600020600083815260200190815260200160002060006101000a81548160ff0219169083151502179055508173ffffffffffffffffffffffffffffffffffffffff163373ffffffffffffffffffffffffffffffffffffffff167fa1d529b18967c562a493ddab9f1fcc2883782506ddfeab6d46adf01ef6bf05f7836040516116359190612dd4565b60405180910390a35050565b6000600560008473ffffffffffffffffffffffffffffffffffffffff1673ffffffffffffffffffffffffffffffffffffffff16815260200190815260200160002060008373ffffffffffffffffffffffffffffffffffffffff1673ffffffffffffffffffffffffffffffffffffffff16815260200190815260200160002060009054906101000a900460ff16905092915050565b6116dd611c20565b600073ffffffffffffffffffffffffffffffffffffffff168173ffffffffffffffffffffffffffffffffffffffff160361174f5760006040517f1e4fbdf70000000000000000000000000000000000000000000000000000000081526004016117469190612d11565b60405180910390fd5b61175881611ca7565b50565b3373ffffffffffffffffffffffffffffffffffffffff1661177b82610c4e565b73ffffffffffffffffffffffffffffffffffffffff16146117d1576040517f08c379a00000000000000000000000000000000000000000000000000000000081526004016117c890613ab9565b60405180910390fd5b6117dc338383611edc565b8173ffffffffffffffffffffffffffffffffffffffff163373ffffffffffffffffffffffffffffffffffffffff167f24a3be0c5c512b15349ba426cca0182f3031c022d4022ef20349c1e5df669038836040516118399190612dd4565b60405180910390a35050565b60007f80ac58cd000000000000000000000000000000000000000000000000000000007bffffffffffffffffffffffffffffffffffffffffffffffffffffffff1916827bffffffffffffffffffffffffffffffffffffffffffffffffffffffff1916148061191057507f5b5e139f000000000000000000000000000000000000000000000000000000007bffffffffffffffffffffffffffffffffffffffffffffffffffffffff1916827bffffffffffffffffffffffffffffffffffffffffffffffffffffffff1916145b80611920575061191f82612455565b5b9050919050565b600080611933836124bf565b9050600073ffffffffffffffffffffffffffffffffffffffff168173ffffffffffffffffffffffffffffffffffffffff16036119a657826040517f7e27328900000000000000000000000000000000000000000000000000000000815260040161199d9190612dd4565b60405180910390fd5b80915050919050565b60006004600083815260200190815260200160002060009054906101000a900473ffffffffffffffffffffffffffffffffffffffff169050919050565b600033905090565b611a0183838360016124fc565b505050565b600080611a12846124bf565b9050600073ffffffffffffffffffffffffffffffffffffffff168373ffffffffffffffffffffffffffffffffffffffff1614611a5457611a538184866126c1565b5b600073ffffffffffffffffffffffffffffffffffffffff168173ffffffffffffffffffffffffffffffffffffffff1614611ae557611a966000856000806124fc565b6001600360008373ffffffffffffffffffffffffffffffffffffffff1673ffffffffffffffffffffffffffffffffffffffff168152602001908152602001600020600082825403925050819055505b600073ffffffffffffffffffffffffffffffffffffffff168573ffffffffffffffffffffffffffffffffffffffff1614611b68576001600360008773ffffffffffffffffffffffffffffffffffffffff1673ffffffffffffffffffffffffffffffffffffffff168152602001908152602001600020600082825401925050819055505b846002600086815260200190815260200160002060006101000a81548173ffffffffffffffffffffffffffffffffffffffff021916908373ffffffffffffffffffffffffffffffffffffffff160217905550838573ffffffffffffffffffffffffffffffffffffffff168273ffffffffffffffffffffffffffffffffffffffff167fddf252ad1be2c89b69c2b068fc378daa952ba7f163c4a11628f55a4df523b3ef60405160405180910390a4809150509392505050565b611c286119ec565b73ffffffffffffffffffffffffffffffffffffffff16611c46610d2e565b73ffffffffffffffffffffffffffffffffffffffff1614611ca557611c696119ec565b6040517f118cdaa7000000000000000000000000000000000000000000000000000000008152600401611c9c9190612d11565b60405180910390fd5b565b6000600760009054906101000a900473ffffffffffffffffffffffffffffffffffffffff16905081600760006101000a81548173ffffffffffffffffffffffffffffffffffffffff021916908373ffffffffffffffffffffffffffffffffffffffff1602179055508173ffffffffffffffffffffffffffffffffffffffff168173ffffffffffffffffffffffffffffffffffffffff167f8be0079c531659141344cd1fd0a4f28419497f9722a3daafe3b4186f6b6457e060405160405180910390a35050565b600073ffffffffffffffffffffffffffffffffffffffff168273ffffffffffffffffffffffffffffffffffffffff1603611dde57816040517f5b08ba18000000000000000000000000000000000000000000000000000000008152600401611dd59190612d11565b60405180910390fd5b80600560008573ffffffffffffffffffffffffffffffffffffffff1673ffffffffffffffffffffffffffffffffffffffff16815260200190815260200160002060008473ffffffffffffffffffffffffffffffffffffffff1673ffffffffffffffffffffffffffffffffffffffff16815260200190815260200160002060006101000a81548160ff0219169083151502179055508173ffffffffffffffffffffffffffffffffffffffff168373ffffffffffffffffffffffffffffffffffffffff167f17307eab39ab6107e8899845ad3d59bd9653f200f220920489ca2b5937696c3183604051611ecf9190612ba0565b60405180910390a3505050565b600073ffffffffffffffffffffffffffffffffffffffff168273ffffffffffffffffffffffffffffffffffffffff1603611f4e5760006040517f64a0ae92000000000000000000000000000000000000000000000000000000008152600401611f459190612d11565b60405180910390fd5b6000611f5c83836000611a06565b9050600073ffffffffffffffffffffffffffffffffffffffff168173ffffffffffffffffffffffffffffffffffffffff1603611fcf57816040517f7e273289000000000000000000000000000000000000000000000000000000008152600401611fc69190612dd4565b60405180910390fd5b8373ffffffffffffffffffffffffffffffffffffffff168173ffffffffffffffffffffffffffffffffffffffff1614612043578382826040517f64283d7b00000000000000000000000000000000000000000000000000000000815260040161203a93929190613531565b60405180910390fd5b50505050565b600073ffffffffffffffffffffffffffffffffffffffff168273ffffffffffffffffffffffffffffffffffffffff16036120bb5760006040517f64a0ae920000000000000000000000000000000000000000000000000000000081526004016120b29190612d11565b60405180910390fd5b60006120c983836000611a06565b9050600073ffffffffffffffffffffffffffffffffffffffff168173ffffffffffffffffffffffffffffffffffffffff161461213d5760006040517f73c6ac6e0000000000000000000000000000000000000000000000000000000081526004016121349190612d11565b60405180910390fd5b505050565b8060066000848152602001908152602001600020908161216291906138cf565b507ff8e1a15aba9398e019f0b49df1a4fde98ee17ae345cb5f6b5e2c27f5033e8ce7826040516121929190612dd4565b60405180910390a15050565b60008373ffffffffffffffffffffffffffffffffffffffff163b1115612348578273ffffffffffffffffffffffffffffffffffffffff1663150b7a02868685856040518563ffffffff1660e01b81526004016121fd9493929190613b2e565b6020604051808303816000875af192505050801561223957506040513d601f19601f820116820180604052508101906122369190613b8f565b60015b6122bd573d8060008114612269576040519150601f19603f3d011682016040523d82523d6000602084013e61226e565b606091505b5060008151036122b557836040517f64a0ae920000000000000000000000000000000000000000000000000000000081526004016122ac9190612d11565b60405180910390fd5b805181602001fd5b63150b7a0260e01b7bffffffffffffffffffffffffffffffffffffffffffffffffffffffff1916817bffffffffffffffffffffffffffffffffffffffffffffffffffffffff19161461234657836040517f64a0ae9200000000000000000000000000000000000000000000000000000000815260040161233d9190612d11565b60405180910390fd5b505b5050505050565b600061235e6000836000611a06565b9050600073ffffffffffffffffffffffffffffffffffffffff168173ffffffffffffffffffffffffffffffffffffffff16036123d157816040517f7e2732890000000000000000000000000000000000000000000000000000000081526004016123c89190612dd4565b60405180910390fd5b5050565b606060405180602001604052806000815250905090565b60606123f782611927565b5060006124026123d5565b90506000815111612422576040518060200160405280600081525061244d565b8061242c84612785565b60405160200161243d929190613a49565b6040516020818303038152906040525b915050919050565b60007f01ffc9a7000000000000000000000000000000000000000000000000000000007bffffffffffffffffffffffffffffffffffffffffffffffffffffffff1916827bffffffffffffffffffffffffffffffffffffffffffffffffffffffff1916149050919050565b60006002600083815260200190815260200160002060009054906101000a900473ffffffffffffffffffffffffffffffffffffffff169050919050565b80806125355750600073ffffffffffffffffffffffffffffffffffffffff168273ffffffffffffffffffffffffffffffffffffffff1614155b1561266957600061254584611927565b9050600073ffffffffffffffffffffffffffffffffffffffff168373ffffffffffffffffffffffffffffffffffffffff16141580156125b057508273ffffffffffffffffffffffffffffffffffffffff168173ffffffffffffffffffffffffffffffffffffffff1614155b80156125c357506125c18184611641565b155b1561260557826040517fa9fbf51f0000000000000000000000000000000000000000000000000000000081526004016125fc9190612d11565b60405180910390fd5b811561266757838573ffffffffffffffffffffffffffffffffffffffff168273ffffffffffffffffffffffffffffffffffffffff167f8c5be1e5ebec7d5bd14f71427d1e84f3dd0314c0f7b2291e5b200ac8c7c3b92560405160405180910390a45b505b836004600085815260200190815260200160002060006101000a81548173ffffffffffffffffffffffffffffffffffffffff021916908373ffffffffffffffffffffffffffffffffffffffff16021790555050505050565b6126cc838383612853565b61278057600073ffffffffffffffffffffffffffffffffffffffff168373ffffffffffffffffffffffffffffffffffffffff160361274157806040517f7e2732890000000000000000000000000000000000000000000000000000000081526004016127389190612dd4565b60405180910390fd5b81816040517f177e802f000000000000000000000000000000000000000000000000000000008152600401612777929190613bbc565b60405180910390fd5b505050565b60606000600161279484612914565b01905060008167ffffffffffffffff8111156127b3576127b2613050565b5b6040519080825280601f01601f1916602001820160405280156127e55781602001600182028036833780820191505090505b509050600082602001820190505b600115612848578080600190039150507f3031323334353637383961626364656600000000000000000000000000000000600a86061a8153600a858161283c5761283b613be5565b5b049450600085036127f3575b819350505050919050565b60008073ffffffffffffffffffffffffffffffffffffffff168373ffffffffffffffffffffffffffffffffffffffff161415801561290b57508273ffffffffffffffffffffffffffffffffffffffff168473ffffffffffffffffffffffffffffffffffffffff1614806128cc57506128cb8484611641565b5b8061290a57508273ffffffffffffffffffffffffffffffffffffffff166128f2836119af565b73ffffffffffffffffffffffffffffffffffffffff16145b5b90509392505050565b600080600090507a184f03e93ff9f4daa797ed6e38ed64bf6a1f0100000000000000008310612972577a184f03e93ff9f4daa797ed6e38ed64bf6a1f010000000000000000838161296857612967613be5565b5b0492506040810190505b6d04ee2d6d415b85acef810000000083106129af576d04ee2d6d415b85acef810000000083816129a5576129a4613be5565b5b0492506020810190505b662386f26fc1000083106129de57662386f26fc1000083816129d4576129d3613be5565b5b0492506010810190505b6305f5e1008310612a07576305f5e10083816129fd576129fc613be5565b5b0492506008810190505b6127108310612a2c576127108381612a2257612a21613be5565b5b0492506004810190505b60648310612a4f5760648381612a4557612a44613be5565b5b0492506002810190505b600a8310612a5e576001810190505b80915050919050565b6040518060800160405280606081526020016060815260200160608152602001606081525090565b508054612a9b90613500565b6000825580601f10612aad5750612acc565b601f016020900490600052602060002090810190612acb9190612acf565b5b50565b5b80821115612ae8576000816000905550600101612ad0565b5090565b6000604051905090565b600080fd5b600080fd5b60007fffffffff0000000000000000000000000000000000000000000000000000000082169050919050565b612b3581612b00565b8114612b4057600080fd5b50565b600081359050612b5281612b2c565b92915050565b600060208284031215612b6e57612b6d612af6565b5b6000612b7c84828501612b43565b91505092915050565b60008115159050919050565b612b9a81612b85565b82525050565b6000602082019050612bb56000830184612b91565b92915050565b600081519050919050565b600082825260208201905092915050565b60005b83811015612bf5578082015181840152602081019050612bda565b60008484015250505050565b6000601f19601f8301169050919050565b6000612c1d82612bbb565b612c278185612bc6565b9350612c37818560208601612bd7565b612c4081612c01565b840191505092915050565b60006020820190508181036000830152612c658184612c12565b905092915050565b6000819050919050565b612c8081612c6d565b8114612c8b57600080fd5b50565b600081359050612c9d81612c77565b92915050565b600060208284031215612cb957612cb8612af6565b5b6000612cc784828501612c8e565b91505092915050565b600073ffffffffffffffffffffffffffffffffffffffff82169050919050565b6000612cfb82612cd0565b9050919050565b612d0b81612cf0565b82525050565b6000602082019050612d266000830184612d02565b92915050565b612d3581612cf0565b8114612d4057600080fd5b50565b600081359050612d5281612d2c565b92915050565b60008060408385031215612d6f57612d6e612af6565b5b6000612d7d85828601612d43565b9250506020612d8e85828601612c8e565b9150509250929050565b600060208284031215612dae57612dad612af6565b5b6000612dbc84828501612d43565b91505092915050565b612dce81612c6d565b82525050565b6000602082019050612de96000830184612dc5565b92915050565b600080600060608486031215612e0857612e07612af6565b5b6000612e1686828701612d43565b9350506020612e2786828701612d43565b9250506040612e3886828701612c8e565b9150509250925092565b600082825260208201905092915050565b6000612e5e82612bbb565b612e688185612e42565b9350612e78818560208601612bd7565b612e8181612c01565b840191505092915050565b60006080830160008301518482036000860152612ea98282612e53565b91505060208301518482036020860152612ec38282612e53565b91505060408301518482036040860152612edd8282612e53565b91505060608301518482036060860152612ef78282612e53565b9150508091505092915050565b60006020820190508181036000830152612f1e8184612e8c565b905092915050565b60006080820190508181036000830152612f408187612c12565b90508181036020830152612f548186612c12565b90508181036040830152612f688185612c12565b90508181036060830152612f7c8184612c12565b905095945050505050565b612f9081612b85565b8114612f9b57600080fd5b50565b600081359050612fad81612f87565b92915050565b60008060408385031215612fca57612fc9612af6565b5b6000612fd885828601612d43565b9250506020612fe985828601612f9e565b9150509250929050565b60008060006060848603121561300c5761300b612af6565b5b600061301a86828701612d43565b935050602061302b86828701612c8e565b925050604061303c86828701612c8e565b9150509250925092565b600080fd5b600080fd5b7f4e487b7100000000000000000000000000000000000000000000000000000000600052604160045260246000fd5b61308882612c01565b810181811067ffffffffffffffff821117156130a7576130a6613050565b5b80604052505050565b60006130ba612aec565b90506130c6828261307f565b919050565b600067ffffffffffffffff8211156130e6576130e5613050565b5b6130ef82612c01565b9050602081019050919050565b82818337600083830152505050565b600061311e613119846130cb565b6130b0565b90508281526020810184848401111561313a5761313961304b565b5b6131458482856130fc565b509392505050565b600082601f83011261316257613161613046565b5b813561317284826020860161310b565b91505092915050565b600080600080600060a0868803121561319757613196612af6565b5b600086013567ffffffffffffffff8111156131b5576131b4612afb565b5b6131c18882890161314d565b955050602086013567ffffffffffffffff8111156131e2576131e1612afb565b5b6131ee8882890161314d565b945050604086013567ffffffffffffffff81111561320f5761320e612afb565b5b61321b8882890161314d565b935050606086013567ffffffffffffffff81111561323c5761323b612afb565b5b6132488882890161314d565b925050608086013567ffffffffffffffff81111561326957613268612afb565b5b6132758882890161314d565b9150509295509295909350565b600067ffffffffffffffff82111561329d5761329c613050565b5b6132a682612c01565b9050602081019050919050565b60006132c66132c184613282565b6130b0565b9050828152602081018484840111156132e2576132e161304b565b5b6132ed8482856130fc565b509392505050565b600082601f83011261330a57613309613046565b5b813561331a8482602086016132b3565b91505092915050565b6000806000806080858703121561333d5761333c612af6565b5b600061334b87828801612d43565b945050602061335c87828801612d43565b935050604061336d87828801612c8e565b925050606085013567ffffffffffffffff81111561338e5761338d612afb565b5b61339a878288016132f5565b91505092959194509250565b600080600080600060a086880312156133c2576133c1612af6565b5b60006133d088828901612c8e565b955050602086013567ffffffffffffffff8111156133f1576133f0612afb565b5b6133fd8882890161314d565b945050604086013567ffffffffffffffff81111561341e5761341d612afb565b5b61342a8882890161314d565b935050606086013567ffffffffffffffff81111561344b5761344a612afb565b5b6134578882890161314d565b925050608086013567ffffffffffffffff81111561347857613477612afb565b5b6134848882890161314d565b9150509295509295909350565b600080604083850312156134a8576134a7612af6565b5b60006134b685828601612d43565b92505060206134c785828601612d43565b9150509250929050565b7f4e487b7100000000000000000000000000000000000000000000000000000000600052602260045260246000fd5b6000600282049050600182168061351857607f821691505b60208210810361352b5761352a6134d1565b5b50919050565b60006060820190506135466000830186612d02565b6135536020830185612dc5565b6135606040830184612d02565b949350505050565b7f596f75206d757374206f776e20796f7572206361726400000000000000000000600082015250565b600061359e601683612bc6565b91506135a982613568565b602082019050919050565b600060208201905081810360008301526135cd81613591565b9050919050565b7f54686579206d757374206f776e20746865697220636172640000000000000000600082015250565b600061360a601883612bc6565b9150613615826135d4565b602082019050919050565b60006020820190508181036000830152613639816135fd565b9050919050565b7f416c7265616479206f776e73206120627573696e657373206361726400000000600082015250565b6000613676601c83612bc6565b915061368182613640565b602082019050919050565b600060208201905081810360008301526136a581613669565b9050919050565b7f4e487b7100000000000000000000000000000000000000000000000000000000600052601160045260246000fd5b60006136e682612c6d565b91507fffffffffffffffffffffffffffffffffffffffffffffffffffffffffffffffff8203613718576137176136ac565b5b600182019050919050565b60008190508160005260206000209050919050565b60006020601f8301049050919050565b600082821b905092915050565b6000600883026137857fffffffffffffffffffffffffffffffffffffffffffffffffffffffffffffffff82613748565b61378f8683613748565b95508019841693508086168417925050509392505050565b6000819050919050565b60006137cc6137c76137c284612c6d565b6137a7565b612c6d565b9050919050565b6000819050919050565b6137e6836137b1565b6137fa6137f2826137d3565b848454613755565b825550505050565b600090565b61380f613802565b61381a8184846137dd565b505050565b5b8181101561383e57613833600082613807565b600181019050613820565b5050565b601f8211156138835761385481613723565b61385d84613738565b8101602085101561386c578190505b61388061387885613738565b83018261381f565b50505b505050565b600082821c905092915050565b60006138a660001984600802613888565b1980831691505092915050565b60006138bf8383613895565b9150826002028217905092915050565b6138d882612bbb565b67ffffffffffffffff8111156138f1576138f0613050565b5b6138fb8254613500565b613906828285613842565b600060209050601f8311600181146139395760008415613927578287015190505b61393185826138b3565b865550613999565b601f19841661394786613723565b60005b8281101561396f5784890151825560018201915060208501945060208101905061394a565b8683101561398c5784890151613988601f891682613895565b8355505b6001600288020188555050505b505050505050565b7f596f7520646f6e2774206f776e20746869732063617264000000000000000000600082015250565b60006139d7601783612bc6565b91506139e2826139a1565b602082019050919050565b60006020820190508181036000830152613a06816139ca565b9050919050565b600081905092915050565b6000613a2382612bbb565b613a2d8185613a0d565b9350613a3d818560208601612bd7565b80840191505092915050565b6000613a558285613a18565b9150613a618284613a18565b91508190509392505050565b7f4e6f7420796f757220627573696e657373206361726400000000000000000000600082015250565b6000613aa3601683612bc6565b9150613aae82613a6d565b602082019050919050565b60006020820190508181036000830152613ad281613a96565b9050919050565b600081519050919050565b600082825260208201905092915050565b6000613b0082613ad9565b613b0a8185613ae4565b9350613b1a818560208601612bd7565b613b2381612c01565b840191505092915050565b6000608082019050613b436000830187612d02565b613b506020830186612d02565b613b5d6040830185612dc5565b8181036060830152613b6f8184613af5565b905095945050505050565b600081519050613b8981612b2c565b92915050565b600060208284031215613ba557613ba4612af6565b5b6000613bb384828501613b7a565b91505092915050565b6000604082019050613bd16000830185612d02565b613bde6020830184612dc5565b9392505050565b7f4e487b7100000000000000000000000000000000000000000000000000000000600052601260045260246000fdfea26469706673582212204dea8a1a96d110a88d46787240fab883b82ba8fb5161b410bd65f6a54643a21864736f6c634300081c0033",
  "linkReferences": {},
  "deployedLinkReferences": {}
}