{
  "_format": "hh-sol-artifact-1",
  "contractName": "BusinessCard",
  "sourceName": "contracts/BusinessCard.sol",
  "abi": [
    {
      "inputs": [],
      "stateMutability": "nonpayable",
      "type": "constructor"
    },
    {
      "inputs": [
        {
          "internalType": "address",
          "name": "sender",
          "type": "address"
        },
        {
          "internalType": "uint256",
          "name": "tokenId",
          "type": "uint256"
        },
        {
          "internalType": "address",
          "name": "owner",
          "type": "address"
        }
      ],
      "name": "ERC721IncorrectOwner",
      "type": "error"
    },
    {
      "inputs": [
        {
          "internalType": "address",
          "name": "operator",
          "type": "address"
        },
        {
          "internalType": "uint256",
          "name": "tokenId",
          "type": "uint256"
        }
      ],
      "name": "ERC721InsufficientApproval",
      "type": "error"
    },
    {
      "inputs": [
        {
          "internalType": "address",
          "name": "approver",
          "type": "address"
        }
      ],
      "name": "ERC721InvalidApprover",
      "type": "error"
    },
    {
      "inputs": [
        {
          "internalType": "address",
          "name": "operator",
          "type": "address"
        }
      ],
      "name": "ERC721InvalidOperator",
      "type": "error"
    },
    {
      "inputs": [
        {
          "internalType": "address",
          "name": "owner",
          "type": "address"
        }
      ],
      "name": "ERC721InvalidOwner",
      "type": "error"
    },
    {
      "inputs": [
        {
          "internalType": "address",
          "name": "receiver",
          "type": "address"
        }
      ],
      "name": "ERC721InvalidReceiver",
      "type": "error"
    },
    {
      "inputs": [
        {
          "internalType": "address",
          "name": "sender",
          "type": "address"
        }
      ],
      "name": "ERC721InvalidSender",
      "type": "error"
    },
    {
      "inputs": [
        {
          "internalType": "uint256",
          "name": "tokenId",
          "type": "uint256"
        }
      ],
      "name": "ERC721NonexistentToken",
      "type": "error"
    },
    {
      "inputs": [
        {
          "internalType": "address",
          "name": "owner",
          "type": "address"
        }
      ],
      "name": "OwnableInvalidOwner",
      "type": "error"
    },
    {
      "inputs": [
        {
          "internalType": "address",
          "name": "account",
          "type": "address"
        }
      ],
      "name": "OwnableUnauthorizedAccount",
      "type": "error"
    },
    {
      "anonymous": false,
      "inputs": [
        {
          "indexed": true,
          "internalType": "address",
          "name": "owner",
          "type": "address"
        },
        {
          "indexed": true,
          "internalType": "address",
          "name": "approved",
          "type": "address"
        },
        {
          "indexed": true,
          "internalType": "uint256",
          "name": "tokenId",
          "type": "uint256"
        }
      ],
      "name": "Approval",
      "type": "event"
    },
    {
      "anonymous": false,
      "inputs": [
        {
          "indexed": true,
          "internalType": "address",
          "name": "owner",
          "type": "address"
        },
        {
          "indexed": true,
          "internalType": "address",
          "name": "operator",
          "type": "address"
        },
        {
          "indexed": false,
          "internalType": "bool",
          "name": "approved",
          "type": "bool"
        }
      ],
      "name": "ApprovalForAll",
      "type": "event"
    },
    {
      "anonymous": false,
      "inputs": [
        {
          "indexed": false,
          "internalType": "uint256",
          "name": "_fromTokenId",
          "type": "uint256"
        },
        {
          "indexed": false,
          "internalType": "uint256",
          "name": "_toTokenId",
          "type": "uint256"
        }
      ],
      "name": "BatchMetadataUpdate",
      "type": "event"
    },
    {
      "anonymous": false,
      "inputs": [
        {
          "indexed": true,
          "internalType": "address",
          "name": "owner",
          "type": "address"
        },
        {
          "indexed": true,
          "internalType": "uint256",
          "name": "cardId",
          "type": "uint256"
        }
      ],
      "name": "BusinessCardMinted",
      "type": "event"
    },
    {
      "anonymous": false,
      "inputs": [
        {
          "indexed": true,
          "internalType": "address",
          "name": "from",
          "type": "address"
        },
        {
          "indexed": true,
          "internalType": "address",
          "name": "to",
          "type": "address"
        },
        {
          "indexed": false,
          "internalType": "uint256",
          "name": "cardId",
          "type": "uint256"
        }
      ],
      "name": "BusinessCardSent",
      "type": "event"
    },
    {
      "anonymous": false,
      "inputs": [
        {
          "indexed": true,
          "internalType": "address",
          "name": "from",
          "type": "address"
        },
        {
          "indexed": true,
          "internalType": "address",
          "name": "to",
          "type": "address"
        },
        {
          "indexed": false,
          "internalType": "uint256",
          "name": "myCardId",
          "type": "uint256"
        }
      ],
      "name": "BusinessCardTraded",
      "type": "event"
    },
    {
      "anonymous": false,
      "inputs": [
        {
          "indexed": true,
          "internalType": "address",
          "name": "owner",
          "type": "address"
        },
        {
          "indexed": true,
          "internalType": "uint256",
          "name": "cardId",
          "type": "uint256"
        }
      ],
      "name": "BusinessCardUpdated",
      "type": "event"
    },
    {
      "anonymous": false,
      "inputs": [
        {
          "indexed": false,
          "internalType": "uint256",
          "name": "_tokenId",
          "type": "uint256"
        }
      ],
      "name": "MetadataUpdate",
      "type": "event"
    },
    {
      "anonymous": false,
      "inputs": [
        {
          "indexed": true,
          "internalType": "address",
          "name": "previousOwner",
          "type": "address"
        },
        {
          "indexed": true,
          "internalType": "address",
          "name": "newOwner",
          "type": "address"
        }
      ],
      "name": "OwnershipTransferred",
      "type": "event"
    },
    {
      "anonymous": false,
      "inputs": [
        {
          "indexed": true,
          "internalType": "address",
          "name": "from",
          "type": "address"
        },
        {
          "indexed": true,
          "internalType": "address",
          "name": "to",
          "type": "address"
        },
        {
          "indexed": true,
          "internalType": "uint256",
          "name": "tokenId",
          "type": "uint256"
        }
      ],
      "name": "Transfer",
      "type": "event"
    },
    {
      "inputs": [
        {
          "internalType": "address",
          "name": "to",
          "type": "address"
        },
        {
          "internalType": "uint256",
          "name": "tokenId",
          "type": "uint256"
        }
      ],
      "name": "approve",
      "outputs": [],
      "stateMutability": "nonpayable",
      "type": "function"
    },
    {
      "inputs": [
        {
          "internalType": "address",
          "name": "owner",
          "type": "address"
        }
      ],
      "name": "balanceOf",
      "outputs": [
        {
          "internalType": "uint256",
          "name": "",
          "type": "uint256"
        }
      ],
      "stateMutability": "view",
      "type": "function"
    },
    {
      "inputs": [
        {
          "internalType": "uint256",
          "name": "_cardId",
          "type": "uint256"
        }
      ],
      "name": "burnCard",
      "outputs": [],
      "stateMutability": "nonpayable",
      "type": "function"
    },
    {
      "inputs": [
        {
          "internalType": "uint256",
          "name": "",
          "type": "uint256"
        }
      ],
      "name": "businessCards",
      "outputs": [
        {
          "internalType": "string",
          "name": "name",
          "type": "string"
        },
        {
          "internalType": "string",
          "name": "title",
          "type": "string"
        },
        {
          "internalType": "string",
          "name": "company",
          "type": "string"
        },
        {
          "internalType": "string",
          "name": "contactInfo",
          "type": "string"
        }
      ],
      "stateMutability": "view",
      "type": "function"
    },
    {
      "inputs": [
        {
          "internalType": "uint256",
          "name": "tokenId",
          "type": "uint256"
        }
      ],
      "name": "getApproved",
      "outputs": [
        {
          "internalType": "address",
          "name": "",
          "type": "address"
        }
      ],
      "stateMutability": "view",
      "type": "function"
    },
    {
      "inputs": [
        {
          "internalType": "uint256",
          "name": "_cardId",
          "type": "uint256"
        }
      ],
      "name": "getBusinessCard",
      "outputs": [
        {
          "components": [
            {
              "internalType": "string",
              "name": "name",
              "type": "string"
            },
            {
              "internalType": "string",
              "name": "title",
              "type": "string"
            },
            {
              "internalType": "string",
              "name": "company",
              "type": "string"
            },
            {
              "internalType": "string",
              "name": "contactInfo",
              "type": "string"
            }
          ],
          "internalType": "struct BusinessCard.CardDetails",
          "name": "",
          "type": "tuple"
        }
      ],
      "stateMutability": "view",
      "type": "function"
    },
    {
      "inputs": [
        {
          "internalType": "uint256[]",
          "name": "_cardIds",
          "type": "uint256[]"
        }
      ],
      "name": "getMultipleBusinessCards",
      "outputs": [
        {
          "components": [
            {
              "internalType": "string",
              "name": "name",
              "type": "string"
            },
            {
              "internalType": "string",
              "name": "title",
              "type": "string"
            },
            {
              "internalType": "string",
              "name": "company",
              "type": "string"
            },
            {
              "internalType": "string",
              "name": "contactInfo",
              "type": "string"
            }
          ],
          "internalType": "struct BusinessCard.CardDetails[]",
          "name": "",
          "type": "tuple[]"
        }
      ],
      "stateMutability": "view",
      "type": "function"
    },
    {
      "inputs": [
        {
          "internalType": "address",
          "name": "_owner",
          "type": "address"
        }
      ],
      "name": "getReceivedCards",
      "outputs": [
        {
          "internalType": "uint256[]",
          "name": "",
          "type": "uint256[]"
        }
      ],
      "stateMutability": "view",
      "type": "function"
    },
    {
      "inputs": [
        {
          "internalType": "address",
          "name": "owner",
          "type": "address"
        },
        {
          "internalType": "address",
          "name": "operator",
          "type": "address"
        }
      ],
      "name": "isApprovedForAll",
      "outputs": [
        {
          "internalType": "bool",
          "name": "",
          "type": "bool"
        }
      ],
      "stateMutability": "view",
      "type": "function"
    },
    {
      "inputs": [
        {
          "internalType": "string",
          "name": "_name",
          "type": "string"
        },
        {
          "internalType": "string",
          "name": "_title",
          "type": "string"
        },
        {
          "internalType": "string",
          "name": "_company",
          "type": "string"
        },
        {
          "internalType": "string",
          "name": "_contactInfo",
          "type": "string"
        },
        {
          "internalType": "string",
          "name": "_tokenURI",
          "type": "string"
        }
      ],
      "name": "mintBusinessCard",
      "outputs": [],
      "stateMutability": "nonpayable",
      "type": "function"
    },
    {
      "inputs": [],
      "name": "name",
      "outputs": [
        {
          "internalType": "string",
          "name": "",
          "type": "string"
        }
      ],
      "stateMutability": "view",
      "type": "function"
    },
    {
      "inputs": [],
      "name": "owner",
      "outputs": [
        {
          "internalType": "address",
          "name": "",
          "type": "address"
        }
      ],
      "stateMutability": "view",
      "type": "function"
    },
    {
      "inputs": [
        {
          "internalType": "uint256",
          "name": "tokenId",
          "type": "uint256"
        }
      ],
      "name": "ownerOf",
      "outputs": [
        {
          "internalType": "address",
          "name": "",
          "type": "address"
        }
      ],
      "stateMutability": "view",
      "type": "function"
    },
    {
      "inputs": [
        {
          "internalType": "address",
          "name": "",
          "type": "address"
        },
        {
          "internalType": "uint256",
          "name": "",
          "type": "uint256"
        }
      ],
      "name": "receivedCards",
      "outputs": [
        {
          "internalType": "bool",
          "name": "",
          "type": "bool"
        }
      ],
      "stateMutability": "view",
      "type": "function"
    },
    {
      "inputs": [],
      "name": "renounceOwnership",
      "outputs": [],
      "stateMutability": "nonpayable",
      "type": "function"
    },
    {
      "inputs": [
        {
          "internalType": "address",
          "name": "from",
          "type": "address"
        },
        {
          "internalType": "address",
          "name": "to",
          "type": "address"
        },
        {
          "internalType": "uint256",
          "name": "tokenId",
          "type": "uint256"
        }
      ],
      "name": "safeTransferFrom",
      "outputs": [],
      "stateMutability": "nonpayable",
      "type": "function"
    },
    {
      "inputs": [
        {
          "internalType": "address",
          "name": "from",
          "type": "address"
        },
        {
          "internalType": "address",
          "name": "to",
          "type": "address"
        },
        {
          "internalType": "uint256",
          "name": "tokenId",
          "type": "uint256"
        },
        {
          "internalType": "bytes",
          "name": "data",
          "type": "bytes"
        }
      ],
      "name": "safeTransferFrom",
      "outputs": [],
      "stateMutability": "nonpayable",
      "type": "function"
    },
    {
      "inputs": [
        {
          "internalType": "address",
          "name": "_to",
          "type": "address"
        },
        {
          "internalType": "uint256",
          "name": "_cardId",
          "type": "uint256"
        }
      ],
      "name": "sendBusinessCard",
      "outputs": [],
      "stateMutability": "nonpayable",
      "type": "function"
    },
    {
      "inputs": [
        {
          "internalType": "address",
          "name": "operator",
          "type": "address"
        },
        {
          "internalType": "bool",
          "name": "approved",
          "type": "bool"
        }
      ],
      "name": "setApprovalForAll",
      "outputs": [],
      "stateMutability": "nonpayable",
      "type": "function"
    },
    {
      "inputs": [
        {
          "internalType": "bytes4",
          "name": "interfaceId",
          "type": "bytes4"
        }
      ],
      "name": "supportsInterface",
      "outputs": [
        {
          "internalType": "bool",
          "name": "",
          "type": "bool"
        }
      ],
      "stateMutability": "view",
      "type": "function"
    },
    {
      "inputs": [],
      "name": "symbol",
      "outputs": [
        {
          "internalType": "string",
          "name": "",
          "type": "string"
        }
      ],
      "stateMutability": "view",
      "type": "function"
    },
    {
      "inputs": [
        {
          "internalType": "uint256",
          "name": "tokenId",
          "type": "uint256"
        }
      ],
      "name": "tokenURI",
      "outputs": [
        {
          "internalType": "string",
          "name": "",
          "type": "string"
        }
      ],
      "stateMutability": "view",
      "type": "function"
    },
    {
      "inputs": [
        {
          "internalType": "address",
          "name": "_recipient",
          "type": "address"
        },
        {
          "internalType": "uint256",
          "name": "_myCardId",
          "type": "uint256"
        }
      ],
      "name": "tradeCardViaQR",
      "outputs": [],
      "stateMutability": "nonpayable",
      "type": "function"
    },
    {
      "inputs": [
        {
          "internalType": "address",
          "name": "_with",
          "type": "address"
        },
        {
          "internalType": "uint256",
          "name": "_myCardId",
          "type": "uint256"
        },
        {
          "internalType": "uint256",
          "name": "_theirCardId",
          "type": "uint256"
        }
      ],
      "name": "tradeCards",
      "outputs": [],
      "stateMutability": "nonpayable",
      "type": "function"
    },
    {
      "inputs": [
        {
          "internalType": "address",
          "name": "from",
          "type": "address"
        },
        {
          "internalType": "address",
          "name": "to",
          "type": "address"
        },
        {
          "internalType": "uint256",
          "name": "tokenId",
          "type": "uint256"
        }
      ],
      "name": "transferFrom",
      "outputs": [],
      "stateMutability": "nonpayable",
      "type": "function"
    },
    {
      "inputs": [
        {
          "internalType": "address",
          "name": "newOwner",
          "type": "address"
        }
      ],
      "name": "transferOwnership",
      "outputs": [],
      "stateMutability": "nonpayable",
      "type": "function"
    },
    {
      "inputs": [
        {
          "internalType": "uint256",
          "name": "_cardId",
          "type": "uint256"
        },
        {
          "internalType": "string",
          "name": "_title",
          "type": "string"
        },
        {
          "internalType": "string",
          "name": "_company",
          "type": "string"
        },
        {
          "internalType": "string",
          "name": "_contactInfo",
          "type": "string"
        },
        {
          "internalType": "string",
          "name": "_tokenURI",
          "type": "string"
        }
      ],
      "name": "updateBusinessCard",
      "outputs": [],
      "stateMutability": "nonpayable",
      "type": "function"
    },
    {
      "inputs": [
        {
          "internalType": "address",
          "name": "",
          "type": "address"
        }
      ],
      "name": "userCard",
      "outputs": [
        {
          "internalType": "uint256",
          "name": "",
          "type": "uint256"
        }
      ],
      "stateMutability": "view",
      "type": "function"
    }
  ],
  "bytecode": "0x608060405234801561001057600080fd5b50336040518060400160405280600c81526020017f427573696e6573734361726400000000000000000000000000000000000000008152506040518060400160405280600581526020017f4243415244000000000000000000000000000000000000000000000000000000815250816000908161008d919061043d565b50806001908161009d919061043d565b505050600073ffffffffffffffffffffffffffffffffffffffff168173ffffffffffffffffffffffffffffffffffffffff16036101125760006040517f1e4fbdf70000000000000000000000000000000000000000000000000000000081526004016101099190610550565b60405180910390fd5b6101218161012760201b60201c565b5061056b565b6000600760009054906101000a900473ffffffffffffffffffffffffffffffffffffffff16905081600760006101000a81548173ffffffffffffffffffffffffffffffffffffffff021916908373ffffffffffffffffffffffffffffffffffffffff1602179055508173ffffffffffffffffffffffffffffffffffffffff168173ffffffffffffffffffffffffffffffffffffffff167f8be0079c531659141344cd1fd0a4f28419497f9722a3daafe3b4186f6b6457e060405160405180910390a35050565b600081519050919050565b7f4e487b7100000000000000000000000000000000000000000000000000000000600052604160045260246000fd5b7f4e487b7100000000000000000000000000000000000000000000000000000000600052602260045260246000fd5b6000600282049050600182168061026e57607f821691505b60208210810361028157610280610227565b5b50919050565b60008190508160005260206000209050919050565b60006020601f8301049050919050565b600082821b905092915050565b6000600883026102e97fffffffffffffffffffffffffffffffffffffffffffffffffffffffffffffffff826102ac565b6102f386836102ac565b95508019841693508086168417925050509392505050565b6000819050919050565b6000819050919050565b600061033a6103356103308461030b565b610315565b61030b565b9050919050565b6000819050919050565b6103548361031f565b61036861036082610341565b8484546102b9565b825550505050565b600090565b61037d610370565b61038881848461034b565b505050565b5b818110156103ac576103a1600082610375565b60018101905061038e565b5050565b601f8211156103f1576103c281610287565b6103cb8461029c565b810160208510156103da578190505b6103ee6103e68561029c565b83018261038d565b50505b505050565b600082821c905092915050565b6000610414600019846008026103f6565b1980831691505092915050565b600061042d8383610403565b9150826002028217905092915050565b610446826101ed565b67ffffffffffffffff81111561045f5761045e6101f8565b5b6104698254610256565b6104748282856103b0565b600060209050601f8311600181146104a75760008415610495578287015190505b61049f8582610421565b865550610507565b601f1984166104b586610287565b60005b828110156104dd578489015182556001820191506020850194506020810190506104b8565b868310156104fa57848901516104f6601f891682610403565b8355505b6001600288020188555050505b505050505050565b600073ffffffffffffffffffffffffffffffffffffffff82169050919050565b600061053a8261050f565b9050919050565b61054a8161052f565b82525050565b60006020820190506105656000830184610541565b92915050565b6144758061057a6000396000f3fe608060405234801561001057600080fd5b50600436106101c45760003560e01c806395d89b41116100f9578063c39c77a211610097578063dc3ad23c11610071578063dc3ad23c1461053c578063e985e9c514610558578063f2fde38b14610588578063fd3effcd146105a4576101c4565b8063c39c77a2146104c0578063c87b56dd146104f0578063d2e9c45f14610520576101c4565b8063b2d5cc87116100d3578063b2d5cc871461043c578063b88d4fde14610458578063ba7e7d0514610474578063bf15987e14610490576101c4565b806395d89b41146103e6578063a22cb46514610404578063a7344e7e14610420576101c4565b806342842e0e1161016657806370a082311161014057806370a082311461035e578063715018a61461038e5780637a148238146103985780638da5cb5b146103c8576101c4565b806342842e0e146102df5780635c9dcfdf146102fb5780636352211e1461032e576101c4565b8063095ea7b3116101a2578063095ea7b31461024757806311e204941461026357806323b872dd14610293578063277ce8ec146102af576101c4565b806301ffc9a7146101c957806306fdde03146101f9578063081812fc14610217575b600080fd5b6101e360048036038101906101de9190613007565b6105c0565b6040516101f0919061304f565b60405180910390f35b610201610621565b60405161020e91906130fa565b60405180910390f35b610231600480360381019061022c9190613152565b6106b3565b60405161023e91906131c0565b60405180910390f35b610261600480360381019061025c9190613207565b6106cf565b005b61027d60048036038101906102789190613247565b6106e5565b60405161028a9190613283565b60405180910390f35b6102ad60048036038101906102a8919061329e565b6106fd565b005b6102c960048036038101906102c49190613152565b6107ff565b6040516102d691906133b3565b60405180910390f35b6102f960048036038101906102f4919061329e565b610a74565b005b61031560048036038101906103109190613152565b610a94565b60405161032594939291906133d5565b60405180910390f35b61034860048036038101906103439190613152565b610ce4565b60405161035591906131c0565b60405180910390f35b61037860048036038101906103739190613247565b610cf6565b6040516103859190613283565b60405180910390f35b610396610db0565b005b6103b260048036038101906103ad9190613247565b610dc4565b6040516103bf91906134f4565b60405180910390f35b6103d0610e5b565b6040516103dd91906131c0565b60405180910390f35b6103ee610e85565b6040516103fb91906130fa565b60405180910390f35b61041e60048036038101906104199190613542565b610f17565b005b61043a60048036038101906104359190613582565b610f2d565b005b6104566004803603810190610451919061370a565b611099565b005b610472600480360381019061046d91906138b2565b61126d565b005b61048e60048036038101906104899190613152565b611292565b005b6104aa60048036038101906104a591906139fd565b6113ad565b6040516104b79190613b80565b60405180910390f35b6104da60048036038101906104d59190613207565b6116c9565b6040516104e7919061304f565b60405180910390f35b61050a60048036038101906105059190613152565b6116f8565b60405161051791906130fa565b60405180910390f35b61053a60048036038101906105359190613ba2565b61180b565b005b61055660048036038101906105519190613207565b611942565b005b610572600480360381019061056d9190613c8d565b611af0565b60405161057f919061304f565b60405180910390f35b6105a2600480360381019061059d9190613247565b611b84565b005b6105be60048036038101906105b99190613207565b611c0a565b005b6000634906490660e01b7bffffffffffffffffffffffffffffffffffffffffffffffffffffffff1916827bffffffffffffffffffffffffffffffffffffffffffffffffffffffff1916148061061a575061061982611cf4565b5b9050919050565b60606000805461063090613cfc565b80601f016020809104026020016040519081016040528092919081815260200182805461065c90613cfc565b80156106a95780601f1061067e576101008083540402835291602001916106a9565b820191906000526020600020905b81548152906001019060200180831161068c57829003601f168201915b5050505050905090565b60006106be82611dd6565b506106c882611e5e565b9050919050565b6106e182826106dc611e9b565b611ea3565b5050565b600a6020528060005260406000206000915090505481565b600073ffffffffffffffffffffffffffffffffffffffff168273ffffffffffffffffffffffffffffffffffffffff160361076f5760006040517f64a0ae9200000000000000000000000000000000000000000000000000000000815260040161076691906131c0565b60405180910390fd5b6000610783838361077e611e9b565b611eb5565b90508373ffffffffffffffffffffffffffffffffffffffff168173ffffffffffffffffffffffffffffffffffffffff16146107f9578382826040517f64283d7b0000000000000000000000000000000000000000000000000000000081526004016107f093929190613d2d565b60405180910390fd5b50505050565b610807612f16565b6009600083815260200190815260200160002060405180608001604052908160008201805461083590613cfc565b80601f016020809104026020016040519081016040528092919081815260200182805461086190613cfc565b80156108ae5780601f10610883576101008083540402835291602001916108ae565b820191906000526020600020905b81548152906001019060200180831161089157829003601f168201915b505050505081526020016001820180546108c790613cfc565b80601f01602080910402602001604051908101604052809291908181526020018280546108f390613cfc565b80156109405780601f1061091557610100808354040283529160200191610940565b820191906000526020600020905b81548152906001019060200180831161092357829003601f168201915b5050505050815260200160028201805461095990613cfc565b80601f016020809104026020016040519081016040528092919081815260200182805461098590613cfc565b80156109d25780601f106109a7576101008083540402835291602001916109d2565b820191906000526020600020905b8154815290600101906020018083116109b557829003601f168201915b505050505081526020016003820180546109eb90613cfc565b80601f0160208091040260200160405190810160405280929190818152602001828054610a1790613cfc565b8015610a645780601f10610a3957610100808354040283529160200191610a64565b820191906000526020600020905b815481529060010190602001808311610a4757829003601f168201915b5050505050815250509050919050565b610a8f8383836040518060200160405280600081525061126d565b505050565b6009602052806000526040600020600091509050806000018054610ab790613cfc565b80601f0160208091040260200160405190810160405280929190818152602001828054610ae390613cfc565b8015610b305780601f10610b0557610100808354040283529160200191610b30565b820191906000526020600020905b815481529060010190602001808311610b1357829003601f168201915b505050505090806001018054610b4590613cfc565b80601f0160208091040260200160405190810160405280929190818152602001828054610b7190613cfc565b8015610bbe5780601f10610b9357610100808354040283529160200191610bbe565b820191906000526020600020905b815481529060010190602001808311610ba157829003601f168201915b505050505090806002018054610bd390613cfc565b80601f0160208091040260200160405190810160405280929190818152602001828054610bff90613cfc565b8015610c4c5780601f10610c2157610100808354040283529160200191610c4c565b820191906000526020600020905b815481529060010190602001808311610c2f57829003601f168201915b505050505090806003018054610c6190613cfc565b80601f0160208091040260200160405190810160405280929190818152602001828054610c8d90613cfc565b8015610cda5780601f10610caf57610100808354040283529160200191610cda565b820191906000526020600020905b815481529060010190602001808311610cbd57829003601f168201915b5050505050905084565b6000610cef82611dd6565b9050919050565b60008073ffffffffffffffffffffffffffffffffffffffff168273ffffffffffffffffffffffffffffffffffffffff1603610d695760006040517f89c62b64000000000000000000000000000000000000000000000000000000008152600401610d6091906131c0565b60405180910390fd5b600360008373ffffffffffffffffffffffffffffffffffffffff1673ffffffffffffffffffffffffffffffffffffffff168152602001908152602001600020549050919050565b610db86120cf565b610dc26000612156565b565b6060600c60008373ffffffffffffffffffffffffffffffffffffffff1673ffffffffffffffffffffffffffffffffffffffff168152602001908152602001600020805480602002602001604051908101604052809291908181526020018280548015610e4f57602002820191906000526020600020905b815481526020019060010190808311610e3b575b50505050509050919050565b6000600760009054906101000a900473ffffffffffffffffffffffffffffffffffffffff16905090565b606060018054610e9490613cfc565b80601f0160208091040260200160405190810160405280929190818152602001828054610ec090613cfc565b8015610f0d5780601f10610ee257610100808354040283529160200191610f0d565b820191906000526020600020905b815481529060010190602001808311610ef057829003601f168201915b5050505050905090565b610f29610f22611e9b565b838361221c565b5050565b3373ffffffffffffffffffffffffffffffffffffffff16610f4d83610ce4565b73ffffffffffffffffffffffffffffffffffffffff1614610fa3576040517f08c379a0000000000000000000000000000000000000000000000000000000008152600401610f9a90613db0565b60405180910390fd5b8273ffffffffffffffffffffffffffffffffffffffff16610fc382610ce4565b73ffffffffffffffffffffffffffffffffffffffff1614611019576040517f08c379a000000000000000000000000000000000000000000000000000000000815260040161101090613e1c565b60405180910390fd5b61102433848461238b565b61102f83338361238b565b8273ffffffffffffffffffffffffffffffffffffffff163373ffffffffffffffffffffffffffffffffffffffff167f24a3be0c5c512b15349ba426cca0182f3031c022d4022ef20349c1e5df6690388460405161108c9190613283565b60405180910390a3505050565b6000600a60003373ffffffffffffffffffffffffffffffffffffffff1673ffffffffffffffffffffffffffffffffffffffff168152602001908152602001600020541461111b576040517f08c379a000000000000000000000000000000000000000000000000000000000815260040161111290613e88565b60405180910390fd5b6008600081548092919061112e90613ed7565b91905055506000600854905060405180608001604052808781526020018681526020018581526020018481525060096000838152602001908152602001600020600082015181600001908161118391906140cb565b50602082015181600101908161119991906140cb565b5060408201518160020190816111af91906140cb565b5060608201518160030190816111c591906140cb565b5090505080600a60003373ffffffffffffffffffffffffffffffffffffffff1673ffffffffffffffffffffffffffffffffffffffff1681526020019081526020016000208190555061121733826124f8565b61122181836125f1565b803373ffffffffffffffffffffffffffffffffffffffff167f8793df92035bc0aa685973f692a332924aae0a3a8a46c48cea13e205c1897f0760405160405180910390a3505050505050565b6112788484846106fd565b61128c611283611e9b565b8585858561264d565b50505050565b3373ffffffffffffffffffffffffffffffffffffffff166112b282610ce4565b73ffffffffffffffffffffffffffffffffffffffff1614611308576040517f08c379a00000000000000000000000000000000000000000000000000000000081526004016112ff906141e9565b60405180910390fd5b600960008281526020019081526020016000206000808201600061132c9190612f3e565b60018201600061133c9190612f3e565b60028201600061134c9190612f3e565b60038201600061135c9190612f3e565b5050600a60003373ffffffffffffffffffffffffffffffffffffffff1673ffffffffffffffffffffffffffffffffffffffff168152602001908152602001600020600090556113aa816127fe565b50565b60606000825167ffffffffffffffff8111156113cc576113cb6135df565b5b60405190808252806020026020018201604052801561140557816020015b6113f2612f16565b8152602001906001900390816113ea5790505b50905060005b83518110156116bf576009600085838151811061142b5761142a614209565b5b6020026020010151815260200190815260200160002060405180608001604052908160008201805461145c90613cfc565b80601f016020809104026020016040519081016040528092919081815260200182805461148890613cfc565b80156114d55780601f106114aa576101008083540402835291602001916114d5565b820191906000526020600020905b8154815290600101906020018083116114b857829003601f168201915b505050505081526020016001820180546114ee90613cfc565b80601f016020809104026020016040519081016040528092919081815260200182805461151a90613cfc565b80156115675780601f1061153c57610100808354040283529160200191611567565b820191906000526020600020905b81548152906001019060200180831161154a57829003601f168201915b5050505050815260200160028201805461158090613cfc565b80601f01602080910402602001604051908101604052809291908181526020018280546115ac90613cfc565b80156115f95780601f106115ce576101008083540402835291602001916115f9565b820191906000526020600020905b8154815290600101906020018083116115dc57829003601f168201915b5050505050815260200160038201805461161290613cfc565b80601f016020809104026020016040519081016040528092919081815260200182805461163e90613cfc565b801561168b5780601f106116605761010080835404028352916020019161168b565b820191906000526020600020905b81548152906001019060200180831161166e57829003601f168201915b5050505050815250508282815181106116a7576116a6614209565b5b6020026020010181905250808060010191505061140b565b5080915050919050565b600b6020528160005260406000206020528060005260406000206000915091509054906101000a900460ff1681565b606061170382611dd6565b50600060066000848152602001908152602001600020805461172490613cfc565b80601f016020809104026020016040519081016040528092919081815260200182805461175090613cfc565b801561179d5780601f106117725761010080835404028352916020019161179d565b820191906000526020600020905b81548152906001019060200180831161178057829003601f168201915b5050505050905060006117ae612884565b905060008151036117c3578192505050611806565b6000825111156117f85780826040516020016117e0929190614274565b60405160208183030381529060405292505050611806565b6118018461289b565b925050505b919050565b3373ffffffffffffffffffffffffffffffffffffffff1661182b86610ce4565b73ffffffffffffffffffffffffffffffffffffffff1614611881576040517f08c379a0000000000000000000000000000000000000000000000000000000008152600401611878906142e4565b60405180910390fd5b836009600087815260200190815260200160002060010190816118a491906140cb565b50826009600087815260200190815260200160002060020190816118c891906140cb565b50816009600087815260200190815260200160002060030190816118ec91906140cb565b506118f785826125f1565b843373ffffffffffffffffffffffffffffffffffffffff167feded767027901935a7d774cbd93ad76c46cd00f5009ec95e7ec02f7c904102aa60405160405180910390a35050505050565b3373ffffffffffffffffffffffffffffffffffffffff1661196282610ce4565b73ffffffffffffffffffffffffffffffffffffffff16146119b8576040517f08c379a00000000000000000000000000000000000000000000000000000000081526004016119af906141e9565b60405180910390fd5b6001600b60008473ffffffffffffffffffffffffffffffffffffffff1673ffffffffffffffffffffffffffffffffffffffff168152602001908152602001600020600083815260200190815260200160002060006101000a81548160ff021916908315150217905550600c60008373ffffffffffffffffffffffffffffffffffffffff1673ffffffffffffffffffffffffffffffffffffffff1681526020019081526020016000208190806001815401808255809150506001900390600052602060002001600090919091909150558173ffffffffffffffffffffffffffffffffffffffff163373ffffffffffffffffffffffffffffffffffffffff167fa1d529b18967c562a493ddab9f1fcc2883782506ddfeab6d46adf01ef6bf05f783604051611ae49190613283565b60405180910390a35050565b6000600560008473ffffffffffffffffffffffffffffffffffffffff1673ffffffffffffffffffffffffffffffffffffffff16815260200190815260200160002060008373ffffffffffffffffffffffffffffffffffffffff1673ffffffffffffffffffffffffffffffffffffffff16815260200190815260200160002060009054906101000a900460ff16905092915050565b611b8c6120cf565b600073ffffffffffffffffffffffffffffffffffffffff168173ffffffffffffffffffffffffffffffffffffffff1603611bfe5760006040517f1e4fbdf7000000000000000000000000000000000000000000000000000000008152600401611bf591906131c0565b60405180910390fd5b611c0781612156565b50565b3373ffffffffffffffffffffffffffffffffffffffff16611c2a82610ce4565b73ffffffffffffffffffffffffffffffffffffffff1614611c80576040517f08c379a0000000000000000000000000000000000000000000000000000000008152600401611c77906142e4565b60405180910390fd5b611c8b33838361238b565b8173ffffffffffffffffffffffffffffffffffffffff163373ffffffffffffffffffffffffffffffffffffffff167f24a3be0c5c512b15349ba426cca0182f3031c022d4022ef20349c1e5df66903883604051611ce89190613283565b60405180910390a35050565b60007f80ac58cd000000000000000000000000000000000000000000000000000000007bffffffffffffffffffffffffffffffffffffffffffffffffffffffff1916827bffffffffffffffffffffffffffffffffffffffffffffffffffffffff19161480611dbf57507f5b5e139f000000000000000000000000000000000000000000000000000000007bffffffffffffffffffffffffffffffffffffffffffffffffffffffff1916827bffffffffffffffffffffffffffffffffffffffffffffffffffffffff1916145b80611dcf5750611dce82612904565b5b9050919050565b600080611de28361296e565b9050600073ffffffffffffffffffffffffffffffffffffffff168173ffffffffffffffffffffffffffffffffffffffff1603611e5557826040517f7e273289000000000000000000000000000000000000000000000000000000008152600401611e4c9190613283565b60405180910390fd5b80915050919050565b60006004600083815260200190815260200160002060009054906101000a900473ffffffffffffffffffffffffffffffffffffffff169050919050565b600033905090565b611eb083838360016129ab565b505050565b600080611ec18461296e565b9050600073ffffffffffffffffffffffffffffffffffffffff168373ffffffffffffffffffffffffffffffffffffffff1614611f0357611f02818486612b70565b5b600073ffffffffffffffffffffffffffffffffffffffff168173ffffffffffffffffffffffffffffffffffffffff1614611f9457611f456000856000806129ab565b6001600360008373ffffffffffffffffffffffffffffffffffffffff1673ffffffffffffffffffffffffffffffffffffffff168152602001908152602001600020600082825403925050819055505b600073ffffffffffffffffffffffffffffffffffffffff168573ffffffffffffffffffffffffffffffffffffffff1614612017576001600360008773ffffffffffffffffffffffffffffffffffffffff1673ffffffffffffffffffffffffffffffffffffffff168152602001908152602001600020600082825401925050819055505b846002600086815260200190815260200160002060006101000a81548173ffffffffffffffffffffffffffffffffffffffff021916908373ffffffffffffffffffffffffffffffffffffffff160217905550838573ffffffffffffffffffffffffffffffffffffffff168273ffffffffffffffffffffffffffffffffffffffff167fddf252ad1be2c89b69c2b068fc378daa952ba7f163c4a11628f55a4df523b3ef60405160405180910390a4809150509392505050565b6120d7611e9b565b73ffffffffffffffffffffffffffffffffffffffff166120f5610e5b565b73ffffffffffffffffffffffffffffffffffffffff161461215457612118611e9b565b6040517f118cdaa700000000000000000000000000000000000000000000000000000000815260040161214b91906131c0565b60405180910390fd5b565b6000600760009054906101000a900473ffffffffffffffffffffffffffffffffffffffff16905081600760006101000a81548173ffffffffffffffffffffffffffffffffffffffff021916908373ffffffffffffffffffffffffffffffffffffffff1602179055508173ffffffffffffffffffffffffffffffffffffffff168173ffffffffffffffffffffffffffffffffffffffff167f8be0079c531659141344cd1fd0a4f28419497f9722a3daafe3b4186f6b6457e060405160405180910390a35050565b600073ffffffffffffffffffffffffffffffffffffffff168273ffffffffffffffffffffffffffffffffffffffff160361228d57816040517f5b08ba1800000000000000000000000000000000000000000000000000000000815260040161228491906131c0565b60405180910390fd5b80600560008573ffffffffffffffffffffffffffffffffffffffff1673ffffffffffffffffffffffffffffffffffffffff16815260200190815260200160002060008473ffffffffffffffffffffffffffffffffffffffff1673ffffffffffffffffffffffffffffffffffffffff16815260200190815260200160002060006101000a81548160ff0219169083151502179055508173ffffffffffffffffffffffffffffffffffffffff168373ffffffffffffffffffffffffffffffffffffffff167f17307eab39ab6107e8899845ad3d59bd9653f200f220920489ca2b5937696c318360405161237e919061304f565b60405180910390a3505050565b600073ffffffffffffffffffffffffffffffffffffffff168273ffffffffffffffffffffffffffffffffffffffff16036123fd5760006040517f64a0ae920000000000000000000000000000000000000000000000000000000081526004016123f491906131c0565b60405180910390fd5b600061240b83836000611eb5565b9050600073ffffffffffffffffffffffffffffffffffffffff168173ffffffffffffffffffffffffffffffffffffffff160361247e57816040517f7e2732890000000000000000000000000000000000000000000000000000000081526004016124759190613283565b60405180910390fd5b8373ffffffffffffffffffffffffffffffffffffffff168173ffffffffffffffffffffffffffffffffffffffff16146124f2578382826040517f64283d7b0000000000000000000000000000000000000000000000000000000081526004016124e993929190613d2d565b60405180910390fd5b50505050565b600073ffffffffffffffffffffffffffffffffffffffff168273ffffffffffffffffffffffffffffffffffffffff160361256a5760006040517f64a0ae9200000000000000000000000000000000000000000000000000000000815260040161256191906131c0565b60405180910390fd5b600061257883836000611eb5565b9050600073ffffffffffffffffffffffffffffffffffffffff168173ffffffffffffffffffffffffffffffffffffffff16146125ec5760006040517f73c6ac6e0000000000000000000000000000000000000000000000000000000081526004016125e391906131c0565b60405180910390fd5b505050565b8060066000848152602001908152602001600020908161261191906140cb565b507ff8e1a15aba9398e019f0b49df1a4fde98ee17ae345cb5f6b5e2c27f5033e8ce7826040516126419190613283565b60405180910390a15050565b60008373ffffffffffffffffffffffffffffffffffffffff163b11156127f7578273ffffffffffffffffffffffffffffffffffffffff1663150b7a02868685856040518563ffffffff1660e01b81526004016126ac9493929190614359565b6020604051808303816000875af19250505080156126e857506040513d601f19601f820116820180604052508101906126e591906143ba565b60015b61276c573d8060008114612718576040519150601f19603f3d011682016040523d82523d6000602084013e61271d565b606091505b50600081510361276457836040517f64a0ae9200000000000000000000000000000000000000000000000000000000815260040161275b91906131c0565b60405180910390fd5b805181602001fd5b63150b7a0260e01b7bffffffffffffffffffffffffffffffffffffffffffffffffffffffff1916817bffffffffffffffffffffffffffffffffffffffffffffffffffffffff1916146127f557836040517f64a0ae920000000000000000000000000000000000000000000000000000000081526004016127ec91906131c0565b60405180910390fd5b505b5050505050565b600061280d6000836000611eb5565b9050600073ffffffffffffffffffffffffffffffffffffffff168173ffffffffffffffffffffffffffffffffffffffff160361288057816040517f7e2732890000000000000000000000000000000000000000000000000000000081526004016128779190613283565b60405180910390fd5b5050565b606060405180602001604052806000815250905090565b60606128a682611dd6565b5060006128b1612884565b905060008151116128d157604051806020016040528060008152506128fc565b806128db84612c34565b6040516020016128ec929190614274565b6040516020818303038152906040525b915050919050565b60007f01ffc9a7000000000000000000000000000000000000000000000000000000007bffffffffffffffffffffffffffffffffffffffffffffffffffffffff1916827bffffffffffffffffffffffffffffffffffffffffffffffffffffffff1916149050919050565b60006002600083815260200190815260200160002060009054906101000a900473ffffffffffffffffffffffffffffffffffffffff169050919050565b80806129e45750600073ffffffffffffffffffffffffffffffffffffffff168273ffffffffffffffffffffffffffffffffffffffff1614155b15612b185760006129f484611dd6565b9050600073ffffffffffffffffffffffffffffffffffffffff168373ffffffffffffffffffffffffffffffffffffffff1614158015612a5f57508273ffffffffffffffffffffffffffffffffffffffff168173ffffffffffffffffffffffffffffffffffffffff1614155b8015612a725750612a708184611af0565b155b15612ab457826040517fa9fbf51f000000000000000000000000000000000000000000000000000000008152600401612aab91906131c0565b60405180910390fd5b8115612b1657838573ffffffffffffffffffffffffffffffffffffffff168273ffffffffffffffffffffffffffffffffffffffff167f8c5be1e5ebec7d5bd14f71427d1e84f3dd0314c0f7b2291e5b200ac8c7c3b92560405160405180910390a45b505b836004600085815260200190815260200160002060006101000a81548173ffffffffffffffffffffffffffffffffffffffff021916908373ffffffffffffffffffffffffffffffffffffffff16021790555050505050565b612b7b838383612d02565b612c2f57600073ffffffffffffffffffffffffffffffffffffffff168373ffffffffffffffffffffffffffffffffffffffff1603612bf057806040517f7e273289000000000000000000000000000000000000000000000000000000008152600401612be79190613283565b60405180910390fd5b81816040517f177e802f000000000000000000000000000000000000000000000000000000008152600401612c269291906143e7565b60405180910390fd5b505050565b606060006001612c4384612dc3565b01905060008167ffffffffffffffff811115612c6257612c616135df565b5b6040519080825280601f01601f191660200182016040528015612c945781602001600182028036833780820191505090505b509050600082602001820190505b600115612cf7578080600190039150507f3031323334353637383961626364656600000000000000000000000000000000600a86061a8153600a8581612ceb57612cea614410565b5b04945060008503612ca2575b819350505050919050565b60008073ffffffffffffffffffffffffffffffffffffffff168373ffffffffffffffffffffffffffffffffffffffff1614158015612dba57508273ffffffffffffffffffffffffffffffffffffffff168473ffffffffffffffffffffffffffffffffffffffff161480612d7b5750612d7a8484611af0565b5b80612db957508273ffffffffffffffffffffffffffffffffffffffff16612da183611e5e565b73ffffffffffffffffffffffffffffffffffffffff16145b5b90509392505050565b600080600090507a184f03e93ff9f4daa797ed6e38ed64bf6a1f0100000000000000008310612e21577a184f03e93ff9f4daa797ed6e38ed64bf6a1f0100000000000000008381612e1757612e16614410565b5b0492506040810190505b6d04ee2d6d415b85acef81000000008310612e5e576d04ee2d6d415b85acef81000000008381612e5457612e53614410565b5b0492506020810190505b662386f26fc100008310612e8d57662386f26fc100008381612e8357612e82614410565b5b0492506010810190505b6305f5e1008310612eb6576305f5e1008381612eac57612eab614410565b5b0492506008810190505b6127108310612edb576127108381612ed157612ed0614410565b5b0492506004810190505b60648310612efe5760648381612ef457612ef3614410565b5b0492506002810190505b600a8310612f0d576001810190505b80915050919050565b6040518060800160405280606081526020016060815260200160608152602001606081525090565b508054612f4a90613cfc565b6000825580601f10612f5c5750612f7b565b601f016020900490600052602060002090810190612f7a9190612f7e565b5b50565b5b80821115612f97576000816000905550600101612f7f565b5090565b6000604051905090565b600080fd5b600080fd5b60007fffffffff0000000000000000000000000000000000000000000000000000000082169050919050565b612fe481612faf565b8114612fef57600080fd5b50565b60008135905061300181612fdb565b92915050565b60006020828403121561301d5761301c612fa5565b5b600061302b84828501612ff2565b91505092915050565b60008115159050919050565b61304981613034565b82525050565b60006020820190506130646000830184613040565b92915050565b600081519050919050565b600082825260208201905092915050565b60005b838110156130a4578082015181840152602081019050613089565b60008484015250505050565b6000601f19601f8301169050919050565b60006130cc8261306a565b6130d68185613075565b93506130e6818560208601613086565b6130ef816130b0565b840191505092915050565b6000602082019050818103600083015261311481846130c1565b905092915050565b6000819050919050565b61312f8161311c565b811461313a57600080fd5b50565b60008135905061314c81613126565b92915050565b60006020828403121561316857613167612fa5565b5b60006131768482850161313d565b91505092915050565b600073ffffffffffffffffffffffffffffffffffffffff82169050919050565b60006131aa8261317f565b9050919050565b6131ba8161319f565b82525050565b60006020820190506131d560008301846131b1565b92915050565b6131e48161319f565b81146131ef57600080fd5b50565b600081359050613201816131db565b92915050565b6000806040838503121561321e5761321d612fa5565b5b600061322c858286016131f2565b925050602061323d8582860161313d565b9150509250929050565b60006020828403121561325d5761325c612fa5565b5b600061326b848285016131f2565b91505092915050565b61327d8161311c565b82525050565b60006020820190506132986000830184613274565b92915050565b6000806000606084860312156132b7576132b6612fa5565b5b60006132c5868287016131f2565b93505060206132d6868287016131f2565b92505060406132e78682870161313d565b9150509250925092565b600082825260208201905092915050565b600061330d8261306a565b61331781856132f1565b9350613327818560208601613086565b613330816130b0565b840191505092915050565b600060808301600083015184820360008601526133588282613302565b915050602083015184820360208601526133728282613302565b9150506040830151848203604086015261338c8282613302565b915050606083015184820360608601526133a68282613302565b9150508091505092915050565b600060208201905081810360008301526133cd818461333b565b905092915050565b600060808201905081810360008301526133ef81876130c1565b9050818103602083015261340381866130c1565b9050818103604083015261341781856130c1565b9050818103606083015261342b81846130c1565b905095945050505050565b600081519050919050565b600082825260208201905092915050565b6000819050602082019050919050565b61346b8161311c565b82525050565b600061347d8383613462565b60208301905092915050565b6000602082019050919050565b60006134a182613436565b6134ab8185613441565b93506134b683613452565b8060005b838110156134e75781516134ce8882613471565b97506134d983613489565b9250506001810190506134ba565b5085935050505092915050565b6000602082019050818103600083015261350e8184613496565b905092915050565b61351f81613034565b811461352a57600080fd5b50565b60008135905061353c81613516565b92915050565b6000806040838503121561355957613558612fa5565b5b6000613567858286016131f2565b92505060206135788582860161352d565b9150509250929050565b60008060006060848603121561359b5761359a612fa5565b5b60006135a9868287016131f2565b93505060206135ba8682870161313d565b92505060406135cb8682870161313d565b9150509250925092565b600080fd5b600080fd5b7f4e487b7100000000000000000000000000000000000000000000000000000000600052604160045260246000fd5b613617826130b0565b810181811067ffffffffffffffff82111715613636576136356135df565b5b80604052505050565b6000613649612f9b565b9050613655828261360e565b919050565b600067ffffffffffffffff821115613675576136746135df565b5b61367e826130b0565b9050602081019050919050565b82818337600083830152505050565b60006136ad6136a88461365a565b61363f565b9050828152602081018484840111156136c9576136c86135da565b5b6136d484828561368b565b509392505050565b600082601f8301126136f1576136f06135d5565b5b813561370184826020860161369a565b91505092915050565b600080600080600060a0868803121561372657613725612fa5565b5b600086013567ffffffffffffffff81111561374457613743612faa565b5b613750888289016136dc565b955050602086013567ffffffffffffffff81111561377157613770612faa565b5b61377d888289016136dc565b945050604086013567ffffffffffffffff81111561379e5761379d612faa565b5b6137aa888289016136dc565b935050606086013567ffffffffffffffff8111156137cb576137ca612faa565b5b6137d7888289016136dc565b925050608086013567ffffffffffffffff8111156137f8576137f7612faa565b5b613804888289016136dc565b9150509295509295909350565b600067ffffffffffffffff82111561382c5761382b6135df565b5b613835826130b0565b9050602081019050919050565b600061385561385084613811565b61363f565b905082815260208101848484011115613871576138706135da565b5b61387c84828561368b565b509392505050565b600082601f830112613899576138986135d5565b5b81356138a9848260208601613842565b91505092915050565b600080600080608085870312156138cc576138cb612fa5565b5b60006138da878288016131f2565b94505060206138eb878288016131f2565b93505060406138fc8782880161313d565b925050606085013567ffffffffffffffff81111561391d5761391c612faa565b5b61392987828801613884565b91505092959194509250565b600067ffffffffffffffff8211156139505761394f6135df565b5b602082029050602081019050919050565b600080fd5b600061397961397484613935565b61363f565b9050808382526020820190506020840283018581111561399c5761399b613961565b5b835b818110156139c557806139b1888261313d565b84526020840193505060208101905061399e565b5050509392505050565b600082601f8301126139e4576139e36135d5565b5b81356139f4848260208601613966565b91505092915050565b600060208284031215613a1357613a12612fa5565b5b600082013567ffffffffffffffff811115613a3157613a30612faa565b5b613a3d848285016139cf565b91505092915050565b600081519050919050565b600082825260208201905092915050565b6000819050602082019050919050565b60006080830160008301518482036000860152613a8f8282613302565b91505060208301518482036020860152613aa98282613302565b91505060408301518482036040860152613ac38282613302565b91505060608301518482036060860152613add8282613302565b9150508091505092915050565b6000613af68383613a72565b905092915050565b6000602082019050919050565b6000613b1682613a46565b613b208185613a51565b935083602082028501613b3285613a62565b8060005b85811015613b6e5784840389528151613b4f8582613aea565b9450613b5a83613afe565b925060208a01995050600181019050613b36565b50829750879550505050505092915050565b60006020820190508181036000830152613b9a8184613b0b565b905092915050565b600080600080600060a08688031215613bbe57613bbd612fa5565b5b6000613bcc8882890161313d565b955050602086013567ffffffffffffffff811115613bed57613bec612faa565b5b613bf9888289016136dc565b945050604086013567ffffffffffffffff811115613c1a57613c19612faa565b5b613c26888289016136dc565b935050606086013567ffffffffffffffff811115613c4757613c46612faa565b5b613c53888289016136dc565b925050608086013567ffffffffffffffff811115613c7457613c73612faa565b5b613c80888289016136dc565b9150509295509295909350565b60008060408385031215613ca457613ca3612fa5565b5b6000613cb2858286016131f2565b9250506020613cc3858286016131f2565b9150509250929050565b7f4e487b7100000000000000000000000000000000000000000000000000000000600052602260045260246000fd5b60006002820490506001821680613d1457607f821691505b602082108103613d2757613d26613ccd565b5b50919050565b6000606082019050613d4260008301866131b1565b613d4f6020830185613274565b613d5c60408301846131b1565b949350505050565b7f596f75206d757374206f776e20796f7572206361726400000000000000000000600082015250565b6000613d9a601683613075565b9150613da582613d64565b602082019050919050565b60006020820190508181036000830152613dc981613d8d565b9050919050565b7f54686579206d757374206f776e20746865697220636172640000000000000000600082015250565b6000613e06601883613075565b9150613e1182613dd0565b602082019050919050565b60006020820190508181036000830152613e3581613df9565b9050919050565b7f416c7265616479206f776e73206120627573696e657373206361726400000000600082015250565b6000613e72601c83613075565b9150613e7d82613e3c565b602082019050919050565b60006020820190508181036000830152613ea181613e65565b9050919050565b7f4e487b7100000000000000000000000000000000000000000000000000000000600052601160045260246000fd5b6000613ee28261311c565b91507fffffffffffffffffffffffffffffffffffffffffffffffffffffffffffffffff8203613f1457613f13613ea8565b5b600182019050919050565b60008190508160005260206000209050919050565b60006020601f8301049050919050565b600082821b905092915050565b600060088302613f817fffffffffffffffffffffffffffffffffffffffffffffffffffffffffffffffff82613f44565b613f8b8683613f44565b95508019841693508086168417925050509392505050565b6000819050919050565b6000613fc8613fc3613fbe8461311c565b613fa3565b61311c565b9050919050565b6000819050919050565b613fe283613fad565b613ff6613fee82613fcf565b848454613f51565b825550505050565b600090565b61400b613ffe565b614016818484613fd9565b505050565b5b8181101561403a5761402f600082614003565b60018101905061401c565b5050565b601f82111561407f5761405081613f1f565b61405984613f34565b81016020851015614068578190505b61407c61407485613f34565b83018261401b565b50505b505050565b600082821c905092915050565b60006140a260001984600802614084565b1980831691505092915050565b60006140bb8383614091565b9150826002028217905092915050565b6140d48261306a565b67ffffffffffffffff8111156140ed576140ec6135df565b5b6140f78254613cfc565b61410282828561403e565b600060209050601f8311600181146141355760008415614123578287015190505b61412d85826140af565b865550614195565b601f19841661414386613f1f565b60005b8281101561416b57848901518255600182019150602085019450602081019050614146565b868310156141885784890151614184601f891682614091565b8355505b6001600288020188555050505b505050505050565b7f596f7520646f6e2774206f776e20746869732063617264000000000000000000600082015250565b60006141d3601783613075565b91506141de8261419d565b602082019050919050565b60006020820190508181036000830152614202816141c6565b9050919050565b7f4e487b7100000000000000000000000000000000000000000000000000000000600052603260045260246000fd5b600081905092915050565b600061424e8261306a565b6142588185614238565b9350614268818560208601613086565b80840191505092915050565b60006142808285614243565b915061428c8284614243565b91508190509392505050565b7f4e6f7420796f757220627573696e657373206361726400000000000000000000600082015250565b60006142ce601683613075565b91506142d982614298565b602082019050919050565b600060208201905081810360008301526142fd816142c1565b9050919050565b600081519050919050565b600082825260208201905092915050565b600061432b82614304565b614335818561430f565b9350614345818560208601613086565b61434e816130b0565b840191505092915050565b600060808201905061436e60008301876131b1565b61437b60208301866131b1565b6143886040830185613274565b818103606083015261439a8184614320565b905095945050505050565b6000815190506143b481612fdb565b92915050565b6000602082840312156143d0576143cf612fa5565b5b60006143de848285016143a5565b91505092915050565b60006040820190506143fc60008301856131b1565b6144096020830184613274565b9392505050565b7f4e487b7100000000000000000000000000000000000000000000000000000000600052601260045260246000fdfea264697066735822122020a1234a7696a9ee9de52f7519729c44729cb1e203ea437e12f77f2a8a47893364736f6c634300081c0033",
  "linkReferences": {},
  "deployedLinkReferences": {}
}