{
  "_format": "hh-sol-artifact-1",
  "contractName": "BusinessCard",
  "sourceName": "contracts/BusinessCard.sol",
  "abi": [
    {
      "inputs": [],
      "stateMutability": "nonpayable",
      "type": "constructor"
    },
    {
      "inputs": [
        {
          "internalType": "address",
          "name": "target",
          "type": "address"
        }
      ],
      "name": "AddressEmptyCode",
      "type": "error"
    },
    {
      "inputs": [
        {
          "internalType": "address",
          "name": "implementation",
          "type": "address"
        }
      ],
      "name": "ERC1967InvalidImplementation",
      "type": "error"
    },
    {
      "inputs": [],
      "name": "ERC1967NonPayable",
      "type": "error"
    },
    {
      "inputs": [
        {
          "internalType": "address",
          "name": "sender",
          "type": "address"
        },
        {
          "internalType": "uint256",
          "name": "tokenId",
          "type": "uint256"
        },
        {
          "internalType": "address",
          "name": "owner",
          "type": "address"
        }
      ],
      "name": "ERC721IncorrectOwner",
      "type": "error"
    },
    {
      "inputs": [
        {
          "internalType": "address",
          "name": "operator",
          "type": "address"
        },
        {
          "internalType": "uint256",
          "name": "tokenId",
          "type": "uint256"
        }
      ],
      "name": "ERC721InsufficientApproval",
      "type": "error"
    },
    {
      "inputs": [
        {
          "internalType": "address",
          "name": "approver",
          "type": "address"
        }
      ],
      "name": "ERC721InvalidApprover",
      "type": "error"
    },
    {
      "inputs": [
        {
          "internalType": "address",
          "name": "operator",
          "type": "address"
        }
      ],
      "name": "ERC721InvalidOperator",
      "type": "error"
    },
    {
      "inputs": [
        {
          "internalType": "address",
          "name": "owner",
          "type": "address"
        }
      ],
      "name": "ERC721InvalidOwner",
      "type": "error"
    },
    {
      "inputs": [
        {
          "internalType": "address",
          "name": "receiver",
          "type": "address"
        }
      ],
      "name": "ERC721InvalidReceiver",
      "type": "error"
    },
    {
      "inputs": [
        {
          "internalType": "address",
          "name": "sender",
          "type": "address"
        }
      ],
      "name": "ERC721InvalidSender",
      "type": "error"
    },
    {
      "inputs": [
        {
          "internalType": "uint256",
          "name": "tokenId",
          "type": "uint256"
        }
      ],
      "name": "ERC721NonexistentToken",
      "type": "error"
    },
    {
      "inputs": [],
      "name": "FailedCall",
      "type": "error"
    },
    {
      "inputs": [],
      "name": "InvalidInitialization",
      "type": "error"
    },
    {
      "inputs": [],
      "name": "NotInitializing",
      "type": "error"
    },
    {
      "inputs": [
        {
          "internalType": "address",
          "name": "owner",
          "type": "address"
        }
      ],
      "name": "OwnableInvalidOwner",
      "type": "error"
    },
    {
      "inputs": [
        {
          "internalType": "address",
          "name": "account",
          "type": "address"
        }
      ],
      "name": "OwnableUnauthorizedAccount",
      "type": "error"
    },
    {
      "inputs": [],
      "name": "UUPSUnauthorizedCallContext",
      "type": "error"
    },
    {
      "inputs": [
        {
          "internalType": "bytes32",
          "name": "slot",
          "type": "bytes32"
        }
      ],
      "name": "UUPSUnsupportedProxiableUUID",
      "type": "error"
    },
    {
      "anonymous": false,
      "inputs": [
        {
          "indexed": true,
          "internalType": "address",
          "name": "owner",
          "type": "address"
        },
        {
          "indexed": true,
          "internalType": "address",
          "name": "approved",
          "type": "address"
        },
        {
          "indexed": true,
          "internalType": "uint256",
          "name": "tokenId",
          "type": "uint256"
        }
      ],
      "name": "Approval",
      "type": "event"
    },
    {
      "anonymous": false,
      "inputs": [
        {
          "indexed": true,
          "internalType": "address",
          "name": "owner",
          "type": "address"
        },
        {
          "indexed": true,
          "internalType": "address",
          "name": "operator",
          "type": "address"
        },
        {
          "indexed": false,
          "internalType": "bool",
          "name": "approved",
          "type": "bool"
        }
      ],
      "name": "ApprovalForAll",
      "type": "event"
    },
    {
      "anonymous": false,
      "inputs": [
        {
          "indexed": false,
          "internalType": "uint256",
          "name": "_fromTokenId",
          "type": "uint256"
        },
        {
          "indexed": false,
          "internalType": "uint256",
          "name": "_toTokenId",
          "type": "uint256"
        }
      ],
      "name": "BatchMetadataUpdate",
      "type": "event"
    },
    {
      "anonymous": false,
      "inputs": [
        {
          "indexed": true,
          "internalType": "address",
          "name": "owner",
          "type": "address"
        },
        {
          "indexed": true,
          "internalType": "uint256",
          "name": "cardId",
          "type": "uint256"
        }
      ],
      "name": "BusinessCardMinted",
      "type": "event"
    },
    {
      "anonymous": false,
      "inputs": [
        {
          "indexed": true,
          "internalType": "address",
          "name": "owner",
          "type": "address"
        },
        {
          "indexed": true,
          "internalType": "address",
          "name": "renter",
          "type": "address"
        },
        {
          "indexed": false,
          "internalType": "uint256",
          "name": "cardId",
          "type": "uint256"
        }
      ],
      "name": "BusinessCardRentalEnded",
      "type": "event"
    },
    {
      "anonymous": false,
      "inputs": [
        {
          "indexed": true,
          "internalType": "address",
          "name": "owner",
          "type": "address"
        },
        {
          "indexed": true,
          "internalType": "address",
          "name": "renter",
          "type": "address"
        },
        {
          "indexed": false,
          "internalType": "uint256",
          "name": "cardId",
          "type": "uint256"
        },
        {
          "indexed": false,
          "internalType": "uint256",
          "name": "duration",
          "type": "uint256"
        }
      ],
      "name": "BusinessCardRented",
      "type": "event"
    },
    {
      "anonymous": false,
      "inputs": [
        {
          "indexed": true,
          "internalType": "address",
          "name": "from",
          "type": "address"
        },
        {
          "indexed": true,
          "internalType": "address",
          "name": "to",
          "type": "address"
        },
        {
          "indexed": false,
          "internalType": "uint256",
          "name": "cardId",
          "type": "uint256"
        }
      ],
      "name": "BusinessCardSent",
      "type": "event"
    },
    {
      "anonymous": false,
      "inputs": [
        {
          "indexed": true,
          "internalType": "address",
          "name": "from",
          "type": "address"
        },
        {
          "indexed": true,
          "internalType": "address",
          "name": "to",
          "type": "address"
        },
        {
          "indexed": false,
          "internalType": "uint256",
          "name": "myCardId",
          "type": "uint256"
        }
      ],
      "name": "BusinessCardTraded",
      "type": "event"
    },
    {
      "anonymous": false,
      "inputs": [
        {
          "indexed": true,
          "internalType": "address",
          "name": "owner",
          "type": "address"
        },
        {
          "indexed": true,
          "internalType": "uint256",
          "name": "cardId",
          "type": "uint256"
        }
      ],
      "name": "BusinessCardUpdated",
      "type": "event"
    },
    {
      "anonymous": false,
      "inputs": [
        {
          "indexed": false,
          "internalType": "uint64",
          "name": "version",
          "type": "uint64"
        }
      ],
      "name": "Initialized",
      "type": "event"
    },
    {
      "anonymous": false,
      "inputs": [
        {
          "indexed": false,
          "internalType": "uint256",
          "name": "_tokenId",
          "type": "uint256"
        }
      ],
      "name": "MetadataUpdate",
      "type": "event"
    },
    {
      "anonymous": false,
      "inputs": [
        {
          "indexed": true,
          "internalType": "address",
          "name": "previousOwner",
          "type": "address"
        },
        {
          "indexed": true,
          "internalType": "address",
          "name": "newOwner",
          "type": "address"
        }
      ],
      "name": "OwnershipTransferred",
      "type": "event"
    },
    {
      "anonymous": false,
      "inputs": [
        {
          "indexed": true,
          "internalType": "address",
          "name": "from",
          "type": "address"
        },
        {
          "indexed": true,
          "internalType": "address",
          "name": "to",
          "type": "address"
        },
        {
          "indexed": true,
          "internalType": "uint256",
          "name": "tokenId",
          "type": "uint256"
        }
      ],
      "name": "Transfer",
      "type": "event"
    },
    {
      "anonymous": false,
      "inputs": [
        {
          "indexed": true,
          "internalType": "address",
          "name": "implementation",
          "type": "address"
        }
      ],
      "name": "Upgraded",
      "type": "event"
    },
    {
      "inputs": [],
      "name": "UPGRADE_INTERFACE_VERSION",
      "outputs": [
        {
          "internalType": "string",
          "name": "",
          "type": "string"
        }
      ],
      "stateMutability": "view",
      "type": "function"
    },
    {
      "inputs": [
        {
          "internalType": "address",
          "name": "to",
          "type": "address"
        },
        {
          "internalType": "uint256",
          "name": "tokenId",
          "type": "uint256"
        }
      ],
      "name": "approve",
      "outputs": [],
      "stateMutability": "nonpayable",
      "type": "function"
    },
    {
      "inputs": [
        {
          "internalType": "address",
          "name": "",
          "type": "address"
        }
      ],
      "name": "approvedCardSenders",
      "outputs": [
        {
          "internalType": "bool",
          "name": "",
          "type": "bool"
        }
      ],
      "stateMutability": "view",
      "type": "function"
    },
    {
      "inputs": [
        {
          "internalType": "address",
          "name": "owner",
          "type": "address"
        }
      ],
      "name": "balanceOf",
      "outputs": [
        {
          "internalType": "uint256",
          "name": "",
          "type": "uint256"
        }
      ],
      "stateMutability": "view",
      "type": "function"
    },
    {
      "inputs": [
        {
          "internalType": "uint256",
          "name": "",
          "type": "uint256"
        }
      ],
      "name": "businessCards",
      "outputs": [
        {
          "internalType": "string",
          "name": "name",
          "type": "string"
        },
        {
          "internalType": "string",
          "name": "title",
          "type": "string"
        },
        {
          "internalType": "string",
          "name": "company",
          "type": "string"
        },
        {
          "internalType": "string",
          "name": "contactInfo",
          "type": "string"
        }
      ],
      "stateMutability": "view",
      "type": "function"
    },
    {
      "inputs": [
        {
          "internalType": "uint256",
          "name": "",
          "type": "uint256"
        }
      ],
      "name": "cardRentals",
      "outputs": [
        {
          "internalType": "address",
          "name": "renter",
          "type": "address"
        },
        {
          "internalType": "uint256",
          "name": "startTime",
          "type": "uint256"
        },
        {
          "internalType": "uint256",
          "name": "endTime",
          "type": "uint256"
        },
        {
          "internalType": "bool",
          "name": "isActive",
          "type": "bool"
        }
      ],
      "stateMutability": "view",
      "type": "function"
    },
    {
      "inputs": [
        {
          "internalType": "uint256",
          "name": "_cardId",
          "type": "uint256"
        }
      ],
      "name": "endRental",
      "outputs": [],
      "stateMutability": "nonpayable",
      "type": "function"
    },
    {
      "inputs": [
        {
          "internalType": "uint256",
          "name": "tokenId",
          "type": "uint256"
        }
      ],
      "name": "getApproved",
      "outputs": [
        {
          "internalType": "address",
          "name": "",
          "type": "address"
        }
      ],
      "stateMutability": "view",
      "type": "function"
    },
    {
      "inputs": [
        {
          "internalType": "uint256",
          "name": "_cardId",
          "type": "uint256"
        }
      ],
      "name": "getBusinessCard",
      "outputs": [
        {
          "components": [
            {
              "internalType": "string",
              "name": "name",
              "type": "string"
            },
            {
              "internalType": "string",
              "name": "title",
              "type": "string"
            },
            {
              "internalType": "string",
              "name": "company",
              "type": "string"
            },
            {
              "internalType": "string",
              "name": "contactInfo",
              "type": "string"
            }
          ],
          "internalType": "struct BusinessCard.CardDetails",
          "name": "",
          "type": "tuple"
        }
      ],
      "stateMutability": "view",
      "type": "function"
    },
    {
      "inputs": [
        {
          "internalType": "uint256[]",
          "name": "_cardIds",
          "type": "uint256[]"
        }
      ],
      "name": "getMultipleBusinessCards",
      "outputs": [
        {
          "components": [
            {
              "internalType": "string",
              "name": "name",
              "type": "string"
            },
            {
              "internalType": "string",
              "name": "title",
              "type": "string"
            },
            {
              "internalType": "string",
              "name": "company",
              "type": "string"
            },
            {
              "internalType": "string",
              "name": "contactInfo",
              "type": "string"
            }
          ],
          "internalType": "struct BusinessCard.CardDetails[]",
          "name": "",
          "type": "tuple[]"
        }
      ],
      "stateMutability": "view",
      "type": "function"
    },
    {
      "inputs": [
        {
          "internalType": "address",
          "name": "_owner",
          "type": "address"
        }
      ],
      "name": "getReceivedCards",
      "outputs": [
        {
          "internalType": "uint256[]",
          "name": "",
          "type": "uint256[]"
        }
      ],
      "stateMutability": "view",
      "type": "function"
    },
    {
      "inputs": [
        {
          "internalType": "uint256",
          "name": "_cardId",
          "type": "uint256"
        }
      ],
      "name": "getRentalStatus",
      "outputs": [
        {
          "internalType": "bool",
          "name": "isRented",
          "type": "bool"
        },
        {
          "internalType": "address",
          "name": "renter",
          "type": "address"
        },
        {
          "internalType": "uint256",
          "name": "remainingTime",
          "type": "uint256"
        }
      ],
      "stateMutability": "view",
      "type": "function"
    },
    {
      "inputs": [],
      "name": "getRentedCards",
      "outputs": [
        {
          "internalType": "uint256[]",
          "name": "cardIds",
          "type": "uint256[]"
        },
        {
          "components": [
            {
              "internalType": "string",
              "name": "name",
              "type": "string"
            },
            {
              "internalType": "string",
              "name": "title",
              "type": "string"
            },
            {
              "internalType": "string",
              "name": "company",
              "type": "string"
            },
            {
              "internalType": "string",
              "name": "contactInfo",
              "type": "string"
            }
          ],
          "internalType": "struct BusinessCard.CardDetails[]",
          "name": "cards",
          "type": "tuple[]"
        },
        {
          "internalType": "uint256[]",
          "name": "remainingTimes",
          "type": "uint256[]"
        }
      ],
      "stateMutability": "view",
      "type": "function"
    },
    {
      "inputs": [],
      "name": "initialize",
      "outputs": [],
      "stateMutability": "nonpayable",
      "type": "function"
    },
    {
      "inputs": [
        {
          "internalType": "address",
          "name": "owner",
          "type": "address"
        },
        {
          "internalType": "address",
          "name": "operator",
          "type": "address"
        }
      ],
      "name": "isApprovedForAll",
      "outputs": [
        {
          "internalType": "bool",
          "name": "",
          "type": "bool"
        }
      ],
      "stateMutability": "view",
      "type": "function"
    },
    {
      "inputs": [
        {
          "internalType": "string",
          "name": "_name",
          "type": "string"
        },
        {
          "internalType": "string",
          "name": "_title",
          "type": "string"
        },
        {
          "internalType": "string",
          "name": "_company",
          "type": "string"
        },
        {
          "internalType": "string",
          "name": "_contactInfo",
          "type": "string"
        },
        {
          "internalType": "string",
          "name": "_tokenURI",
          "type": "string"
        }
      ],
      "name": "mintBusinessCard",
      "outputs": [],
      "stateMutability": "nonpayable",
      "type": "function"
    },
    {
      "inputs": [],
      "name": "name",
      "outputs": [
        {
          "internalType": "string",
          "name": "",
          "type": "string"
        }
      ],
      "stateMutability": "view",
      "type": "function"
    },
    {
      "inputs": [],
      "name": "owner",
      "outputs": [
        {
          "internalType": "address",
          "name": "",
          "type": "address"
        }
      ],
      "stateMutability": "view",
      "type": "function"
    },
    {
      "inputs": [
        {
          "internalType": "uint256",
          "name": "tokenId",
          "type": "uint256"
        }
      ],
      "name": "ownerOf",
      "outputs": [
        {
          "internalType": "address",
          "name": "",
          "type": "address"
        }
      ],
      "stateMutability": "view",
      "type": "function"
    },
    {
      "inputs": [],
      "name": "proxiableUUID",
      "outputs": [
        {
          "internalType": "bytes32",
          "name": "",
          "type": "bytes32"
        }
      ],
      "stateMutability": "view",
      "type": "function"
    },
    {
      "inputs": [
        {
          "internalType": "address",
          "name": "",
          "type": "address"
        },
        {
          "internalType": "uint256",
          "name": "",
          "type": "uint256"
        }
      ],
      "name": "receivedCards",
      "outputs": [
        {
          "internalType": "bool",
          "name": "",
          "type": "bool"
        }
      ],
      "stateMutability": "view",
      "type": "function"
    },
    {
      "inputs": [],
      "name": "renounceOwnership",
      "outputs": [],
      "stateMutability": "nonpayable",
      "type": "function"
    },
    {
      "inputs": [
        {
          "internalType": "uint256",
          "name": "_cardId",
          "type": "uint256"
        },
        {
          "internalType": "address",
          "name": "_renter",
          "type": "address"
        },
        {
          "internalType": "uint256",
          "name": "_duration",
          "type": "uint256"
        }
      ],
      "name": "rentBusinessCard",
      "outputs": [],
      "stateMutability": "nonpayable",
      "type": "function"
    },
    {
      "inputs": [
        {
          "internalType": "address",
          "name": "from",
          "type": "address"
        },
        {
          "internalType": "address",
          "name": "to",
          "type": "address"
        },
        {
          "internalType": "uint256",
          "name": "tokenId",
          "type": "uint256"
        }
      ],
      "name": "safeTransferFrom",
      "outputs": [],
      "stateMutability": "nonpayable",
      "type": "function"
    },
    {
      "inputs": [
        {
          "internalType": "address",
          "name": "from",
          "type": "address"
        },
        {
          "internalType": "address",
          "name": "to",
          "type": "address"
        },
        {
          "internalType": "uint256",
          "name": "tokenId",
          "type": "uint256"
        },
        {
          "internalType": "bytes",
          "name": "data",
          "type": "bytes"
        }
      ],
      "name": "safeTransferFrom",
      "outputs": [],
      "stateMutability": "nonpayable",
      "type": "function"
    },
    {
      "inputs": [
        {
          "internalType": "address",
          "name": "_to",
          "type": "address"
        },
        {
          "internalType": "uint256",
          "name": "_cardId",
          "type": "uint256"
        }
      ],
      "name": "sendBusinessCard",
      "outputs": [],
      "stateMutability": "nonpayable",
      "type": "function"
    },
    {
      "inputs": [
        {
          "internalType": "address",
          "name": "operator",
          "type": "address"
        },
        {
          "internalType": "bool",
          "name": "approved",
          "type": "bool"
        }
      ],
      "name": "setApprovalForAll",
      "outputs": [],
      "stateMutability": "nonpayable",
      "type": "function"
    },
    {
      "inputs": [
        {
          "internalType": "address",
          "name": "_cardSender",
          "type": "address"
        },
        {
          "internalType": "bool",
          "name": "_isApproved",
          "type": "bool"
        }
      ],
      "name": "setCardSender",
      "outputs": [],
      "stateMutability": "nonpayable",
      "type": "function"
    },
    {
      "inputs": [
        {
          "internalType": "bytes4",
          "name": "interfaceId",
          "type": "bytes4"
        }
      ],
      "name": "supportsInterface",
      "outputs": [
        {
          "internalType": "bool",
          "name": "",
          "type": "bool"
        }
      ],
      "stateMutability": "view",
      "type": "function"
    },
    {
      "inputs": [],
      "name": "symbol",
      "outputs": [
        {
          "internalType": "string",
          "name": "",
          "type": "string"
        }
      ],
      "stateMutability": "view",
      "type": "function"
    },
    {
      "inputs": [
        {
          "internalType": "uint256",
          "name": "tokenId",
          "type": "uint256"
        }
      ],
      "name": "tokenURI",
      "outputs": [
        {
          "internalType": "string",
          "name": "",
          "type": "string"
        }
      ],
      "stateMutability": "view",
      "type": "function"
    },
    {
      "inputs": [
        {
          "internalType": "address",
          "name": "from",
          "type": "address"
        },
        {
          "internalType": "address",
          "name": "to",
          "type": "address"
        },
        {
          "internalType": "uint256",
          "name": "tokenId",
          "type": "uint256"
        }
      ],
      "name": "transferFrom",
      "outputs": [],
      "stateMutability": "nonpayable",
      "type": "function"
    },
    {
      "inputs": [
        {
          "internalType": "address",
          "name": "newOwner",
          "type": "address"
        }
      ],
      "name": "transferOwnership",
      "outputs": [],
      "stateMutability": "nonpayable",
      "type": "function"
    },
    {
      "inputs": [
        {
          "internalType": "uint256",
          "name": "_cardId",
          "type": "uint256"
        },
        {
          "internalType": "string",
          "name": "_title",
          "type": "string"
        },
        {
          "internalType": "string",
          "name": "_company",
          "type": "string"
        },
        {
          "internalType": "string",
          "name": "_contactInfo",
          "type": "string"
        },
        {
          "internalType": "string",
          "name": "_tokenURI",
          "type": "string"
        }
      ],
      "name": "updateBusinessCard",
      "outputs": [],
      "stateMutability": "nonpayable",
      "type": "function"
    },
    {
      "inputs": [
        {
          "internalType": "address",
          "name": "newImplementation",
          "type": "address"
        },
        {
          "internalType": "bytes",
          "name": "data",
          "type": "bytes"
        }
      ],
      "name": "upgradeToAndCall",
      "outputs": [],
      "stateMutability": "payable",
      "type": "function"
    },
    {
      "inputs": [
        {
          "internalType": "address",
          "name": "",
          "type": "address"
        }
      ],
      "name": "userCard",
      "outputs": [
        {
          "internalType": "uint256",
          "name": "",
          "type": "uint256"
        }
      ],
      "stateMutability": "view",
      "type": "function"
    }
  ],
  "bytecode": "0x60a06040523073ffffffffffffffffffffffffffffffffffffffff1660809073ffffffffffffffffffffffffffffffffffffffff1681525034801561004357600080fd5b5061005261005760201b60201c565b6101c1565b600061006761015b60201b60201c565b90508060000160089054906101000a900460ff16156100b2576040517ff92ee8a900000000000000000000000000000000000000000000000000000000815260040160405180910390fd5b67ffffffffffffffff80168160000160009054906101000a900467ffffffffffffffff1667ffffffffffffffff16146101585767ffffffffffffffff8160000160006101000a81548167ffffffffffffffff021916908367ffffffffffffffff1602179055507fc7f505b2f371ae2175ee4913f4499e1f2633a7b5936321eed1cdaeb6115181d267ffffffffffffffff60405161014f91906101a6565b60405180910390a15b50565b60007ff0c57e16840df040f15088dc2f81fe391c3923bec73e23a9662efc9c229c6a00905090565b600067ffffffffffffffff82169050919050565b6101a081610183565b82525050565b60006020820190506101bb6000830184610197565b92915050565b608051615d746101ea60003960008181612f7101528181612fc601526131810152615d746000f3fe60806040526004361061020f5760003560e01c8063950dbc4611610118578063bf15987e116100a0578063d2e9c45f1161006f578063d2e9c45f146107f2578063dc3ad23c1461081b578063dd9c96db14610844578063e985e9c514610883578063f2fde38b146108c05761020f565b8063bf15987e14610712578063c39c77a21461074f578063c87b56dd1461078c578063cbaf6325146107c95761020f565b8063aac9618e116100e7578063aac9618e14610618578063ad3cb1cc14610655578063adca289a14610680578063b2d5cc87146106c0578063b88d4fde146106e95761020f565b8063950dbc461461057257806395d89b411461059b57806397491d6f146105c6578063a22cb465146105ef5761020f565b806352d1902d1161019b578063715018a61161016a578063715018a6146104af5780637a148238146104c65780638129fc1c146105035780638da5cb5b1461051a5780639323c933146105455761020f565b806352d1902d146103ca5780635c9dcfdf146103f55780636352211e1461043557806370a08231146104725761020f565b806311e20494116101e257806311e20494146102e257806323b872dd1461031f578063277ce8ec1461034857806342842e0e146103855780634f1ef286146103ae5761020f565b806301ffc9a71461021457806306fdde0314610251578063081812fc1461027c578063095ea7b3146102b9575b600080fd5b34801561022057600080fd5b5061023b60048036038101906102369190614575565b6108e9565b60405161024891906145bd565b60405180910390f35b34801561025d57600080fd5b5061026661094a565b6040516102739190614668565b60405180910390f35b34801561028857600080fd5b506102a3600480360381019061029e91906146c0565b6109eb565b6040516102b0919061472e565b60405180910390f35b3480156102c557600080fd5b506102e060048036038101906102db9190614775565b610a07565b005b3480156102ee57600080fd5b50610309600480360381019061030491906147b5565b610a1d565b60405161031691906147f1565b60405180910390f35b34801561032b57600080fd5b506103466004803603810190610341919061480c565b610a35565b005b34801561035457600080fd5b5061036f600480360381019061036a91906146c0565b610b37565b60405161037c9190614921565b60405180910390f35b34801561039157600080fd5b506103ac60048036038101906103a7919061480c565b610dac565b005b6103c860048036038101906103c39190614a78565b610dcc565b005b3480156103d657600080fd5b506103df610deb565b6040516103ec9190614aed565b60405180910390f35b34801561040157600080fd5b5061041c600480360381019061041791906146c0565b610e1e565b60405161042c9493929190614b08565b60405180910390f35b34801561044157600080fd5b5061045c600480360381019061045791906146c0565b61106e565b604051610469919061472e565b60405180910390f35b34801561047e57600080fd5b50610499600480360381019061049491906147b5565b611080565b6040516104a691906147f1565b60405180910390f35b3480156104bb57600080fd5b506104c4611149565b005b3480156104d257600080fd5b506104ed60048036038101906104e891906147b5565b61115d565b6040516104fa9190614c27565b60405180910390f35b34801561050f57600080fd5b506105186111f4565b005b34801561052657600080fd5b5061052f611406565b60405161053c919061472e565b60405180910390f35b34801561055157600080fd5b5061055a61143e565b60405161056993929190614d83565b60405180910390f35b34801561057e57600080fd5b5061059960048036038101906105949190614dcf565b6119bb565b005b3480156105a757600080fd5b506105b0611c18565b6040516105bd9190614668565b60405180910390f35b3480156105d257600080fd5b506105ed60048036038101906105e891906146c0565b611cb9565b005b3480156105fb57600080fd5b5061061660048036038101906106119190614e4e565b611ed3565b005b34801561062457600080fd5b5061063f600480360381019061063a91906147b5565b611ee9565b60405161064c91906145bd565b60405180910390f35b34801561066157600080fd5b5061066a611f09565b6040516106779190614668565b60405180910390f35b34801561068c57600080fd5b506106a760048036038101906106a291906146c0565b611f42565b6040516106b79493929190614e8e565b60405180910390f35b3480156106cc57600080fd5b506106e760048036038101906106e29190614f74565b611f9f565b005b3480156106f557600080fd5b50610710600480360381019061070b919061507b565b612171565b005b34801561071e57600080fd5b50610739600480360381019061073491906151c6565b612196565b604051610746919061520f565b60405180910390f35b34801561075b57600080fd5b5061077660048036038101906107719190614775565b6124b2565b60405161078391906145bd565b60405180910390f35b34801561079857600080fd5b506107b360048036038101906107ae91906146c0565b6124e1565b6040516107c09190614668565b60405180910390f35b3480156107d557600080fd5b506107f060048036038101906107eb9190614e4e565b612605565b005b3480156107fe57600080fd5b5061081960048036038101906108149190615231565b612668565b005b34801561082757600080fd5b50610842600480360381019061083d9190614775565b61279f565b005b34801561085057600080fd5b5061086b600480360381019061086691906146c0565b61291f565b60405161087a9392919061531c565b60405180910390f35b34801561088f57600080fd5b506108aa60048036038101906108a59190615353565b612a23565b6040516108b791906145bd565b60405180910390f35b3480156108cc57600080fd5b506108e760048036038101906108e291906147b5565b612ac5565b005b6000634906490660e01b7bffffffffffffffffffffffffffffffffffffffffffffffffffffffff1916827bffffffffffffffffffffffffffffffffffffffffffffffffffffffff19161480610943575061094282612b4b565b5b9050919050565b60606000610956612c2d565b9050806000018054610967906153c2565b80601f0160208091040260200160405190810160405280929190818152602001828054610993906153c2565b80156109e05780601f106109b5576101008083540402835291602001916109e0565b820191906000526020600020905b8154815290600101906020018083116109c357829003601f168201915b505050505091505090565b60006109f682612c55565b50610a0082612cdd565b9050919050565b610a198282610a14612d28565b612d30565b5050565b60026020528060005260406000206000915090505481565b600073ffffffffffffffffffffffffffffffffffffffff168273ffffffffffffffffffffffffffffffffffffffff1603610aa75760006040517f64a0ae92000000000000000000000000000000000000000000000000000000008152600401610a9e919061472e565b60405180910390fd5b6000610abb8383610ab6612d28565b612d42565b90508373ffffffffffffffffffffffffffffffffffffffff168173ffffffffffffffffffffffffffffffffffffffff1614610b31578382826040517f64283d7b000000000000000000000000000000000000000000000000000000008152600401610b28939291906153f3565b60405180910390fd5b50505050565b610b3f6144e1565b60016000838152602001908152602001600020604051806080016040529081600082018054610b6d906153c2565b80601f0160208091040260200160405190810160405280929190818152602001828054610b99906153c2565b8015610be65780601f10610bbb57610100808354040283529160200191610be6565b820191906000526020600020905b815481529060010190602001808311610bc957829003601f168201915b50505050508152602001600182018054610bff906153c2565b80601f0160208091040260200160405190810160405280929190818152602001828054610c2b906153c2565b8015610c785780601f10610c4d57610100808354040283529160200191610c78565b820191906000526020600020905b815481529060010190602001808311610c5b57829003601f168201915b50505050508152602001600282018054610c91906153c2565b80601f0160208091040260200160405190810160405280929190818152602001828054610cbd906153c2565b8015610d0a5780601f10610cdf57610100808354040283529160200191610d0a565b820191906000526020600020905b815481529060010190602001808311610ced57829003601f168201915b50505050508152602001600382018054610d23906153c2565b80601f0160208091040260200160405190810160405280929190818152602001828054610d4f906153c2565b8015610d9c5780601f10610d7157610100808354040283529160200191610d9c565b820191906000526020600020905b815481529060010190602001808311610d7f57829003601f168201915b5050505050815250509050919050565b610dc783838360405180602001604052806000815250612171565b505050565b610dd4612f6f565b610ddd82613055565b610de78282613060565b5050565b6000610df561317f565b7f360894a13ba1a3210667c828492db98dca3e2076cc3735a920a3ca505d382bbc60001b905090565b6001602052806000526040600020600091509050806000018054610e41906153c2565b80601f0160208091040260200160405190810160405280929190818152602001828054610e6d906153c2565b8015610eba5780601f10610e8f57610100808354040283529160200191610eba565b820191906000526020600020905b815481529060010190602001808311610e9d57829003601f168201915b505050505090806001018054610ecf906153c2565b80601f0160208091040260200160405190810160405280929190818152602001828054610efb906153c2565b8015610f485780601f10610f1d57610100808354040283529160200191610f48565b820191906000526020600020905b815481529060010190602001808311610f2b57829003601f168201915b505050505090806002018054610f5d906153c2565b80601f0160208091040260200160405190810160405280929190818152602001828054610f89906153c2565b8015610fd65780601f10610fab57610100808354040283529160200191610fd6565b820191906000526020600020905b815481529060010190602001808311610fb957829003601f168201915b505050505090806003018054610feb906153c2565b80601f0160208091040260200160405190810160405280929190818152602001828054611017906153c2565b80156110645780601f1061103957610100808354040283529160200191611064565b820191906000526020600020905b81548152906001019060200180831161104757829003601f168201915b5050505050905084565b600061107982612c55565b9050919050565b60008061108b612c2d565b9050600073ffffffffffffffffffffffffffffffffffffffff168373ffffffffffffffffffffffffffffffffffffffff16036110ff5760006040517f89c62b640000000000000000000000000000000000000000000000000000000081526004016110f6919061472e565b60405180910390fd5b8060030160008473ffffffffffffffffffffffffffffffffffffffff1673ffffffffffffffffffffffffffffffffffffffff16815260200190815260200160002054915050919050565b611151613206565b61115b600061328d565b565b6060600460008373ffffffffffffffffffffffffffffffffffffffff1673ffffffffffffffffffffffffffffffffffffffff1681526020019081526020016000208054806020026020016040519081016040528092919081815260200182805480156111e857602002820191906000526020600020905b8154815260200190600101908083116111d4575b50505050509050919050565b60006111fe613364565b905060008160000160089054906101000a900460ff1615905060008260000160009054906101000a900467ffffffffffffffff1690506000808267ffffffffffffffff1614801561124c5750825b9050600060018367ffffffffffffffff16148015611281575060003073ffffffffffffffffffffffffffffffffffffffff163b145b90508115801561128f575080155b156112c6576040517ff92ee8a900000000000000000000000000000000000000000000000000000000815260040160405180910390fd5b60018560000160006101000a81548167ffffffffffffffff021916908367ffffffffffffffff16021790555083156113165760018560000160086101000a81548160ff0219169083151502179055505b61138a6040518060400160405280600c81526020017f427573696e6573734361726400000000000000000000000000000000000000008152506040518060400160405280600581526020017f424341524400000000000000000000000000000000000000000000000000000081525061338c565b611393336133a2565b61139b6133b6565b6113a36133c0565b83156113ff5760008560000160086101000a81548160ff0219169083151502179055507fc7f505b2f371ae2175ee4913f4499e1f2633a7b5936321eed1cdaeb6115181d260016040516113f69190615483565b60405180910390a15b5050505050565b6000806114116133ca565b90508060000160009054906101000a900473ffffffffffffffffffffffffffffffffffffffff1691505090565b60608060606000600660003373ffffffffffffffffffffffffffffffffffffffff1673ffffffffffffffffffffffffffffffffffffffff1681526020019081526020016000208054806020026020016040519081016040528092919081815260200182805480156114ce57602002820191906000526020600020905b8154815260200190600101908083116114ba575b5050505050905060004290506000805b835181101561155d5760008482815181106114fc576114fb61549e565b5b6020026020010151905060006005600083815260200190815260200160002090508060030160009054906101000a900460ff16801561153e5750848160020154115b15611550578361154d906154fc565b93505b50508060010190506114de565b508067ffffffffffffffff8111156115785761157761494d565b5b6040519080825280602002602001820160405280156115a65781602001602082028036833780820191505090505b5095508067ffffffffffffffff8111156115c3576115c261494d565b5b6040519080825280602002602001820160405280156115fc57816020015b6115e96144e1565b8152602001906001900390816115e15790505b5094508067ffffffffffffffff8111156116195761161861494d565b5b6040519080825280602002602001820160405280156116475781602001602082028036833780820191505090505b5093506000805b84518110801561165d57508282105b156119b15760008582815181106116775761167661549e565b5b6020026020010151905060006005600083815260200190815260200160002090508060030160009054906101000a900460ff1680156116b95750858160020154115b1561199e57818a85815181106116d2576116d161549e565b5b6020026020010181815250506001600083815260200190815260200160002060405180608001604052908160008201805461170c906153c2565b80601f0160208091040260200160405190810160405280929190818152602001828054611738906153c2565b80156117855780601f1061175a57610100808354040283529160200191611785565b820191906000526020600020905b81548152906001019060200180831161176857829003601f168201915b5050505050815260200160018201805461179e906153c2565b80601f01602080910402602001604051908101604052809291908181526020018280546117ca906153c2565b80156118175780601f106117ec57610100808354040283529160200191611817565b820191906000526020600020905b8154815290600101906020018083116117fa57829003601f168201915b50505050508152602001600282018054611830906153c2565b80601f016020809104026020016040519081016040528092919081815260200182805461185c906153c2565b80156118a95780601f1061187e576101008083540402835291602001916118a9565b820191906000526020600020905b81548152906001019060200180831161188c57829003601f168201915b505050505081526020016003820180546118c2906153c2565b80601f01602080910402602001604051908101604052809291908181526020018280546118ee906153c2565b801561193b5780601f106119105761010080835404028352916020019161193b565b820191906000526020600020905b81548152906001019060200180831161191e57829003601f168201915b5050505050815250508985815181106119575761195661549e565b5b60200260200101819052508581600201546119729190615544565b8885815181106119855761198461549e565b5b6020026020010181815250508361199b906154fc565b93505b5050806119aa906154fc565b905061164e565b5050505050909192565b3373ffffffffffffffffffffffffffffffffffffffff166119db8461106e565b73ffffffffffffffffffffffffffffffffffffffff16148015611a1f57506005600084815260200190815260200160002060030160009054906101000a900460ff16155b8015611a2b5750600081115b611a6a576040517f08c379a0000000000000000000000000000000000000000000000000000000008152600401611a61906155c4565b60405180910390fd5b600042905060405180608001604052808473ffffffffffffffffffffffffffffffffffffffff1681526020018281526020018383611aa891906155e4565b8152602001600115158152506005600086815260200190815260200160002060008201518160000160006101000a81548173ffffffffffffffffffffffffffffffffffffffff021916908373ffffffffffffffffffffffffffffffffffffffff160217905550602082015181600101556040820151816002015560608201518160030160006101000a81548160ff021916908315150217905550905050600660008473ffffffffffffffffffffffffffffffffffffffff1673ffffffffffffffffffffffffffffffffffffffff1681526020019081526020016000208490806001815401808255809150506001900390600052602060002001600090919091909150558273ffffffffffffffffffffffffffffffffffffffff163373ffffffffffffffffffffffffffffffffffffffff167f949c005e87942354438f522ef9214ae727f5f31c528b9dccc6d512dbfe9067a28685604051611c0a929190615618565b60405180910390a350505050565b60606000611c24612c2d565b9050806001018054611c35906153c2565b80601f0160208091040260200160405190810160405280929190818152602001828054611c61906153c2565b8015611cae5780601f10611c8357610100808354040283529160200191611cae565b820191906000526020600020905b815481529060010190602001808311611c9157829003601f168201915b505050505091505090565b3373ffffffffffffffffffffffffffffffffffffffff16611cd98261106e565b73ffffffffffffffffffffffffffffffffffffffff161480611d5c57503373ffffffffffffffffffffffffffffffffffffffff166005600083815260200190815260200160002060000160009054906101000a900473ffffffffffffffffffffffffffffffffffffffff1673ffffffffffffffffffffffffffffffffffffffff16145b611d9b576040517f08c379a0000000000000000000000000000000000000000000000000000000008152600401611d92906156b3565b60405180910390fd5b6005600082815260200190815260200160002060030160009054906101000a900460ff16611dfe576040517f08c379a0000000000000000000000000000000000000000000000000000000008152600401611df59061571f565b60405180910390fd5b60006005600083815260200190815260200160002060030160006101000a81548160ff0219169083151502179055506005600082815260200190815260200160002060000160009054906101000a900473ffffffffffffffffffffffffffffffffffffffff1673ffffffffffffffffffffffffffffffffffffffff16611e838261106e565b73ffffffffffffffffffffffffffffffffffffffff167f735a2f4708e061da5752e832eb27cc68468060e645064074b6595fd92243540883604051611ec891906147f1565b60405180910390a350565b611ee5611ede612d28565b83836133f2565b5050565b60076020528060005260406000206000915054906101000a900460ff1681565b6040518060400160405280600581526020017f352e302e3000000000000000000000000000000000000000000000000000000081525081565b60056020528060005260406000206000915090508060000160009054906101000a900473ffffffffffffffffffffffffffffffffffffffff16908060010154908060020154908060030160009054906101000a900460ff16905084565b6000600260003373ffffffffffffffffffffffffffffffffffffffff1673ffffffffffffffffffffffffffffffffffffffff1681526020019081526020016000205414612021576040517f08c379a00000000000000000000000000000000000000000000000000000000081526004016120189061578b565b60405180910390fd5b600080815480929190612033906154fc565b9190505550600080549050604051806080016040528087815260200186815260200185815260200184815250600160008381526020019081526020016000206000820151816000019081612087919061594d565b50602082015181600101908161209d919061594d565b5060408201518160020190816120b3919061594d565b5060608201518160030190816120c9919061594d565b5090505080600260003373ffffffffffffffffffffffffffffffffffffffff1673ffffffffffffffffffffffffffffffffffffffff1681526020019081526020016000208190555061211b3382613570565b6121258183613669565b803373ffffffffffffffffffffffffffffffffffffffff167f8793df92035bc0aa685973f692a332924aae0a3a8a46c48cea13e205c1897f0760405160405180910390a3505050505050565b61217c848484610a35565b612190612187612d28565b858585856136d4565b50505050565b60606000825167ffffffffffffffff8111156121b5576121b461494d565b5b6040519080825280602002602001820160405280156121ee57816020015b6121db6144e1565b8152602001906001900390816121d35790505b50905060005b83518110156124a857600160008583815181106122145761221361549e565b5b60200260200101518152602001908152602001600020604051806080016040529081600082018054612245906153c2565b80601f0160208091040260200160405190810160405280929190818152602001828054612271906153c2565b80156122be5780601f10612293576101008083540402835291602001916122be565b820191906000526020600020905b8154815290600101906020018083116122a157829003601f168201915b505050505081526020016001820180546122d7906153c2565b80601f0160208091040260200160405190810160405280929190818152602001828054612303906153c2565b80156123505780601f1061232557610100808354040283529160200191612350565b820191906000526020600020905b81548152906001019060200180831161233357829003601f168201915b50505050508152602001600282018054612369906153c2565b80601f0160208091040260200160405190810160405280929190818152602001828054612395906153c2565b80156123e25780601f106123b7576101008083540402835291602001916123e2565b820191906000526020600020905b8154815290600101906020018083116123c557829003601f168201915b505050505081526020016003820180546123fb906153c2565b80601f0160208091040260200160405190810160405280929190818152602001828054612427906153c2565b80156124745780601f1061244957610100808354040283529160200191612474565b820191906000526020600020905b81548152906001019060200180831161245757829003601f168201915b5050505050815250508282815181106124905761248f61549e565b5b602002602001018190525080806001019150506121f4565b5080915050919050565b60036020528160005260406000206020528060005260406000206000915091509054906101000a900460ff1681565b606060006124ed613885565b90506124f883612c55565b506000816000016000858152602001908152602001600020805461251b906153c2565b80601f0160208091040260200160405190810160405280929190818152602001828054612547906153c2565b80156125945780601f1061256957610100808354040283529160200191612594565b820191906000526020600020905b81548152906001019060200180831161257757829003601f168201915b5050505050905060006125a56138ad565b905060008151036125bb57819350505050612600565b6000825111156125f15780826040516020016125d8929190615a5b565b6040516020818303038152906040529350505050612600565b6125fa856138c4565b93505050505b919050565b61260d613206565b80600760008473ffffffffffffffffffffffffffffffffffffffff1673ffffffffffffffffffffffffffffffffffffffff16815260200190815260200160002060006101000a81548160ff0219169083151502179055505050565b3373ffffffffffffffffffffffffffffffffffffffff166126888661106e565b73ffffffffffffffffffffffffffffffffffffffff16146126de576040517f08c379a00000000000000000000000000000000000000000000000000000000081526004016126d590615acb565b60405180910390fd5b83600160008781526020019081526020016000206001019081612701919061594d565b5082600160008781526020019081526020016000206002019081612725919061594d565b5081600160008781526020019081526020016000206003019081612749919061594d565b506127548582613669565b843373ffffffffffffffffffffffffffffffffffffffff167feded767027901935a7d774cbd93ad76c46cd00f5009ec95e7ec02f7c904102aa60405160405180910390a35050505050565b6127a88161392d565b6127e7576040517f08c379a00000000000000000000000000000000000000000000000000000000081526004016127de90615b37565b60405180910390fd5b6001600360008473ffffffffffffffffffffffffffffffffffffffff1673ffffffffffffffffffffffffffffffffffffffff168152602001908152602001600020600083815260200190815260200160002060006101000a81548160ff021916908315150217905550600460008373ffffffffffffffffffffffffffffffffffffffff1673ffffffffffffffffffffffffffffffffffffffff1681526020019081526020016000208190806001815401808255809150506001900390600052602060002001600090919091909150558173ffffffffffffffffffffffffffffffffffffffff163373ffffffffffffffffffffffffffffffffffffffff167fa1d529b18967c562a493ddab9f1fcc2883782506ddfeab6d46adf01ef6bf05f78360405161291391906147f1565b60405180910390a35050565b600080600080600560008681526020019081526020016000206040518060800160405290816000820160009054906101000a900473ffffffffffffffffffffffffffffffffffffffff1673ffffffffffffffffffffffffffffffffffffffff1673ffffffffffffffffffffffffffffffffffffffff16815260200160018201548152602001600282015481526020016003820160009054906101000a900460ff161515151581525050905080606001516129e457600080600093509350935050612a1c565b6000428260400151116129f8576000612a09565b428260400151612a089190615544565b5b9050600182600001518294509450945050505b9193909250565b600080612a2e612c2d565b90508060050160008573ffffffffffffffffffffffffffffffffffffffff1673ffffffffffffffffffffffffffffffffffffffff16815260200190815260200160002060008473ffffffffffffffffffffffffffffffffffffffff1673ffffffffffffffffffffffffffffffffffffffff16815260200190815260200160002060009054906101000a900460ff1691505092915050565b612acd613206565b600073ffffffffffffffffffffffffffffffffffffffff168173ffffffffffffffffffffffffffffffffffffffff1603612b3f5760006040517f1e4fbdf7000000000000000000000000000000000000000000000000000000008152600401612b36919061472e565b60405180910390fd5b612b488161328d565b50565b60007f80ac58cd000000000000000000000000000000000000000000000000000000007bffffffffffffffffffffffffffffffffffffffffffffffffffffffff1916827bffffffffffffffffffffffffffffffffffffffffffffffffffffffff19161480612c1657507f5b5e139f000000000000000000000000000000000000000000000000000000007bffffffffffffffffffffffffffffffffffffffffffffffffffffffff1916827bffffffffffffffffffffffffffffffffffffffffffffffffffffffff1916145b80612c265750612c2582613a59565b5b9050919050565b60007f80bb2b638cc20bc4d0a60d66940f3ab4a00c1d7b313497ca82fb0b4ab0079300905090565b600080612c6183613ac3565b9050600073ffffffffffffffffffffffffffffffffffffffff168173ffffffffffffffffffffffffffffffffffffffff1603612cd457826040517f7e273289000000000000000000000000000000000000000000000000000000008152600401612ccb91906147f1565b60405180910390fd5b80915050919050565b600080612ce8612c2d565b905080600401600084815260200190815260200160002060009054906101000a900473ffffffffffffffffffffffffffffffffffffffff16915050919050565b600033905090565b612d3d8383836001613b0e565b505050565b600080612d4d612c2d565b90506000612d5a85613ac3565b9050600073ffffffffffffffffffffffffffffffffffffffff168473ffffffffffffffffffffffffffffffffffffffff1614612d9c57612d9b818587613ce2565b5b600073ffffffffffffffffffffffffffffffffffffffff168173ffffffffffffffffffffffffffffffffffffffff1614612e2f57612dde600086600080613b0e565b60018260030160008373ffffffffffffffffffffffffffffffffffffffff1673ffffffffffffffffffffffffffffffffffffffff168152602001908152602001600020600082825403925050819055505b600073ffffffffffffffffffffffffffffffffffffffff168673ffffffffffffffffffffffffffffffffffffffff1614612eb45760018260030160008873ffffffffffffffffffffffffffffffffffffffff1673ffffffffffffffffffffffffffffffffffffffff168152602001908152602001600020600082825401925050819055505b8582600201600087815260200190815260200160002060006101000a81548173ffffffffffffffffffffffffffffffffffffffff021916908373ffffffffffffffffffffffffffffffffffffffff160217905550848673ffffffffffffffffffffffffffffffffffffffff168273ffffffffffffffffffffffffffffffffffffffff167fddf252ad1be2c89b69c2b068fc378daa952ba7f163c4a11628f55a4df523b3ef60405160405180910390a480925050509392505050565b7f000000000000000000000000000000000000000000000000000000000000000073ffffffffffffffffffffffffffffffffffffffff163073ffffffffffffffffffffffffffffffffffffffff16148061301c57507f000000000000000000000000000000000000000000000000000000000000000073ffffffffffffffffffffffffffffffffffffffff16613003613da6565b73ffffffffffffffffffffffffffffffffffffffff1614155b15613053576040517fe07c8dba00000000000000000000000000000000000000000000000000000000815260040160405180910390fd5b565b61305d613206565b50565b8173ffffffffffffffffffffffffffffffffffffffff166352d1902d6040518163ffffffff1660e01b8152600401602060405180830381865afa9250505080156130c857506040513d601f19601f820116820180604052508101906130c59190615b83565b60015b61310957816040517f4c9c8ce3000000000000000000000000000000000000000000000000000000008152600401613100919061472e565b60405180910390fd5b7f360894a13ba1a3210667c828492db98dca3e2076cc3735a920a3ca505d382bbc60001b811461317057806040517faa1d49a40000000000000000000000000000000000000000000000000000000081526004016131679190614aed565b60405180910390fd5b61317a8383613dfd565b505050565b7f000000000000000000000000000000000000000000000000000000000000000073ffffffffffffffffffffffffffffffffffffffff163073ffffffffffffffffffffffffffffffffffffffff1614613204576040517fe07c8dba00000000000000000000000000000000000000000000000000000000815260040160405180910390fd5b565b61320e612d28565b73ffffffffffffffffffffffffffffffffffffffff1661322c611406565b73ffffffffffffffffffffffffffffffffffffffff161461328b5761324f612d28565b6040517f118cdaa7000000000000000000000000000000000000000000000000000000008152600401613282919061472e565b60405180910390fd5b565b60006132976133ca565b905060008160000160009054906101000a900473ffffffffffffffffffffffffffffffffffffffff169050828260000160006101000a81548173ffffffffffffffffffffffffffffffffffffffff021916908373ffffffffffffffffffffffffffffffffffffffff1602179055508273ffffffffffffffffffffffffffffffffffffffff168173ffffffffffffffffffffffffffffffffffffffff167f8be0079c531659141344cd1fd0a4f28419497f9722a3daafe3b4186f6b6457e060405160405180910390a3505050565b60007ff0c57e16840df040f15088dc2f81fe391c3923bec73e23a9662efc9c229c6a00905090565b613394613e70565b61339e8282613eb0565b5050565b6133aa613e70565b6133b381613eed565b50565b6133be613e70565b565b6133c8613e70565b565b60007f9016d09d72d40fdae2fd8ceac6b6234c7706214fd39c1cd1e609a0528c199300905090565b60006133fc612c2d565b9050600073ffffffffffffffffffffffffffffffffffffffff168373ffffffffffffffffffffffffffffffffffffffff160361346f57826040517f5b08ba18000000000000000000000000000000000000000000000000000000008152600401613466919061472e565b60405180910390fd5b818160050160008673ffffffffffffffffffffffffffffffffffffffff1673ffffffffffffffffffffffffffffffffffffffff16815260200190815260200160002060008573ffffffffffffffffffffffffffffffffffffffff1673ffffffffffffffffffffffffffffffffffffffff16815260200190815260200160002060006101000a81548160ff0219169083151502179055508273ffffffffffffffffffffffffffffffffffffffff168473ffffffffffffffffffffffffffffffffffffffff167f17307eab39ab6107e8899845ad3d59bd9653f200f220920489ca2b5937696c318460405161356291906145bd565b60405180910390a350505050565b600073ffffffffffffffffffffffffffffffffffffffff168273ffffffffffffffffffffffffffffffffffffffff16036135e25760006040517f64a0ae920000000000000000000000000000000000000000000000000000000081526004016135d9919061472e565b60405180910390fd5b60006135f083836000612d42565b9050600073ffffffffffffffffffffffffffffffffffffffff168173ffffffffffffffffffffffffffffffffffffffff16146136645760006040517f73c6ac6e00000000000000000000000000000000000000000000000000000000815260040161365b919061472e565b60405180910390fd5b505050565b6000613673613885565b9050818160000160008581526020019081526020016000209081613697919061594d565b507ff8e1a15aba9398e019f0b49df1a4fde98ee17ae345cb5f6b5e2c27f5033e8ce7836040516136c791906147f1565b60405180910390a1505050565b60008373ffffffffffffffffffffffffffffffffffffffff163b111561387e578273ffffffffffffffffffffffffffffffffffffffff1663150b7a02868685856040518563ffffffff1660e01b81526004016137339493929190615c05565b6020604051808303816000875af192505050801561376f57506040513d601f19601f8201168201806040525081019061376c9190615c66565b60015b6137f3573d806000811461379f576040519150601f19603f3d011682016040523d82523d6000602084013e6137a4565b606091505b5060008151036137eb57836040517f64a0ae920000000000000000000000000000000000000000000000000000000081526004016137e2919061472e565b60405180910390fd5b805181602001fd5b63150b7a0260e01b7bffffffffffffffffffffffffffffffffffffffffffffffffffffffff1916817bffffffffffffffffffffffffffffffffffffffffffffffffffffffff19161461387c57836040517f64a0ae92000000000000000000000000000000000000000000000000000000008152600401613873919061472e565b60405180910390fd5b505b5050505050565b60007f0542a41881ee128a365a727b282c86fa859579490b9bb45aab8503648c8e7900905090565b606060405180602001604052806000815250905090565b60606138cf82612c55565b5060006138da6138ad565b905060008151116138fa5760405180602001604052806000815250613925565b8061390484613f73565b604051602001613915929190615a5b565b6040516020818303038152906040525b915050919050565b60003373ffffffffffffffffffffffffffffffffffffffff1661394f8361106e565b73ffffffffffffffffffffffffffffffffffffffff1614806139fe57506005600083815260200190815260200160002060030160009054906101000a900460ff1680156139fd57503373ffffffffffffffffffffffffffffffffffffffff166005600084815260200190815260200160002060000160009054906101000a900473ffffffffffffffffffffffffffffffffffffffff1673ffffffffffffffffffffffffffffffffffffffff16145b5b80613a525750600760003373ffffffffffffffffffffffffffffffffffffffff1673ffffffffffffffffffffffffffffffffffffffff16815260200190815260200160002060009054906101000a900460ff165b9050919050565b60007f01ffc9a7000000000000000000000000000000000000000000000000000000007bffffffffffffffffffffffffffffffffffffffffffffffffffffffff1916827bffffffffffffffffffffffffffffffffffffffffffffffffffffffff1916149050919050565b600080613ace612c2d565b905080600201600084815260200190815260200160002060009054906101000a900473ffffffffffffffffffffffffffffffffffffffff16915050919050565b6000613b18612c2d565b90508180613b535750600073ffffffffffffffffffffffffffffffffffffffff168373ffffffffffffffffffffffffffffffffffffffff1614155b15613c87576000613b6385612c55565b9050600073ffffffffffffffffffffffffffffffffffffffff168473ffffffffffffffffffffffffffffffffffffffff1614158015613bce57508373ffffffffffffffffffffffffffffffffffffffff168173ffffffffffffffffffffffffffffffffffffffff1614155b8015613be15750613bdf8185612a23565b155b15613c2357836040517fa9fbf51f000000000000000000000000000000000000000000000000000000008152600401613c1a919061472e565b60405180910390fd5b8215613c8557848673ffffffffffffffffffffffffffffffffffffffff168273ffffffffffffffffffffffffffffffffffffffff167f8c5be1e5ebec7d5bd14f71427d1e84f3dd0314c0f7b2291e5b200ac8c7c3b92560405160405180910390a45b505b8481600401600086815260200190815260200160002060006101000a81548173ffffffffffffffffffffffffffffffffffffffff021916908373ffffffffffffffffffffffffffffffffffffffff1602179055505050505050565b613ced838383614041565b613da157600073ffffffffffffffffffffffffffffffffffffffff168373ffffffffffffffffffffffffffffffffffffffff1603613d6257806040517f7e273289000000000000000000000000000000000000000000000000000000008152600401613d5991906147f1565b60405180910390fd5b81816040517f177e802f000000000000000000000000000000000000000000000000000000008152600401613d98929190615c93565b60405180910390fd5b505050565b6000613dd47f360894a13ba1a3210667c828492db98dca3e2076cc3735a920a3ca505d382bbc60001b614102565b60000160009054906101000a900473ffffffffffffffffffffffffffffffffffffffff16905090565b613e068261410c565b8173ffffffffffffffffffffffffffffffffffffffff167fbc7cd75a20ee27fd9adebab32041f755214dbc6bffa90cc0225b39da2e5c2d3b60405160405180910390a2600081511115613e6357613e5d82826141d9565b50613e6c565b613e6b61425d565b5b5050565b613e7861429a565b613eae576040517fd7e6bcf800000000000000000000000000000000000000000000000000000000815260040160405180910390fd5b565b613eb8613e70565b6000613ec2612c2d565b905082816000019081613ed5919061594d565b5081816001019081613ee7919061594d565b50505050565b613ef5613e70565b600073ffffffffffffffffffffffffffffffffffffffff168173ffffffffffffffffffffffffffffffffffffffff1603613f675760006040517f1e4fbdf7000000000000000000000000000000000000000000000000000000008152600401613f5e919061472e565b60405180910390fd5b613f708161328d565b50565b606060006001613f82846142ba565b01905060008167ffffffffffffffff811115613fa157613fa061494d565b5b6040519080825280601f01601f191660200182016040528015613fd35781602001600182028036833780820191505090505b509050600082602001820190505b600115614036578080600190039150507f3031323334353637383961626364656600000000000000000000000000000000600a86061a8153600a858161402a57614029615cbc565b5b04945060008503613fe1575b819350505050919050565b60008073ffffffffffffffffffffffffffffffffffffffff168373ffffffffffffffffffffffffffffffffffffffff16141580156140f957508273ffffffffffffffffffffffffffffffffffffffff168473ffffffffffffffffffffffffffffffffffffffff1614806140ba57506140b98484612a23565b5b806140f857508273ffffffffffffffffffffffffffffffffffffffff166140e083612cdd565b73ffffffffffffffffffffffffffffffffffffffff16145b5b90509392505050565b6000819050919050565b60008173ffffffffffffffffffffffffffffffffffffffff163b0361416857806040517f4c9c8ce300000000000000000000000000000000000000000000000000000000815260040161415f919061472e565b60405180910390fd5b806141957f360894a13ba1a3210667c828492db98dca3e2076cc3735a920a3ca505d382bbc60001b614102565b60000160006101000a81548173ffffffffffffffffffffffffffffffffffffffff021916908373ffffffffffffffffffffffffffffffffffffffff16021790555050565b60606000808473ffffffffffffffffffffffffffffffffffffffff16846040516142039190615d27565b600060405180830381855af49150503d806000811461423e576040519150601f19603f3d011682016040523d82523d6000602084013e614243565b606091505b509150915061425385838361440d565b9250505092915050565b6000341115614298576040517fb398979f00000000000000000000000000000000000000000000000000000000815260040160405180910390fd5b565b60006142a4613364565b60000160089054906101000a900460ff16905090565b600080600090507a184f03e93ff9f4daa797ed6e38ed64bf6a1f0100000000000000008310614318577a184f03e93ff9f4daa797ed6e38ed64bf6a1f010000000000000000838161430e5761430d615cbc565b5b0492506040810190505b6d04ee2d6d415b85acef81000000008310614355576d04ee2d6d415b85acef8100000000838161434b5761434a615cbc565b5b0492506020810190505b662386f26fc10000831061438457662386f26fc10000838161437a57614379615cbc565b5b0492506010810190505b6305f5e10083106143ad576305f5e10083816143a3576143a2615cbc565b5b0492506008810190505b61271083106143d25761271083816143c8576143c7615cbc565b5b0492506004810190505b606483106143f557606483816143eb576143ea615cbc565b5b0492506002810190505b600a8310614404576001810190505b80915050919050565b6060826144225761441d8261449c565b614494565b6000825114801561444a575060008473ffffffffffffffffffffffffffffffffffffffff163b145b1561448c57836040517f9996b315000000000000000000000000000000000000000000000000000000008152600401614483919061472e565b60405180910390fd5b819050614495565b5b9392505050565b6000815111156144af5780518082602001fd5b6040517fd6bda27500000000000000000000000000000000000000000000000000000000815260040160405180910390fd5b6040518060800160405280606081526020016060815260200160608152602001606081525090565b6000604051905090565b600080fd5b600080fd5b60007fffffffff0000000000000000000000000000000000000000000000000000000082169050919050565b6145528161451d565b811461455d57600080fd5b50565b60008135905061456f81614549565b92915050565b60006020828403121561458b5761458a614513565b5b600061459984828501614560565b91505092915050565b60008115159050919050565b6145b7816145a2565b82525050565b60006020820190506145d260008301846145ae565b92915050565b600081519050919050565b600082825260208201905092915050565b60005b838110156146125780820151818401526020810190506145f7565b60008484015250505050565b6000601f19601f8301169050919050565b600061463a826145d8565b61464481856145e3565b93506146548185602086016145f4565b61465d8161461e565b840191505092915050565b60006020820190508181036000830152614682818461462f565b905092915050565b6000819050919050565b61469d8161468a565b81146146a857600080fd5b50565b6000813590506146ba81614694565b92915050565b6000602082840312156146d6576146d5614513565b5b60006146e4848285016146ab565b91505092915050565b600073ffffffffffffffffffffffffffffffffffffffff82169050919050565b6000614718826146ed565b9050919050565b6147288161470d565b82525050565b6000602082019050614743600083018461471f565b92915050565b6147528161470d565b811461475d57600080fd5b50565b60008135905061476f81614749565b92915050565b6000806040838503121561478c5761478b614513565b5b600061479a85828601614760565b92505060206147ab858286016146ab565b9150509250929050565b6000602082840312156147cb576147ca614513565b5b60006147d984828501614760565b91505092915050565b6147eb8161468a565b82525050565b600060208201905061480660008301846147e2565b92915050565b60008060006060848603121561482557614824614513565b5b600061483386828701614760565b935050602061484486828701614760565b9250506040614855868287016146ab565b9150509250925092565b600082825260208201905092915050565b600061487b826145d8565b614885818561485f565b93506148958185602086016145f4565b61489e8161461e565b840191505092915050565b600060808301600083015184820360008601526148c68282614870565b915050602083015184820360208601526148e08282614870565b915050604083015184820360408601526148fa8282614870565b915050606083015184820360608601526149148282614870565b9150508091505092915050565b6000602082019050818103600083015261493b81846148a9565b905092915050565b600080fd5b600080fd5b7f4e487b7100000000000000000000000000000000000000000000000000000000600052604160045260246000fd5b6149858261461e565b810181811067ffffffffffffffff821117156149a4576149a361494d565b5b80604052505050565b60006149b7614509565b90506149c3828261497c565b919050565b600067ffffffffffffffff8211156149e3576149e261494d565b5b6149ec8261461e565b9050602081019050919050565b82818337600083830152505050565b6000614a1b614a16846149c8565b6149ad565b905082815260208101848484011115614a3757614a36614948565b5b614a428482856149f9565b509392505050565b600082601f830112614a5f57614a5e614943565b5b8135614a6f848260208601614a08565b91505092915050565b60008060408385031215614a8f57614a8e614513565b5b6000614a9d85828601614760565b925050602083013567ffffffffffffffff811115614abe57614abd614518565b5b614aca85828601614a4a565b9150509250929050565b6000819050919050565b614ae781614ad4565b82525050565b6000602082019050614b026000830184614ade565b92915050565b60006080820190508181036000830152614b22818761462f565b90508181036020830152614b36818661462f565b90508181036040830152614b4a818561462f565b90508181036060830152614b5e818461462f565b905095945050505050565b600081519050919050565b600082825260208201905092915050565b6000819050602082019050919050565b614b9e8161468a565b82525050565b6000614bb08383614b95565b60208301905092915050565b6000602082019050919050565b6000614bd482614b69565b614bde8185614b74565b9350614be983614b85565b8060005b83811015614c1a578151614c018882614ba4565b9750614c0c83614bbc565b925050600181019050614bed565b5085935050505092915050565b60006020820190508181036000830152614c418184614bc9565b905092915050565b600081519050919050565b600082825260208201905092915050565b6000819050602082019050919050565b60006080830160008301518482036000860152614c928282614870565b91505060208301518482036020860152614cac8282614870565b91505060408301518482036040860152614cc68282614870565b91505060608301518482036060860152614ce08282614870565b9150508091505092915050565b6000614cf98383614c75565b905092915050565b6000602082019050919050565b6000614d1982614c49565b614d238185614c54565b935083602082028501614d3585614c65565b8060005b85811015614d715784840389528151614d528582614ced565b9450614d5d83614d01565b925060208a01995050600181019050614d39565b50829750879550505050505092915050565b60006060820190508181036000830152614d9d8186614bc9565b90508181036020830152614db18185614d0e565b90508181036040830152614dc58184614bc9565b9050949350505050565b600080600060608486031215614de857614de7614513565b5b6000614df6868287016146ab565b9350506020614e0786828701614760565b9250506040614e18868287016146ab565b9150509250925092565b614e2b816145a2565b8114614e3657600080fd5b50565b600081359050614e4881614e22565b92915050565b60008060408385031215614e6557614e64614513565b5b6000614e7385828601614760565b9250506020614e8485828601614e39565b9150509250929050565b6000608082019050614ea3600083018761471f565b614eb060208301866147e2565b614ebd60408301856147e2565b614eca60608301846145ae565b95945050505050565b600067ffffffffffffffff821115614eee57614eed61494d565b5b614ef78261461e565b9050602081019050919050565b6000614f17614f1284614ed3565b6149ad565b905082815260208101848484011115614f3357614f32614948565b5b614f3e8482856149f9565b509392505050565b600082601f830112614f5b57614f5a614943565b5b8135614f6b848260208601614f04565b91505092915050565b600080600080600060a08688031215614f9057614f8f614513565b5b600086013567ffffffffffffffff811115614fae57614fad614518565b5b614fba88828901614f46565b955050602086013567ffffffffffffffff811115614fdb57614fda614518565b5b614fe788828901614f46565b945050604086013567ffffffffffffffff81111561500857615007614518565b5b61501488828901614f46565b935050606086013567ffffffffffffffff81111561503557615034614518565b5b61504188828901614f46565b925050608086013567ffffffffffffffff81111561506257615061614518565b5b61506e88828901614f46565b9150509295509295909350565b6000806000806080858703121561509557615094614513565b5b60006150a387828801614760565b94505060206150b487828801614760565b93505060406150c5878288016146ab565b925050606085013567ffffffffffffffff8111156150e6576150e5614518565b5b6150f287828801614a4a565b91505092959194509250565b600067ffffffffffffffff8211156151195761511861494d565b5b602082029050602081019050919050565b600080fd5b600061514261513d846150fe565b6149ad565b905080838252602082019050602084028301858111156151655761516461512a565b5b835b8181101561518e578061517a88826146ab565b845260208401935050602081019050615167565b5050509392505050565b600082601f8301126151ad576151ac614943565b5b81356151bd84826020860161512f565b91505092915050565b6000602082840312156151dc576151db614513565b5b600082013567ffffffffffffffff8111156151fa576151f9614518565b5b61520684828501615198565b91505092915050565b600060208201905081810360008301526152298184614d0e565b905092915050565b600080600080600060a0868803121561524d5761524c614513565b5b600061525b888289016146ab565b955050602086013567ffffffffffffffff81111561527c5761527b614518565b5b61528888828901614f46565b945050604086013567ffffffffffffffff8111156152a9576152a8614518565b5b6152b588828901614f46565b935050606086013567ffffffffffffffff8111156152d6576152d5614518565b5b6152e288828901614f46565b925050608086013567ffffffffffffffff81111561530357615302614518565b5b61530f88828901614f46565b9150509295509295909350565b600060608201905061533160008301866145ae565b61533e602083018561471f565b61534b60408301846147e2565b949350505050565b6000806040838503121561536a57615369614513565b5b600061537885828601614760565b925050602061538985828601614760565b9150509250929050565b7f4e487b7100000000000000000000000000000000000000000000000000000000600052602260045260246000fd5b600060028204905060018216806153da57607f821691505b6020821081036153ed576153ec615393565b5b50919050565b6000606082019050615408600083018661471f565b61541560208301856147e2565b615422604083018461471f565b949350505050565b6000819050919050565b600067ffffffffffffffff82169050919050565b6000819050919050565b600061546d6154686154638461542a565b615448565b615434565b9050919050565b61547d81615452565b82525050565b60006020820190506154986000830184615474565b92915050565b7f4e487b7100000000000000000000000000000000000000000000000000000000600052603260045260246000fd5b7f4e487b7100000000000000000000000000000000000000000000000000000000600052601160045260246000fd5b60006155078261468a565b91507fffffffffffffffffffffffffffffffffffffffffffffffffffffffffffffffff8203615539576155386154cd565b5b600182019050919050565b600061554f8261468a565b915061555a8361468a565b9250828203905081811115615572576155716154cd565b5b92915050565b7f496e76616c69642072656e74616c000000000000000000000000000000000000600082015250565b60006155ae600e836145e3565b91506155b982615578565b602082019050919050565b600060208201905081810360008301526155dd816155a1565b9050919050565b60006155ef8261468a565b91506155fa8361468a565b9250828201905080821115615612576156116154cd565b5b92915050565b600060408201905061562d60008301856147e2565b61563a60208301846147e2565b9392505050565b7f4f6e6c79206f776e6572206f722072656e7465722063616e20656e642072656e60008201527f74616c0000000000000000000000000000000000000000000000000000000000602082015250565b600061569d6023836145e3565b91506156a882615641565b604082019050919050565b600060208201905081810360008301526156cc81615690565b9050919050565b7f4e6f206163746976652072656e74616c00000000000000000000000000000000600082015250565b60006157096010836145e3565b9150615714826156d3565b602082019050919050565b60006020820190508181036000830152615738816156fc565b9050919050565b7f416c7265616479206f776e73206120627573696e657373206361726400000000600082015250565b6000615775601c836145e3565b91506157808261573f565b602082019050919050565b600060208201905081810360008301526157a481615768565b9050919050565b60008190508160005260206000209050919050565b60006020601f8301049050919050565b600082821b905092915050565b60006008830261580d7fffffffffffffffffffffffffffffffffffffffffffffffffffffffffffffffff826157d0565b61581786836157d0565b95508019841693508086168417925050509392505050565b600061584a6158456158408461468a565b615448565b61468a565b9050919050565b6000819050919050565b6158648361582f565b61587861587082615851565b8484546157dd565b825550505050565b600090565b61588d615880565b61589881848461585b565b505050565b5b818110156158bc576158b1600082615885565b60018101905061589e565b5050565b601f821115615901576158d2816157ab565b6158db846157c0565b810160208510156158ea578190505b6158fe6158f6856157c0565b83018261589d565b50505b505050565b600082821c905092915050565b600061592460001984600802615906565b1980831691505092915050565b600061593d8383615913565b9150826002028217905092915050565b615956826145d8565b67ffffffffffffffff81111561596f5761596e61494d565b5b61597982546153c2565b6159848282856158c0565b600060209050601f8311600181146159b757600084156159a5578287015190505b6159af8582615931565b865550615a17565b601f1984166159c5866157ab565b60005b828110156159ed578489015182556001820191506020850194506020810190506159c8565b86831015615a0a5784890151615a06601f891682615913565b8355505b6001600288020188555050505b505050505050565b600081905092915050565b6000615a35826145d8565b615a3f8185615a1f565b9350615a4f8185602086016145f4565b80840191505092915050565b6000615a678285615a2a565b9150615a738284615a2a565b91508190509392505050565b7f4e6f7420796f757220627573696e657373206361726400000000000000000000600082015250565b6000615ab56016836145e3565b9150615ac082615a7f565b602082019050919050565b60006020820190508181036000830152615ae481615aa8565b9050919050565b7f4e6f7420617574686f72697a6564000000000000000000000000000000000000600082015250565b6000615b21600e836145e3565b9150615b2c82615aeb565b602082019050919050565b60006020820190508181036000830152615b5081615b14565b9050919050565b615b6081614ad4565b8114615b6b57600080fd5b50565b600081519050615b7d81615b57565b92915050565b600060208284031215615b9957615b98614513565b5b6000615ba784828501615b6e565b91505092915050565b600081519050919050565b600082825260208201905092915050565b6000615bd782615bb0565b615be18185615bbb565b9350615bf18185602086016145f4565b615bfa8161461e565b840191505092915050565b6000608082019050615c1a600083018761471f565b615c27602083018661471f565b615c3460408301856147e2565b8181036060830152615c468184615bcc565b905095945050505050565b600081519050615c6081614549565b92915050565b600060208284031215615c7c57615c7b614513565b5b6000615c8a84828501615c51565b91505092915050565b6000604082019050615ca8600083018561471f565b615cb560208301846147e2565b9392505050565b7f4e487b7100000000000000000000000000000000000000000000000000000000600052601260045260246000fd5b600081905092915050565b6000615d0182615bb0565b615d0b8185615ceb565b9350615d1b8185602086016145f4565b80840191505092915050565b6000615d338284615cf6565b91508190509291505056fea26469706673582212202c8b9eee895db24dd8ef44752debef20e1f10aa3f1fc8154cfea6748e857ba7864736f6c634300081c0033",
  "linkReferences": {},
  "deployedLinkReferences": {}
}